:020000021000EC
:10000000E03F082095010100FB000100E100010034
:10001000090101001901010029010100000000008F
:10002000000000000000000000000000A1A5010089
:10003000390101000000000001A601005901010082
:10004000E1AB0100E1AB0100E1AB0100E1AB01007C
:10005000E1AB0100E1AB0100E1AB0100E1AB01006C
:10006000E1AB0100E1AB0100E1AB0100E1AB01005C
:10007000E1AB0100E1AB0100E1AB0100E1AB01004C
:10008000E1AB0100E1AB0100E1AB0100E1AB01003C
:10009000E1AB0100E1AB0100E1AB0100E1AB01002C
:1000A000E1AB0100E1AB0100E1AB0100E1AB01001C
:1000B000E1AB0100E1AB0100E1AB0100E1AB01000C
:1000C000E1AB0100E1AB0100E1AB0100685D0200C2
:1000D00000C00720F4020000F8C2072098040000C6
:1000E00004207146084203D0EFF309800AF096BD60
:1000F000EFF308800AF092BD704708B5014807F099
:1001000005FBFEE71657020008B5024807F0FEFAA5
:10011000FEE700BF2157020008B5024807F0F6FAD3
:10012000FEE700BF2C57020008B5024807F0EEFAC0
:10013000FEE700BF3757020008B5024807F0E6FAAD
:10014000FEE700BF4457020008B5024807F0DEFA98
:10015000FEE700BF5257020008B50AF0D3F90AF0D3
:1001600071FABDE808400AF0E1B90B4610B5401A33
:100170005C1AA24203D9C45843F8044BF8E710BDF7
:10018000034610B500221C1AA14202D943F8042BE1
:10019000F9E710BD16480AF0F7FA15480AF0F7FA21
:1001A000144C154DAC4201D3144D07E094E8030004
:1001B0000C3454F8042CFFF7D8FFF3E7AC4206D216
:1001C00054F8080B54F8041CFFF7DAFFF6E70CF0BC
:1001D00067F90AF0F3FA01F0D9FD02F0F5FB4FF4EC
:1001E00016400AF039FE064807F090FAFEE700BF15
:1001F000E03F0820CC000100D8000100E000010031
:10020000665702000AF0E0B90AF0EEB9144B10B5D7
:100210001A68014612B94FF080521A60114C1868E2
:100220002468421894421A6007D20F4CA24204D8A4
:100230000E4A0B488C18046010460D4A1B68126861
:10024000934222BF064B00201A6039B1094A136855
:1002500001331360084B1860084B196010BD00BFD4
:10026000FCC2072004C30720FFBF072090C7072058
:1002700008C307200CC30720F8C2072000C30720CB
:100280000CF046BA0CF04CBA0CF04ABA30B5044641
:100290008BB068460CF0F8FC224B079A2360089B51
:1002A000214DA36062602149214B52B90A68186848
:1002B00082428ABF02F1604202F17042A2F5E82256
:1002C000626062681B68B2F5803F82BF02F17042D3
:1002D000A2F5E82262600022E2600A68934206D337
:1002E000991AC5F1005303F504230B440BE0114B9D
:1002F0001B68934208D9991AC5F1005303F5F823F6
:100300000B44002B00DDE36020460B4BE2611B68D1
:10031000A3610A4B1B686361094B1B6823610BB027
:1003200030BD00BF9007000090C70720FCC2072027
:1003300004C3072008C30720F8C2072000C3072012
:100340000CC30720034A044B1A60044A044B1A608A
:10035000704700BF0080001004C307200040082041
:1003600008C30720014B1860704700BF14C3072063
:10037000014B1860704700BF10C3072008B5024842
:100380000DF02AFCFEE700BFA42F020008B50248CA
:100390000DF022FCFEE700BFBE2F020000207047D8
:1003A00001207047F8B5084B16461A680F461C46E0
:1003B00042B10D46EB1B9E4204DD236815F8010B8C
:1003C0009847F7E73046F8BD14C30720F8B5094B46
:1003D0000F46186816461C4658B10D46EB1B9E4248
:1003E00005DD23680020984705F8010BF6E726EAAB
:1003F000E670F8BD10C30720704700207047FFFF6C
:10040000074B1B689A68824207D05A68824204D020
:10041000DB681B1A5842584170470120704700BFE3
:1004200038C10720002070470020704730B50446CF
:100430008DB0A8B3684608F04BF99DF80030002550
:1004400003F03F0303939DF8013003A803F03F033B
:1004500004939DF802300B9503F01F0305939DF85C
:10046000043003F01F0306939DF8053003F00F03DB
:10047000013B0793BDF80630C3F30B03A3F26C7383
:1004800008939DF8033003F007030993BDF8083083
:10049000C3F30B03013B0A930CF084FA84E82100B8
:1004A00000200DB030BDFFFF70B50F4D0F4E2C6812
:1004B00014F0010415D128460BF06EF888B14FF402
:1004C0000E70FFF7DDFE302380F835323A2380F8D6
:1004D000344280F8363280F83742306028460BF0DC
:1004E00067F8306870BD00BF30C3072034C30720F1
:1004F00070B50F4D0F4E2B6813F0010416D128462E
:100500000BF04AF890B14FF40E70FFF7B9FE0123DB
:1005100080F83432312380F835323A2380F836328D
:1005200080F83742306028460BF042F8306870BDE2
:1005300028C307202CC307202DE9F04FADF51B7D04
:100540000F4607F007FD041E04DD09F0A3FF204657
:1005500009F0E6FC0DF114094C462A4D4FF0640BEE
:100560000FCD0FC42B6804AA2360102100240AA811
:10057000049409F093FE244A82462449384608F040
:1005800017FB26460AAD4FF00008D0451CD06B691A
:10059000A34215D1AA69049B16441BB1B3FBFBF31C
:1005A000B2FBF3F3297B039202932B8C00949B0004
:1005B000019359F821306A681549384608F0F8FA6D
:1005C00008F101082435E0E701340A2CDAD1049B54
:1005D00064229E1BB3FBF2F30E49B6FBF3F30E4A03
:1005E0000096384608F0E4FA09F06EFB102804D9AA
:1005F00010220A49384608F0DBFA01200DF51B7D70
:10060000BDE8F08FD82F0200F72F0200FC2F020068
:10061000233002004B300200403002006A300200FA
:1006200010B50C46ADF5007D68460AF05FFA20462D
:100630004FF0FF32694608F085FA01200DF5007D84
:1006400010BDFFFF30B50C4691B02C49054607F0B0
:100650008DFB002847D00CAB04930BAB03930AAB84
:10066000029309AB019308AB009306AA07AB244998
:10067000284607F0E3FA072801D000203BE09DF868
:100680003930069A0DA862F303038DF83930079AC2
:100690009DF8383062F304038DF83830089ABDF8BD
:1006A0003A3062F30B03ADF83A30099A9DF83630D0
:1006B00062F304038DF836300A9A9DF8353062F300
:1006C00005038DF835300B9A9DF8343062F305033D
:1006D0008DF834300C9A9DF8373062F302038DF8B0
:1006E000373008F01DF808F0B7F8064902462046F2
:1006F00008F05EFA012011B030BD00BF9430020056
:1007000098300200764F0200F7B50D464E49044678
:1007100007F01CFC064640B106F090FE4FF0FF3299
:100720004A49284608F00EFA8BE04949204607F06E
:100730000DFC60B306F0A6FE46490246284608F0C6
:1007400037FA06F0ABFE44490246284608F030FA74
:1007500006F09EFE41490246284608F029FA304636
:1007600006F086FE0446012006F082FE06460220C0
:1007700006F07EFE0746032006F07AFE0097019001
:10078000334622463649284608F012FA59E03549E0
:10079000204607F0EBFA50B120220121204607F055
:1007A00083FB204607F0D4FB06F090FF49E02E497A
:1007B000204607F0DBFA064620B92C49204607F010
:1007C000D5FA60B32A49204607F0BEFA60B9294934
:1007D000204607F0B9FA28B92046274907F0B4FAAD
:1007E000044602E0032400E002243146204606F0DD
:1007F000C5FE224A224B002E18BF1A463CB1012CDE
:1008000007D01C491A4B022C18BF0B4602E01D4BA7
:1008100000E0194B1C49284608F0CAF911E02046AF
:1008200007F096FB194A1A490090F323012006F0BD
:10083000B3FE204607F08CFB16490246284608F016
:10084000B7F9012003B0F0BDD3300200D930020067
:10085000F2300200F93002000E31020023310200B2
:100860004231020072310200763102007E31020014
:10087000CE300200C8300200C2420200B93002008D
:10088000B1300200C230020087310200EC2F0200BA
:10089000A0310200D331020030B589B004AB00248E
:1008A00000930D4603AB022218490394049407F009
:1008B000D3F9022827D107AB009305AA06AB049908
:1008C000039805940694079403F0C4FA024638B1DD
:1008D000049B0F4900932846039B08F069F910E038
:1008E000059A069B002A079908BF0122002B08BF22
:1008F0000123B1FBF3F3B1FBF2F22846054908F0FE
:1009000057F9012000E0204609B030BD62420200E4
:10091000E1310200003202002DE9F0470E46ADF54C
:10092000856D3949054607F0ABFA38490746284630
:1009300007F0CFFA3549284607F0EBFA284607F0CA
:1009400007FB0122014681A805F0CEFA044640B11A
:10095000284607F0FDFA2E490246304608F028F9ED
:100960004CE00DF1040A01464FF4007250460BF0C2
:1009700034FF00940AF0A4F8804689466B464FF491
:100980000072514681A805F049FB08B9009B23BBC2
:1009900081A805F012FDCFB10AF092F84FF47A72F7
:1009A00000230BF0F5FA002305464FF47A72404617
:1009B00049460BF0EDFA281A14BF03460123B4FB95
:1009C000F3F322461349304608F0F2F84FF0FF32B5
:1009D0001149304608F0B6F810E01C44002FCDD184
:1009E0003D46009B9D42C9D233681AF805105B68EA
:1009F0004FF0FF32304698470135F2E701200DF500
:100A0000856DBDE8F08700BF2E3202006242020011
:100A1000373202004B320200D93702002DE9F0478D
:100A20000023BEB00C46534905460C9307F08EFADE
:100A300020B9284607F08CFA064600E04E4E3146B3
:100A400015A805F073FD054630B1034632464B4903
:100A5000204608F0ADF889E032464949204608F0C2
:100A6000A7F82F460DF1780880230DA915A8CDF819
:100A70004C80149305F09EFD002861D19DF83D3017
:100A8000002B5DD09DF83C100DF13D00CA065BBF08
:100A90000D9B0C9A44229B185BBF0C932D220135B1
:100AA000013711F0010F14BF52232D23BDF83AA0D6
:100AB00011F0020F09900D9814BF4FF0480E4FF03F
:100AC0002D0E11F0040F14BF4FF0530C4FF02D0CEE
:100AD000089011F0200FCAF34510BDF838100790A8
:100AE0004FEAEA20069001F01F000590C1F3431081
:100AF0004FEA612114BF4FF041094FF02D0901F277
:100B0000BC71CDF804C0CDF800E004900391CDF89D
:100B100008901C49204608F04BF84FF0FF321A4964
:100B2000204607F0FBFF41464FF0FF32204607F01A
:100B3000F5FF4FF0FF320F49204608F003F891E728
:100B40003A46124900950C9B204608F031F80BAA52
:100B50000CA9304605F05DFD40B90B9B0C499A7815
:100B60000C9B20465A43520808F022F801203EB060
:100B7000BDE8F087D9370200663202006932020010
:100B80008D320200A8320200D5320200D9320200B2
:100B90000333020070B50C46064607F0D9F9054646
:100BA000304607F0D5F905F0F6FD064A064B074931
:100BB000002808BF13462A46204607F0F9FF012007
:100BC00070BD00BFB9340200C33402001733020005
:100BD00070B50C46064607F0BBF90546304607F0EF
:100BE000B7F905F07BFD064A064B0749002808BF08
:100BF00013462A46204607F0DBFF012070BD00BFE8
:100C0000B9340200C3340200333302007FB503ABB2
:100C1000002400930E4602AB02220F490294039473
:100C200007F01AF8022814D1029C039D2046294699
:100C300005F05AFE094B0A49224600280CBF084617
:100C400018462B4600900749304607F0B1FF0120B7
:100C500000E0204604B070BD62420200C3340200CE
:100C6000B93402004533020030B5ADF50D7D0C46B8
:100C7000054607F06DF90A22014603A805F034F98C
:100C800040B1284607F064F91F490246204607F0A4
:100C90008FFF34E08DF8070002901C4942F2107378
:100CA0007E22204607F084FF1949204607F080FF86
:100CB000236842F210721B680DF107012046984725
:100CC00018B19DF807307E2B03D103A805F075FB02
:100CD00015E002AB01220DF1070103A805F056FA59
:100CE00058B9029B012B08D123684FF0FF325B6893
:100CF0009DF8071020469847DAE70649D5E7012016
:100D00000DF50D7D30BD00BF5D3302008433020060
:100D1000BC330200DC3302002DE9F04FADF5417D1C
:100D2000002304AC236003930D46009403AB02221E
:100D3000414906F091FF022806D04FF0FF323F49AB
:100D4000284607F0FFFE72E0216817A805F0EEFBC9
:100D500010B122683A4906E0039917A805F0E6FBAE
:100D600028B1039A3749284607F022FF5FE04FF485
:100D700080720DEB020105A806F030FF4FF480727F
:100D800080A90AA806F02AFF20AE80270FA917A87D
:100D90001596169705F00EFC002842D19DF84530B7
:100DA000002B3ED09DF8443003F0100303F0FF0AFF
:100DB000002BEBD10DF14503039A234905A807F059
:100DC00011F90DF1450322681F490AA807F00AF935
:100DD00005A807F0BDF807460AA807F0B9F880464D
:100DE00005A8DDF83C9007F0B3F883460AA807F0A1
:100DF000AFF8534652460146CDF800A0584603F0DE
:100E000029F8124A124BCDF8009000280CBF184662
:100E100010461049019043463A46284607F0C8FE5E
:100E2000B3E70AA806F0EFFE05A806F0ECFE0120E5
:100E30000DF5417DBDE8F08F6242020003340200EF
:100E4000483402006D3402008D340200C3340200C5
:100E5000B934020093340200F8B50D462449064621
:100E600007F074F80446074618B1FFF741FB00226B
:100E700008E02049304607F069F8044660B1FFF702
:100E800013FB3A46114600F2352005F0BDFD4FF048
:100E9000FF32194B194922E01949304607F056F83C
:100EA000044658B1FFF724FB012200F2352104F07B
:100EB000DDFF4FF0FF32134B134910E0134930466A
:100EC00007F044F8044680B1FFF7EEFA012200F281
:100ED000352104F0CBFF0E4B0E494FF0FF320028B6
:100EE00018BF1946284607F02DFE2046F8BD00BF62
:100EF0001A35020024350200BC340200B23402006C
:100F000031350200D9340200C93402003A350200FA
:100F1000FE340200F034020008B508464FF0FF32FC
:100F2000084907F00FFE06F089FA4FF4FA6008F05E
:100F3000F7FF4FF08043AA221A7200221A70012094
:100F400008BD00BF4635020010B501200C4606F072
:100F500039FE40B100231A46194608F0F3FA4FF063
:100F6000FF32054902E005494FF0FF32204607F005
:100F7000E9FD012010BD00BF573502006D350200AC
:100F800038B5064C236833B91C20FFF779F90546BC
:100F900007F0A6FA2560206838BD00BF20C30720EF
:100FA0002DE9F04F5F4C91B023680E4633B92C20E9
:100FB000FFF766F9054607F027FD25602768FFF76C
:100FC00073FA00240CAA0DA900F235200D9405F047
:100FD00020FB48B90C9A0D9C95699378023D5C43BF
:100FE0005D4364086D0800E025464F4B1A6898463B
:100FF0007AB90C20FFF744F98146FFF7C1FF90232F
:1010000089F804300023C9F80000C9F80830C8F88E
:101010000090D8F8000002F00BFF81460AF072FF42
:101020000A900AF0CBFD014648460AF011FD3F49FF
:101030000AF018FE0AF066FF81460DA809F0B4FB1D
:1010400003F04CFE68B307F081FC03F031FE4FF073
:10105000000A0346D346D0469A450B930BD0504620
:1010600003F08AFE804538BFD3460B9B38BF8046CD
:101070000AF1010AF0E707F081FC642303FB08F39F
:101080002B4ACDF80880B3FBF2F3C3F1640300935D
:10109000CDF804B02B4622462649304607F088FD9D
:1010A00005E02B4622462449304607F081FD234CBB
:1010B00023681BB90120FFF7E3F82060206802F0E5
:1010C0007BFE044607F0C8FBFB8C0A9A0993BB8C95
:1010D0001B4908939DF83430019003F03F030793B8
:1010E0009DF83530009403F03F0306939DF83630A9
:1010F000304603F01F030593BDF83A30C3F30B03EA
:1011000004939DF8383003F01F0303939DF83930A2
:1011100003F00F0302934B4607F04AFD012011B084
:10112000BDE8F08F24C3072018C30720000020412A
:10113000A0860100A6350200DA3502001CC3072094
:10114000E83502002DE9F04F0D46C7B055498146FC
:1011500006F023FE54498246484606F01EFE5349D7
:101160008346484606F019FE00270DF1100805AE2B
:10117000044602970397C8F800703760BAF1000F71
:1011800045D0009603AB02AA4949484606F056FDF1
:10119000012807DC28464FF0FF32464907F0D2FC11
:1011A00038467CE00DF118084FF480742246394629
:1011B00040460BF012FB336813B90123336003E0A0
:1011C000B3F5807F88BF3460FFF7DAFE33689DF89F
:1011D0000C209DF808100093434607F0AFFD364AF7
:1011E000364B3749002818BF1346029A284607F0A5
:1011F000DFFC002433689C424ED2039A18F8043076
:1012000022443049284607F0D3FC0134F2E7BBF111
:10121000000F2CD0CDF8008003AB02AA2A49484623
:1012200006F00CFD032807D028464FF0FF3227496F
:1012300007F088FC504632E0FFF7A2FE98F8003035
:101240009DF80C209DF8081007F08DFD48B1039B18
:101250001F490093D8F80020029B284607F0A8FCFD
:101260001AE0029A1B49284607F0A2FC14E0A8B134
:1012700002230293029BFE2B10DCFFF781FE9DF8F8
:10128000081007F07BFD20B1029A1349284607F0A9
:101290008FFC029B0233ECE7012000E0204647B0C0
:1012A000BDE8F08F8143020051360200573602003C
:1012B000603602006F360200B9340200C334020007
:1012C00090360200B4360200C4360200D436020062
:1012D000FB360200153702003237020070B5ADF55B
:1012E0000A7D05460C4606F0A0FC0B2802DD0C2208
:1012F00022493CE0284606F02BFE0122014601A8C7
:1013000004F0F2FD064668BB01A805F056F8284631
:1013100006F01EFE1A490246049B204607F048FCD0
:10132000236820469B6898470A2008F0F9FD4FF093
:10133000100383F31188BFF36F8FBFF34F8F2846DD
:1013400006F006FE02460F4B0068516803C3906822
:101350000D4A186043F80C2C4FF08043AA221A72F1
:101360001E7007E0284606F0F3FD024607492046B6
:1013700007F01EFC01200DF50A7D70BD6C370200E0
:1013800093370200484002400DD0ADDEDA3702004C
:101390002DE9F041404CA4B023680646DB070D461A
:1013A0000CD420460AF0F8F840B14FF480600BF0FE
:1013B000AFF93A4B186020460AF0FAF8384930463F
:1013C00006F0EBFC0746044600B38022002104A887
:1013D0000BF003FA00230293039303AB009304AAD8
:1013E00002AB3049304606F029FC2C49029B039A97
:1013F000096804A813B902F0C9FD01E002F0E8FD94
:10140000294B2A49002818BF194638E02849304698
:1014100006F0C3FC074600283AD004AB304603AAC6
:101420002449039404948DF8084006F007FC039EB9
:10143000049B3344B3F5806F02DCDFF860800CE07E
:101440004FF480621C4920E0D8F800309DF8082055
:101450009A559DF8083001361C44039B049AF31AF0
:10146000934210DAB6F5806F0DDA2B684FF4FA620A
:101470001B6802A9284698470028E5D10F4928464D
:1014800007F096FB04E022460D49284607F090FB42
:10149000384624B0BDE8F0813CC3072038C307209C
:1014A000053802000C380200F3370200EF37020063
:1014B0001C380200233802002D3802005138020087
:1014C0006138020038B50D4606F044FD0446C0B24E
:1014D00001F092FC054A064B0649002818BF134646
:1014E0002246284607F064FB012038BDB9340200CB
:1014F000723802007938020030B50C46054687B0D4
:101500000A4907F055FBA188238804912189628844
:101510000391E18828460291E17A0191A17A009134
:10152000034907F045FB07B030BD00BF903802000B
:10153000C63802002DE9F0418CB003AB00260093C1
:101540000D46904602AB022238490296039606F0F9
:1015500083FBB04266DD02980AF0B1FEC7B2039881
:1015600018B10CF03BFEC4B200E00446002104A810
:1015700002F0E2FA30B14FF0FF322D49284607F071
:10158000E1FAF3E7022318F100010093039A2346DE
:1015900018BF0121384601F073FD064638B94FF0F7
:1015A000FF322449284607F0CDFA01263AE0B8F187
:1015B000000F37D04FF47A7104A802F0C5FA60B377
:1015C0009DF81030BB4228D19DF817300C2B04D168
:1015D0003A4606A92846FFF78FFFBCB916492846A8
:1015E00007F0E6FA9DF817309C420ADA04AB1919A5
:1015F0002B684FF0FF325B68097A28469847013420
:10160000F0E70E49284607F0D3FA0BE04FF0FF321F
:101610000B49284607F096FA04E0029A0949284641
:1016200007F0C6FA30460CB0BDE8F0816242020015
:10163000E4380200063902002E3902005B3F020046
:10164000423902005F3902001FB501A80C4601F0C3
:10165000F5FE01F0DDFB01A902462046FFF74CFF35
:10166000012004B010BDFFFF30B58BB00AAA4FF4C3
:101670007A730C4642F8243D174906F0DFFA00253C
:10168000019902A802F058FAD8B19DF80820134930
:10169000204607F08DFA00259DF80F309D420ADAAA
:1016A00002AB591923684FF0FF325B68097A204674
:1016B00098470135F0E70A49204607F079FA0125F5
:1016C000DEE72DB94FF0FF320649204607F03AFA1F
:1016D00001200BB030BD00BF2A380200853902005E
:1016E000D83702009C39020037B50C4601F00AFDDC
:1016F00005461649204607F05BFA15492A4620465A
:1017000007F056FA1149204607F052FAD5B11149AF
:10171000204607F04DFA0D49204607F049FA00250A
:10172000E8B201F0D9FC013540B181784378027804
:1017300000912046084907F03BFAF1E703492046AB
:1017400007F036FA012003B030BD00BFAD3902000A
:10175000C8390200E2390200FD3902002DE9F347E1
:101760003C4C074626688946002E62D12420FEF7AD
:1017700087FD0423054680E848008660C660202176
:1017800030460CF093FAAE68E8604FEA8608072E00
:101790000ED81020FEF774FD8246102200210BF0B7
:1017A0001CF8EB68013643F808A008F10408EEE7DE
:1017B000002608236B604FF00108274B274A284971
:1017C0002846009685F82080256005F0A9FB254B6A
:1017D000254A26492068009605F0A2FB244B254A9D
:1017E00025492068009605F09BFB244B244A254997
:1017F0002068009605F094FB234B244A2449206876
:10180000009605F08DFB234B234A24492068CDF830
:10181000008005F085FB224B224A20492068009673
:1018200005F07EFB0096204B204A2149206805F0F8
:1018300077FB2049384606F089FB18B11E49384627
:1018400006F03EFC4A463946206802B0BDE8F04743
:1018500005F046BC44C30720183A0200523A020081
:10186000091B0100593A0200AD3A0200DD180100DF
:10187000B63A0200D93A020069160100DC3A0200C9
:101880003B400200C5140100063B0200223B02005F
:10189000E9160100293B0200903B020035150100CA
:1018A0006A3B02008F3B0200943B0200AF3B020008
:1018B00049160100D9370200B53B020038B5064C85
:1018C000236833B95820FEF7DBFC054606F0E0FE3E
:1018D0002560206838BD00BF40C307202DE9F04FC8
:1018E0000446ADF2DC5D802288460DA800210AF096
:1018F00074FF802200212DA80AF06FFF06AE00239E
:1019000033600DAA00962DAB7549204606F096F976
:10191000032801D00020DFE001220DA9EDA804F08A
:10192000E3FA05460028F5D1FFF7C8FF33688022A7
:1019300080F853304DA9044608A88DF81750079534
:1019400006F04CF92DAB009333680DAA654940466B
:1019500007F02EF9A94607AE33464FF400726DA981
:10196000EDA804F05BFB002840F0AF803368002B4B
:1019700000F0AB806F1C32685B49204607F018F915
:10198000236820469B6898477D1E0DF5DA7B4FF053
:10199000000A6DAB3268C3EB0B039A4223680CD983
:1019A000CDF80CB05B684FF0FF321BF8011B2046EE
:1019B0009847039B1B789A44EBE79B68204698471F
:1019C00008A806F0C5FA834608A806F031F94FF4D6
:1019D0007A7302465946204607F0C2F820220121B8
:1019E0000DEB020006F060FA08A806F0B3FA824593
:1019F00020D008A806F0AEFA524603463B494046BE
:101A000007F0D6F83A49204607F0D2F82368204676
:101A10009B68984723684FF47A721B680DF1170191
:101A2000204698470028F5D1022F07F101034CD832
:101A30001F46A0E733682DAA2E49009320464B4647
:101A400007F0B6F8236820469B68984708A806F078
:101A50007FFA824608A806F0EBF8514602464FF49A
:101A60007A73204607F07CF8234908A806F06CF941
:101A7000D0B908A806F06CFA20490246404607F0A3
:101A800097F81B49204607F093F8236820469B6887
:101A9000984723684FF47A721B680DF117012046AE
:101AA00098470028F5D1BFE7154908A806F008FBBC
:101AB0003368144999444A46F09B404607F078F849
:101AC000002D3FF448AFBD1E45E7EDA804F075FCBE
:101AD00008A806F098F801200DF2DC5DBDE8F08F53
:101AE000BA3B0200C93B0200E03B0200F23B0200AD
:101AF000D8370200193C02002F3C0200323C0200A1
:101B0000D93702006A3C02002DE9F047074686B04B
:101B100006AA002442F80C4D0E463D4906F08EF808
:101B200020220121384606F0BFF9039B002B65D027
:101B3000384606F07AF8002860D0FFF7BFFE054669
:101B40000DF1180808F80D4D2B6805221B68414659
:101B50002846984704460028F6D1039B384685F866
:101B6000533006F0F5F9274601464FF0FF3228467C
:101B700006F0E8FF2B6828469B689847254B0DF137
:101B80001809186849F8044D04902B684FF47A72CC
:101B90001B68414628469847D0B103220DF1150134
:101BA00048460AF0FFFD9DF80BA0042204A9484610
:101BB0008DF817A00AF0DCFD50B1336801225B6894
:101BC00051463046013798470028DED10134DCE722
:101BD0001822B7FBF2F302FB137202B101333A464B
:101BE0000D49304606F0E4FF74B1612300932246AC
:101BF0000A4B0B49304606F0DBFF05E04FF0FF32A1
:101C00000849304606F09EFF012006B0BDE8F08787
:101C10002A3802006E380200763C02009D3C020029
:101C2000D93C0200923D020001480BF0D5BF00BF35
:101C3000BE3D020038B504460D4609F0BBF8074B1F
:101C4000B0FBF3F00223B0FBF3F2AA4204D9B3F5E0
:101C5000807F01D00233F6E7236138BD40420F0098
:101C60007FB500F235260C460122314604F0FEF81D
:101C7000054648BB039002AA03A9304604F0C9FCFC
:101C800000BB0298039A837802FB03F18269134830
:101C9000023A5A435208B2F5004F38BF0120104BA8
:101CA0004FEA510124BF03464FF48060B1FBF0F1CD
:101CB000B2FBF0F20091019321460A480BF01AFFA3
:101CC000012008E0084B00E0084B2A46214608485E
:101CD0000BF010FF002004B070BD00BFFC3D0200FF
:101CE000F93D0200063E0200023E0200FF3D0200F6
:101CF000343E020038B5074C23684BB90820FEF784
:101D0000BFFA0546FFF73CF9402328602B71256098
:101D1000206838BD50C3072038B5054C256825B963
:101D20000120FEF7ADFA05702060206838BD00BFC5
:101D30004CC3072038B5084C23685BB90C20FEF76C
:101D40009FFA0546FFF71CF990232B7100232860AA
:101D5000AB602560206838BD18C3072010B5044C5F
:101D600023681BB90120FEF78BFA2060206810BDA4
:101D70001CC3072010B5044C23681BB90120FEF7D3
:101D80007FFA2060206810BD48C30720AD49AE4AE5
:101D90004023F0B58B614FF0007393614FF48033B3
:101DA0008B61AA4BADF5057D1868072520F0F00082
:101DB00018601868022440F050001860186820F479
:101DC00040501860086840F040000860186820F42F
:101DD0007C201860186840F428201860186820F4E7
:101DE00070001860186840F420001860186820F02F
:101DF00040401860186840F000401860586820F0B3
:101E00003C005860586840F028005860586820F03E
:101E100003005860086840F480300860586820F477
:101E200040505860086820F480000860D96821F4A8
:101E30004031D960116841F080711160596821F416
:101E400040215960596841F480215960986880495F
:101E500001409960116841F4897141F001011160FC
:101E6000996821F470119960996821F07041996026
:101E7000116821F446411160D96821F03001D96020
:101E8000D96841F03001D960D96821F47011D96066
:101E9000136843F000731360136823F080631360CA
:101EA00006F06CF901210A2008F0A4FD01210A20A6
:101EB00008F0B8FD6748012105604460FFF7BAFEED
:101EC00006F0D4FC0121152008F094FD0121152015
:101ED00008F0A8FD6048012105604460FFF7AAFEF4
:101EE000FFF74EF8642106F0C7FA10B95B480BF013
:101EF00073FE08F0BBFD01F0F9FD10B958480BF076
:101F00006BFE4FF4FA6006F0F2F8FFF78DFE08F072
:101F100051FF09F04FFE534909F058FF09F0D0FC7A
:101F200002460B4650480BF0E5FD08F037FC05284B
:101F300004AC14D1002363604C4B1B682360FFF793
:101F400073FE4B4B4B48D96C1A6D5B6D00940BF0D4
:101F5000D1FDFFF769FE41F2883006F0C8F8FEF7C0
:101F6000A3FA4549FFF77CFE054668BB43480BF0E2
:101F7000C1FD02F02BFFFEF797FA29462A4600F230
:101F8000352004F041FD3E4B3E4A00280CBF104670
:101F900018460BF021FEFEF787FA3749FFF760FE7F
:101FA00090B939480BF018FE02F092FE014637480E
:101FB0000BF0A0FD02F07CFE054602F089FE00FB5E
:101FC00005F133480BF096FD324E334F336813F072
:101FD000010516D1304609F0DFFA90B14FF40E70CA
:101FE000FEF74EF9012380F83432312380F8353280
:101FF0003A2380F8363280F837523860304609F09C
:10200000D7FA26493868264DFFF72AFE18211148CD
:10201000FFF710FEFFF708FE2B684BB90820FEF70C
:102020002FF90646FEF7ACFF3823306033712E607F
:10203000286801F0D2FD0546B0BB1A480BF0CCFD74
:1020400033E000BF00C0092020C0092000C00240CA
:10205000F0FCFCFF0000034000800840783E0200D6
:10206000A93E020000247449CE3E020044400240D2
:1020700000400240E63E02005E3F0200663F020072
:102080006C3E0200673E0200A33F0200C23F020016
:10209000D13F020028C307202CC30720E8340200E8
:1020A00058C30720EC3F02000125FFF743FE01F073
:1020B00095FE064618B972480BF08EFD3546FFF7BF
:1020C00019FE01F00DFE064618B96E480BF084FDAE
:1020D00035466D4E33681BB90120FEF7D1F83060EC
:1020E000306801F0CBFDFFF739FE01F063FEFFF72A
:1020F00013FE01F02EFEFFF73DFE01F060FEFFF73C
:102100000BFE002101F028FE8DB9FFF78DFDFFF7D2
:10211000F1FD2D2101F0CCFDFFF7ECFD2D2101F0AB
:10212000D3FDFFF7F9FDFF2101F016FE0CE0FFF7EC
:10213000E1FD0546FFF7FEFD01F07AFE09F008FF1C
:10214000C1B2284601F0E8FD1022002120460AF025
:1021500044FB00230F2221464C4801F0F5FE80B9D4
:1021600020460AF0ACF8C5B2284600F045FE484AC1
:10217000484B2946002818BF1346444A46480BF0EE
:10218000B9FCFFF7EBFD01F017FE054600200CF04F
:10219000B1FF28440BF028FD4FF4007200212046C7
:1021A0000AF01BFB204608F0A1FC21463B480BF03F
:1021B000A1FCFFF739FD8022002120460AF00DFB2B
:1021C000204602F061FD2278FF2A04D021463448DF
:1021D0000BF090FC29E0FFF7CDFD01F0F3FD09289D
:1021E0001DD130480BF0F8FC21462F480BF008FEBB
:1021F00021462E480BF07EFC2D480BF0EDFC002311
:1022000003A92C4803930BF0FBFD9DF80C30592BD0
:1022100003D1204602F016FD07E0274803E02748D7
:102220000BF0DAFC26480BF0D7FC4FF208031D68D0
:102230004FF20C031C684FF210031E684FF47043FA
:102240001A684FF20403AD0A1968A40A1D480BF07E
:1022500051FC2A4621461C480BF04CFC31461B48D9
:102260000BF048FCFFF7E0FC012005F01DF91848D1
:102270000BF0B2FCFFF7D8FC0DF5057DF0BD00BFFB
:10228000074002002140020054C307203A400200E8
:10229000723E02007238020040400200764F020097
:1022A0007440020090400200B2400200B7400200B9
:1022B000D2400200154102001941020031410200E2
:1022C0005F41020091410200BD410200EA4102006B
:1022D000074202000120704701207047012070472B
:1022E00010B5044C23681BB90120FDF7C9FF20601D
:1022F000206810BD54C307200120704738B504463C
:102300000F4B00250360636DE06DAB4205D950F8BB
:102310002500FDF7B7FF0135F5E708B1FDF7B4FF7C
:102320000025A36B206CAB4205D950F82500FDF7C2
:10233000A9FF0135F5E708B1FDF7A6FF204638BD36
:102340004042020010B50446FFF7D8FF2046FDF7D3
:1023500099FF204610BD2DE9F04104460E46C068A5
:1023600089000BF0A3FCA568E060AF004FF0000807
:10237000AE420DD90C20FDF783FFE368C0F8008062
:10238000C0F8048080F808800135D8510437EFE7A1
:102390006660BDE8F081FFFFF7B5044600250B46F7
:1023A0004FF480520095254905F0F2FB244B04269A
:1023B00023606663A563E5632564022104F13400AC
:1023C000FFF7C9FF26656565A565E56528466021B7
:1023D0000BF06CFCA56DE065AE00172D0CD810203D
:1023E000FDF74EFF0746102200210AF0F6F9E36DD3
:1023F00001359F510436F0E718236365012384F803
:102400007030104E0023A4F87430A4F87630A3671F
:10241000002200230027C4E92023C4E9226708F032
:102420004FFB4FF47A72002309F0B2FD8019794115
:10243000C4E92001204603B0F0BD00BF58420200AD
:1024400040420200C0D401002DE9F0410F7A144649
:102450004D680E688FB1082A23D1284605F0E5FBA8
:1024600000281CDD4FF0FF321349304606F056FBC2
:102470000121284605F0D8FC08E00A2A19D00D2AC7
:1024800012D02146284605F0F0FD97B13368214669
:102490003046BDE8F0415B684FF0FF321847072433
:1024A000F4E70A2A02D1F1E7BDE8F0810D2AEDD068
:1024B000E7E7BDE8F08100BF61420200F8B50446DD
:1024C000142015460F46FDF7DBFE8021064605F079
:1024D0007CFDA36BE26B9A4206D3616B591803D261
:1024E00004F13400FFF737FFE36B226C591C52F8FC
:1024F0002330E1631F605E601D72F8BD2DE9FF4768
:10250000CF6B06460D4601AC3FB94FF47A7007F029
:1025100007FD01976760A76047E00B6C0DF110089D
:102520001B6893E8070084E80700002308F80D3DC6
:1025300007F0BEFB81460027EB6B9F4263D22B6CFA
:102540004FEA870A53F827301868037C002B34D0F1
:10255000036800221B684146984770B3EB6B9F42AB
:102560002DD22B6C53F80A3093E8070084E807005B
:102570009DF8032021462846FFF766FF08F0A0FAE1
:102580004FF47A72002309F003FDD5E92223801865
:102590005941C5E92001029805F047FB074602981A
:1025A00005F046FB013887420CDB94E8070086E81B
:1025B0000700304604B0BDE8F0870137BCE705F1FD
:1025C0004403D1E7D5E92223134324D008F078FA55
:1025D0004FF47A72002309F0DBFCD5E920239942FD
:1025E00008BF904217D308F06BFA4FF47A720023B9
:1025F00009F0CEFCD5E92223801859410023C5E912
:1026000020010193D1E707F053FB8145C3D102209C
:1026100007F086FCBFE79DF803300A2B88D1C4E79A
:10262000F0B5054685B020480BF064FA294601A8AC
:10263000FFF764FF019C1CB91C480BF0CDFA30E099
:10264000029E304605F0F1FA00282ADD08F038FA3B
:102650000746F8B1B5F8743005F150000133A5F81C
:1026600074302246314604F03BFD114B00251868BA
:10267000009023681DF805105B684FF0FF3220467C
:1026800001359847042DF4D108F01AFAC11B094806
:102690000BF030FA304605F0CDFA236820469B68EF
:1026A0009847012005B0F0BD64420200D93702000E
:1026B000344202006A42020038B5064C236833B93E
:1026C0002C20FDF7DDFD054606F09EF9256020680B
:1026D00038BD00BF24C3072010B50446FFF7ECFF48
:1026E00003682146BDE810405B684FF0FF32184791
:1026F00013B5002302AC04F8013DFFF7DDFF0368CA
:102700004FF0FF321B68214698479DF8070002B042
:1027100010BDFFFF2DE9F04100F150048AB0002503
:102720000646009520465B4B5B4A5C4904F0F8FB8B
:10273000009520465A4B5B4A5B4904F0F1FB00953B
:1027400020465A4B5A4A5B4904F0EAFB0095204662
:10275000594B5A4A5A4904F0E3FB00952046594B1D
:10276000594A5A4904F0DCFB00952046584B594A17
:10277000594904F0D5FB00952046584B584A594911
:1027800004F0CEFB00952046574B584A584904F0B8
:10279000C7FB00952046574B574A584904F0C0FBE9
:1027A00000952046564B574A574904F0B9FB00950F
:1027B0002046564B564A574904F0B2FB0095204636
:1027C000554B564A564904F0ABFB00952046554BF5
:1027D000554A564904F0A4FB00952046544B554AEF
:1027E000554904F09DFB00952046544B544A5549E9
:1027F00004F096FB00952046534B544A544904F08C
:102800008FFB00952046534B534A544904F088FBF4
:1028100000952046524B534A534904F081FB0095E2
:102820002046524B524A534904F07AFB0095524BD2
:10283000524A5349204604F073FBFFF73DFF4FF423
:10284000807320224FF41641054606F0BDF88046FD
:1028500001272F744B48FDF78BFD4B48FDF782FD98
:102860003A4629463046FFF729FE082203A905A863
:1028700005F0B4F905A8454905F022FC2A4605A94A
:10288000204604F02DFC05A805F0BDF940460AB02D
:10289000BDE8F08180420200C24202003905010019
:1028A000B7420200C742020021060100CF420200E7
:1028B000DD420200A10F0100E442020025430200B4
:1028C000450601002A43020086430200190901005F
:1028D0008A4302001844020099080100CC43020018
:1028E00017440200190D01001B4402004944020074
:1028F0001D0A01004C44020071440200950B0100C6
:1029000077440200A44402000D0C0100A744020019
:10291000F5590200690C0100CC440200EF440200AA
:10292000D10B0100F2440200C5450200451101002F
:10293000C94502000C460200590E0100144602006F
:1029400027460200190F01002E4602002D47020003
:10295000090701003147020059470200490F0100F1
:102960005F470200C53E02005D1701008947020073
:102970007D48020091130100464802002B350200F9
:10298000DD120100F1260100D9260100B53B02004D
:1029900010B5054C23681BB90120FDF771FC2060C0
:1029A0002268024B1A6010BD48C307205CC3072091
:1029B000704708B501F0D0F8012008BD10B50446F5
:1029C000FDF760FC204610BD37B59020FDF758FCA0
:1029D00004460321FFF7E0FC204605F0ABF8342065
:1029E000FDF74EFC054600244FF4007208490094A0
:1029F000042305F0CDF8074B28462B6005F09AF824
:102A00002046214605F0A4F84FF0FF3003B030BD5A
:102A1000C53E0200C448020010B54FF6FF742423DF
:102A200003FB0101884209D043782BB1038C134486
:102A3000A34228BF234603842430F3E710BDFFFFE1
:102A400037B5002302A840F8043D0C4B04215B6815
:102A500098470B4B019A1C680546141B1A60042109
:102A600022460848FFF7D8FF224602210648FFF712
:102A7000D3FF281C18BF012003B030BD60C307205E
:102A800030C4072074C307204DC4072008B50B4B82
:102A9000197803788B420A4B0BBF1A889A88013247
:102AA000013214BF9A801A80064B8170DB682021A6
:102AB0009847003018BF012008BD00BF05C007209F
:102AC00005C4072060C307200A4B02781B789A428E
:102AD000094B0BBFDA881A89013201320CBFDA8048
:102AE0001A810379C3F3C202073262F3C50303718B
:102AF000FFF7CCBF05C0072005C4072010B5074964
:102B0000002311F823409A00844202D10348104464
:102B100010BD0133042BF4D1002010BD1FC40720C9
:102B200070B1C3780133DBB2FF2BC37008D1054805
:102B30000023C118CA7804335208102BCA70F8D188
:102B4000704700BF1FC40720242202FB0101034677
:102B5000024630B5914206D01446243212F8235C66
:102B6000002DF7D10FE00446002599420BD01A79C9
:102B7000C2F3C2001A8C42EA0042AA4284BF1C4639
:102B800015462433F1E7204630BDFFFF38B5054632
:102B9000C90001F10804FFF753FF1C4B2A781B788A
:102BA0009A4204D102211A48FFF7CEFF0CE004211B
:102BB0001848FFF7C9FFEB7833B990F823300424A5
:102BC00043F0800380F82330002380F8203080F821
:102BD000213002462B4690F8231080F8224021F045
:102BE0007F01C4F306240C4380F8234005F1200143
:102BF00053F8044B8B4242F8044BF9D1064A03794F
:102C0000127862F3C503037138BD00BF05C0072009
:102C10004DC4072074C3072004C0072008B5FFF780
:102C20006DFF0346D8B9FFF769FF0346B8B90D4AEF
:102C3000D378D179D07A8B4296BF1946131D1346AB
:102C4000814294BF0846084BD17B084A814238BF75
:102C50001346074900221A60CA7A0132CA7218461E
:102C600008BD00BF1FC4072027C407202BC40720AE
:102C700005C407202DE9F84F05460C464FF02409FE
:102C800009FB0219DFF868A1DFF868B14E1C4FF0AC
:102C900000084C4500F09A8094F823301A0624D599
:102CA000B5B12A7861788A4205D16F7816F8010C9F
:102CB000874200F08D80E87850B16878884207D16B
:102CC00016F8011C914203D1A979A27991427FD0D3
:102CD00094F82220218C03F07F0342EA03239942D7
:102CE00071DB2046FFF7D2FE72E06278002A6AD0DC
:102CF0006DB3297901F0C001C02917D116F8010C74
:102D00006978884202D12878904261D0E778A87823
:102D100087420CD191420AD116F8010C29788842D9
:102D200005D1A079A979884201D151E079B1A8787B
:102D3000E17888420BD16978914208D116F8010CEC
:102D40002978884203D1A079A979884246D094F89D
:102D50002210208C03F07F0341EA0323984232DBE8
:102D6000237984F82080C3F3C201CFB284F8218094
:102D70001FB12046FFF7A8FE25E003F0C003C02BDB
:102D800019D016F8010C9AF80030984213D1E37864
:102D90009A4210D07BB16379032262F30713637107
:102DA000E1702046FFF790FE23799BF8002062F344
:102DB000C503237100E001276078FFF79FFE08B18B
:102DC000C0F8008027B92434243662E7BDE8F88FC4
:102DD00024220021204609F000FDF4E7237984F83D
:102DE00020806FF3C50384F821802371EBE700BFD7
:102DF00005C0072004C00720431EDBB2FD2B9DBF8A
:102E0000024B187001200020704700BF05C007204A
:102E1000014B1878704700BF05C0072007289CBFEA
:102E2000014B1870704700BF04C007202DE9F7431D
:102E3000044691461E469DF828500F46002966D04C
:102E4000364B93F80080414563D00F2E61D800289F
:102E500061D02022002109F0C0FCFF2F237914BF8C
:102E600009F00302002262F38713032262F30203D4
:102E70002B4A6770127884F8008062F3C503294AF0
:102E80002371137884F802800133DBB21370A371CD
:102E90000BAB019315B94FF001081BE004F10809D1
:102EA000019AE0791346526853F8081B00EB0208B8
:102EB0005FFA88F8013DB8F1180F0193EDB207D819
:102EC000484409F064FC84F80780002DE8D1E2E76B
:102ED0004FF00008DFF850900123384689F80030A1
:102EE000FFF70CFE0546FFF71BFE002389F80030B4
:102EF000637925B966F307136371E57005E0AA7875
:102F000062F3071363716B78E370404603E0084691
:102F100001E00020FFE703B0BDE8F08305C0072013
:102F200004C0072004C4072011C40720124B01224B
:102F300070B51A7004461E4608B9002518E0FFF760
:102F4000A5FD05460028F8D0237903F0C003402BE7
:102F500006D0C02B0AD1E37853B162789A4207D0E9
:102F6000617920460909FFF711FE01E0802BF7D0B7
:102F700000233370284670BD11C4072082B02DE9AC
:102F8000F0439146421ED2B28DB0FD2A05460E4650
:102F900015939DF8688001D9002057E0002BFBD0E5
:102FA000179F002FF8D0199B002BF5D0189B002BF2
:102FB000F2D0169B002BEFD048220021264809F0C2
:102FC0000CFC90220021254809F007FC102200216A
:102FD000234809F002FC234B00241C605C609C60C9
:102FE000214B1C605C609C60204B1D70204B214D70
:102FF0001E7015AE0FCE0FC53368182221461E482D
:103000002B6009F0EAFB494617221B480BF02CF90C
:1030100021462046B8470028BED0B8F1000F02D1A3
:10302000FFF70EFD12E006230293144B2246019394
:1030300001230093FF2104A8FFF7F8FE0028ABD07E
:1030400004A8FFF773FF0028A6D0E9E70DB0BDE89C
:10305000F04302B0704700BF4DC4072074C307207F
:103060001FC4072013C4072005C4072005C007207C
:1030700012C4072060C3072034C40720DC480200C4
:1030800030B5182B8DB016D8B2FA82F41D1C18BFBB
:1030900001256409AC420ED00293019200950A46C4
:1030A0009DF84030014604A8FFF7C0FE18B104A8FF
:1030B000FFF73CFF00E000200DB030BD13B55379A1
:1030C00014781B09009302460B4620460321FFF7A4
:1030D000D7FF02B010BDFFFF00231A4630B5084CE1
:1030E00014F82350990035B1904202D104480844A5
:1030F00030BD0132D2B20133042BF1D1002030BDFA
:103100001FC4072000231846044A12F8231009B1EF
:103110000130C0B20133042BF7D170471FC4072020
:103120002DE9F04188B020220021684609F055FBC6
:10313000A14B1B7803F0FF04002B40F039819F4F17
:1031400020213B6968469847002800F084809C4D08
:103150006B8801336B80FFF7D5FF9DF80420A872C0
:1031600002F00703032B04D0964A137843F00103BF
:1031700009E0954B1D789DF80230AB4205D1914A8C
:10318000137843F002031370E4E0C2F3C2029DF827
:1031900000E09DF806008D49D6B204EB440313F815
:1031A00001C0F4450BD10B4493F801C0844506D10E
:1031B000997801248E1B18BF01269A7018E00134FB
:1031C000042CEAD182490B689A70804A587002F147
:1031D0000900834283F800E040F0C9800A609DF84E
:1031E00000009DF80230834240F0C480002426464F
:1031F0009DF80200FFF712FD9DF8022002709DF875
:103200000220427000228270FFF78AFC04B116B3DC
:103210009DF80030AB4200F09C809DF80160FF2ECD
:103220001BD13B6820216846984720B9654A13782E
:1032300043F0040313709DF8053003F00F02511C96
:1032400061F303038DF80530C3F303139A4202DAE6
:103250006846FFF71BFC00247CE0B5422BD164B923
:103260009DF807304BB13B6820216846984720B94C
:10327000544A137843F0040313709DF8043003F0AC
:10328000C003402B12D19DF807306A4613B91821AC
:10329000504808E00C214A48FFF710FF002858D199
:1032A00000216A460846FFF709FF52E09DF8033007
:1032B000002B4ED1F4E7484B1B78002BCBD09DF868
:1032C000054004F00F074FEA14184745C3DA0137E9
:1032D00067F303043046FFF711FC8DF805409DF8B5
:1032E0000340A54221D19DF8041001F0C0014029FE
:1032F00006D0A1F180035A425A41144610B90CE09D
:10330000012260B1C029437805D19E4203D0003329
:1033100018BF012304E0002302E0C0290ED10346B8
:10332000134303F0010420B908E094B908B94146F9
:103330000CE043788DF80330857802E000258DF8A5
:1033400003506846FFF7A2FB1CB129466846FFF709
:103350001DFC6C46FFF774FB204604221F49FFF753
:1033600089FC02221E492046FFF784FC20E003333B
:103370000B6034E785423FF439AFFFF74FFC04465A
:10338000FFF7CEFB23783BB19DF80530A27803F020
:103390000F0393423FF72AAF9DF8003023709DF84A
:1033A000023063709DF80530C3F30303A3701DE77B
:1033B00008B0BDE8F08100BF11C4072060C307203A
:1033C00005C407204CC4072005C0072013C40720EC
:1033D00000C0072034C4072012C4072074C307208C
:1033E0004DC4072000231846094AD118497809B16D
:1033F0000130C0B22433902BF7D1064B5A780AB172
:103400000130C0B293F825300BB10130C0B2704723
:1034100074C307204DC4072008B5FFF76FFB064BA8
:1034200028B18278187802FB0000C00008BD187827
:103430001823584308BD00BF04C0072003490B6888
:1034400003604B6843608B688360704705C4072046
:1034500070B53E4C4FF48035E5613D4CA060204690
:10346000C5683B4CED06FBD4A0680D46C0B20BB955
:1034700023465FE02346002A63D0072A0E782DDD1D
:103480009E604E78083A9E608E789E60CE789E60F0
:103490000E799E604E799E608E799E6001F10806DD
:1034A000C979996099694907FCD5A1682970A16813
:1034B0006970A168A970A168E970D968C906FCD4CF
:1034C000A168083505F8041CA16805F8031CA1686B
:1034D00005F8021CA16805F8011C1AE0032A1ADD90
:1034E0009E604E78043A9E608E789E600E1DC9786C
:1034F0009960D968C906FCD4A168043505F8041C94
:10350000A16805F8031CA16805F8021CA16805F86C
:10351000011C3146AFE701319E60013ADE68F606D4
:10352000FCD4A668013505F8016CA4E7E668F60648
:10353000FCD4A6686E1AB24203DD15F8016B9E60DA
:10354000F4E7024B4FF480329A6170BD00C009204D
:103550000080084007B5002302A901F8013D0123BE
:103560001A4600F01F00FFF773FF9DF8070003B035
:103570005DF804FB13B502AC04F8011D00F01F0058
:1035800000230122214640F02000FFF761FF02B036
:1035900010BD08B51720FFF7DDFFC0F3001008BD10
:1035A00070210720FFF7E6BF0A4600230146A0204E
:1035B000FFF74EBF08B50020FFF7CCFFBDE808407D
:1035C00000F0FE010020FFF7D5BFFFFF024B4FF0D8
:1035D0008072DA61704700BF20C0092008B5002062
:1035E000FFF7B8FF40F00101C9B20020FFF7C2FFAA
:1035F000024B4FF080729A6108BD00BF20C00920C5
:1036000020210720FFF7B6BF00231A461946E12004
:10361000FFF71EBF37B504460D46FFF7F5FF2046FE
:103620002946FFF7C1FF0D4B4FF080721C469A618F
:103630000022ADF80620BDF8063001339BB2ADF88C
:10364000063033B94FF08073E361FFF7DDFF03B05D
:1036500030BDFFF79EFF0028EDD0F3E720C0092022
:1036600008B51720FFF776FF00F0010080F0010099
:1036700008BD40210720FFF77DBF08B50A4601239A
:1036800001466120FFF7E4FEC0F3420008BD0023BD
:103690001A461946E220FFF7DBBE70B50646002049
:1036A0000D461446FFF756FF16B100F0BF0002E0CA
:1036B00040F04000C0B215B100F0DF0101E040F081
:1036C000200114B101F0EF0101E041F010010020F0
:1036D000BDE87040FFF74EBF10B504460020FFF76D
:1036E00039FF14B900F0F7010DE0012C04D100F00E
:1036F000FB0141F0080106E0022C14BF40F0080174
:1037000040F00C01C9B20020BDE81040FFF732BF05
:1037100008B50020FFF71EFFBDE8084040F0020199
:10372000C9B20020FFF726BF08B50020FFF712FF3F
:10373000BDE8084000F0FD010020FFF71BBF40F688
:10374000DD13984206D840F66213B0F5166F38BF05
:10375000184600E01846A0F51661C9B20520FFF72B
:1037600009BF10B504460620FFF7F4FEFA2C00F05E
:10377000D70102D141F0200104E0B4F5FA6F08BF8F
:1037800041F008010620BDE81040FFF7F3BE10B578
:1037900004460620FFF7DEFE032C28BF032420F09A
:1037A000060040EA4401C9B20620BDE81040FFF718
:1037B000E1BEF9284FF0FA0305D9B0F57A6F88BF5A
:1037C0004FF47A6000E01846B0FBF3F00F2900F1E7
:1037D000FF30C0B228BF0F2141EA0011C9B2042056
:1037E000FFF7C8BE1130C0B2162804D8202928BF60
:1037F0002021FFF7BFBE7047032804D0042814BF60
:103800000321022100E001210320FFF7B3BE0A4695
:10381000002301463020FFF71BBE0A460023014665
:103820002A20FFF715BEFFFF73B50E461546044666
:10383000FFF72DFFFFF7E8FE2B4B4FF08072DA61A8
:10384000FFF772FF002211460120FFF726FFFFF766
:10385000A7FE0220FFF740FF3046FFF770FF284623
:10386000FFF77FFF0320FFF792FF03210220FFF7FE
:1038700081FE00210120FFF77DFE03214FF4FA7045
:10388000FFF797FF21460020FFF7ACFF0021122031
:10389000FFF770FE00211320FFF76CFE00211420BB
:1038A000FFF768FE00211520FFF764FE00211620B7
:1038B000FFF760FE0D4B18681B79009005208DF80E
:1038C0000430FFF799FF68460521FFF7A0FF0521A7
:1038D0006846FFF7A2FFFFF71BFF4FF4FA6004F002
:1038E000F1FB02B070BD00BF20C00920E348020018
:1038F00070B5174E326822B92021032005F000FE72
:103900003060144D2A6822B92021012005F0F8FD0D
:103910002860114C216821B90322012005F0F0FD37
:1039200020604FF4FA6240F6C3112020FFF77CFFBD
:10393000FFF754FE1620094A012104F085FD306886
:1039400028B1286818B12068003018BF012070BD68
:103950009CC4072098C40720A0C40720093A01008E
:1039600070B50379014603F0C003C02B0CBF0E4BAA
:103970000E4B88B01D68002306461A46284605F0FF
:10398000E1FD044660B9034602466946284605F053
:10399000DFFE234622463146284605F0D3FD044685
:1039A000204608B070BD00BF98C407209CC4072003
:1039B00038B504460D46FFF72BFA237883420AD028
:1039C000E37843B90AF038F9BD2300F0030000FBA7
:1039D000033004F077FBFFF7F9FDFFF7EBFDA9B229
:1039E0002046FFF717FEFFF70BFEFFF7F7FD06F087
:1039F000B3FC022804D1034B0021186805F076FEC1
:103A0000012038BDA0C4072007B5002302A941F852
:103A1000043D084B186805F069FE019B3BB1064B5D
:103A20004FF080521A60BFF34F8FBFF36F8F03B018
:103A30005DF804FBA0C4072004ED00E038B504469F
:103A40000D46FFF70DFE48B1A9B22046FFF715FE5F
:103A5000FFF706FE08B9FFF70CFE012038BD2DE97F
:103A6000704305460E46144606F076FC022807D140
:103A7000224600233146284605F06AFEC4B21DE006
:103A800007F01EF84FF47A72002308F081FA10EB69
:103A9000040841F1000900231A463146284605F082
:103AA00057FEC4B254B907F00BF84FF47A720023F2
:103AB00008F06EFA894508BF8045ECD22046BDE883
:103AC0007083042938B5054603D1041C18BF0124AE
:103AD00000E0002406F0F4FF2CB14FF47A720023CA
:103AE00008F056FA2860204638BDFFFF00B50C4BA1
:103AF0008DB009930B4B0C4A0B930C4B0A930CABF8
:103B000043F8102D002204920FCB8DE80F00084BD4
:103B1000084A01216A20FFF731FA0DB05DF804FB75
:103B2000F13801003D3A0100C33A0100B13901000A
:103B300061390100E8480200024B0A460146186854
:103B4000FFF78DBF9CC40720024B0A460146186848
:103B5000FFF785BF98C4072008B506F0FDFB0F4BA3
:103B600002285B6913D15A020DD5FFF73BFC0028F0
:103B70000B484FF0000314BF01224FF0FF321946EB
:103B8000006805F0E5FDBDE80840FFF7C9BA5B0233
:103B9000F9D5FFF727FC0028F5D108BD00C00920A2
:103BA000A0C4072013460A460179006805F0DBB877
:103BB0001FB5002204AB047923F8042D02220092E1
:103BC00000680A46214605F0B9F89DF80C009DF8FA
:103BD0000D3043EA002004B010BD10B50446192290
:103BE0002A21FFF7DFFF0D222179206805F0AAF8CE
:103BF000A0F12A035842584110BDFFFF044A138820
:103C00001F2B9FBF581C1080024A42F82310704798
:103C1000A8C40720ACC40720154AF0B5138816467F
:103C2000012B21D9134A00201546013B984206DAA0
:103C3000516814680130091B42F8041BF6E70021A3
:103C40000C466A684FF0010E02EB52008AB29342B2
:103C500008DD55F822700131B8423CBF0EFA02F27D
:103C60001443F3E7044B1C6000233380F0BD00BF16
:103C7000A8C40720ACC40720A4C4072008B50121AC
:103C8000022006F0B7FE084B01209A6A22F00702D4
:103C90009A629A6A42F006029A62044AD36843F032
:103CA0003003D36008BD00BF0080004000C0024068
:103CB00008B5044B417101F07F015A5C0321FFF705
:103CC00071FF08BDED48020008B5044B817101F099
:103CD0007F015A5C0221FFF765FF08BDED48020035
:103CE00038B504460179006805F048F8054688B102
:103CF000002206212046FFF755FF0022072120461B
:103D0000FFF750FF2E212046FFF7D2FF2E2120463D
:103D1000FFF7DAFF284638BD642370B5B1FBF3F432
:103D200004FB1311CCB20A21B4FBF1F501FB1541E0
:103D30003031C9B20646FFF7C7FF092C88BF05F12D
:103D400030013046BDE8704094BF2021C9B2FFF772
:103D5000AFBF01207047FFFF38B50D46044606F09F
:103D600033FC05F00F032370114B15F0010F4FF0DA
:103D7000010214BFDA619A61227812F0020F4FF04B
:103D8000020214BFDA619A61227812F0040F4FF038
:103D9000100214BFDA619A61227812F0080F4FF412
:103DA000807214BFDA619A61BDE8384006F01CBC2D
:103DB00020C0092001207047022004F019BA012018
:103DC0007047FFFF044B5B69180B00F00C00C3F356
:103DD00041231843704700BF20C0092010B5044696
:103DE00081220121FFF7DEFE01222179206804F003
:103DF000A9FF10F0600F14BF0120002010BD38B5DE
:103E000000210446FFF7D4FE812205B2012120469D
:103E1000FFF7C8FE102095FBF0F007F0CFFE4FF043
:103E2000765107F01FFFA16807F014FE38BDFFFFB1
:103E300008B5FFF7E4FF054907F014FF044907F050
:103E4000C5FF4FF0844107F005FE08BD000010419A
:103E50000000A0402DE9F04FADF2546D0C469046A5
:103E60000146012282A8994602F03EF8002867D157
:103E700021460A220DF22C4002F036F8044620B109
:103E800082A802F09AFA20465AE06D460646074696
:103E90002860019006F014FE4FF47A72002308F0B7
:103EA00077F82B4683464FF4007202A982A802F0ED
:103EB000B5F88246E0B92A68D2B106F001FE4FF4A7
:103EC0007A72002308F064F8B0EB0B00074406F0A8
:103ED000F7FD4FF47A72002308F05AF801AB8346DD
:103EE0002A6802A90DF22C4002F050F98246B0B1C6
:103EF000B8F1000F01D0C8F80070B9F1000F01D07F
:103F0000C9F80060DDF8783603B11C6082A802F0C1
:103F100054FA0DF22C4002F050FA504610E001998C
:103F20002A689142E4D106F0CBFD00234FF47A7267
:103F300008F02EF82B68B0EB0B0006441C44A9E7F0
:103F40000DF2546DBDE8F08FF0B5ADF50B7D0E466A
:103F5000174601461D460122002301A8009301F0E7
:103F6000C3FF044670B91DB1294601A802F037FA13
:103F70006B463A46314601A802F050F8044601A8C3
:103F800002F01BFA20460DF50B7DF0BDF0B5ADF546
:103F90000B7D0E46174601461D460A22002301A846
:103FA000009301F0A1FF044670B91DB1294601A894
:103FB00002F015FA6B463A46314601A802F0E6F8DF
:103FC000044601A802F0F9F920460DF50B7DF0BD7D
:103FD000F0B5ADF50B7D0E46174601461D46122283
:103FE000002301A8009301F07FFF044680B90DB1C2
:103FF000294600E0049901A802F0F1F96B463A461F
:10400000314601A802F0C2F8044601A802F0D5F931
:1040100020460DF50B7DF0BD7F2810B516D931B1C6
:10402000FF2812D80A4B803833F8100010BD084A18
:1040300032F811408BB2844203D001318029F7D18C
:104040000B4603F18000C0B210BD002010BD00BFC0
:104050006E4902000649002331F8132032B1824232
:1040600001D00133F8E7034A32F81300704700BF6C
:104070006E4A02004E4C020010B501200C4605F0BD
:10408000E5FA2060003018BF012010BD0120704704
:1040900010B5044606F060F902280AD1002319463B
:1040A0004FF0FF32204605F053FB431E5842584163
:1040B00010BD012010BD10B5044606F04DF90228D0
:1040C00007D100232046BDE810401A46194605F0E6
:1040D00039BA10BD10B5044604F038FC24B1012CE7
:1040E00006D100F081F901E000F002FD044600E095
:1040F000042404F043FC204610BD28B1012801D05F
:104100000420704700F028BA7047F8B507460C46FF
:1041100015461E4604F01AFC3FB1012F0CD1324661
:104120002946204600F020FA04E03246294620467F
:1041300000F02AFD044600E0042404F01FFC2046A1
:10414000F8BDF8B507460C4615461E4604F0FEFBC2
:104150003FB1012F0CD132462946204600F050FADB
:1041600004E032462946204600F030FD044600E0D7
:10417000042404F003FC2046F8BD70B506460C4646
:10418000154604F0E3FB36B1012E0AD1294620463C
:1041900000F090FA03E02946204600F037FD04467F
:1041A00000E0042404F0EAFB204670BD08B506F0E8
:1041B00087FC4FF47A72002307F0EAFE08BDFFFF88
:1041C00010B5044606F0F6FD074BB0FBF3F00223F2
:1041D000B0FBF3F2944202D3044A136110BDB3F56D
:1041E000807FF9D00233F3E740420F000000034024
:1041F000044B9860DA68D206FCD4024B9868C0B2CF
:10420000704700BF0000034070B5FFF7CFFF00F517
:10421000FA74FF20FFF7ECFF0025FF20FFF7E8FF0F
:10422000FF28064605D0FFF7C1FFA94208BFA042FC
:10423000F3D3304670BDFFFF38B5064C4FF0007524
:10424000E561FFF7E1FF044AA561137843F001033C
:10425000137038BD20C0092006C007202DE9704327
:1042600006460D46FFF7A2FF643080464FF0000976
:10427000FF20FFF7BDFFFF2808D1FFF797FF494553
:1042800008BF4045F4D30020BDE87083FE28FAD172
:10429000102D06D900224FF40071304604F0F4FAD4
:1042A00019E0341D0435FF20FFF7A2FF04F8040CC9
:1042B000FF20FFF79DFF04F8030CFF20FFF798FF96
:1042C00004F8020CFF20FFF793FF043404F8050CF8
:1042D0002B1BDE42E7D1FF20FFF78AFFFF20FFF70D
:1042E00087FF0120BDE8708370B506460D46FFF7D5
:1042F0008BFFFF28044619D12846FFF779FFFD2DD3
:1043000016D022464FF40071304604F0BDFA204624
:10431000FFF76EFF2046FFF76BFF2046FFF768FFB1
:1043200000F01F00431F5842584170BD002070BD6F
:10433000012070BD020638B504460D4607D50021A0
:104340007720FFF7F7FF012838D804F07F041C4BD3
:104350004FF000729A61DA61FFF756FFFF280146BD
:1043600028D12046FFF744FF280EFFF741FFC5F391
:104370000740FFF73DFFC5F30720FFF739FFE8B21D
:10438000FFF736FF402C17D0482C14BF01208720A0
:10439000FFF72EFF4C2C02D10846FFF729FF0A2118
:1043A000FF20FFF725FF030608D5013911F0FF01B3
:1043B000F6D138BDFF2038BD9520EEE738BD00BFEF
:1043C00020C00920064A074913784969DBB2490130
:1043D00054BF03F0FD0343F003031370704700BFA5
:1043E00006C0072020C009202DE9F743FFF7EAFFA8
:1043F000564B1A781E4612F0020F01D01878A1E031
:104400000120FFF7DDFE0A24FF20013CFFF7F0FE4C
:1044100014F0FF04F8D14E4F4FF00073FB612146BA
:104420004020FFF787FF012802D04FF0000875E019
:10443000FFF7BCFE4FF4D57100F57A754820FFF701
:1044400079FF012841D10DF10408FF20FFF7D0FECC
:1044500008F804000134042CF7D19DF80630012B34
:10446000E3D19DF80730AA2BDFD12C460025FFF7BA
:104470009DFEA94208BFA04206D3FFF797FEA942BE
:1044800008BFA042D1D207E04FF08041E920FFF7FA
:1044900051FF0028EBD1F0E700217A20FFF74AFF17
:1044A0000028C2D10146FF20FFF7A2FE08F8010054
:1044B00001310429F7D19DF8043013F0400F14BFE7
:1044C0004FF00C084FF0040828E02146E920FFF7E0
:1044D00031FF02282C4635BF4FF002084FF001088B
:1044E0004FF0E9094FF041090025FFF75FFEA942AF
:1044F00008BFA0420BD3FFF759FEA94208BFA04254
:104500000CD34FF400715020FFF714FF06E0002198
:104510004846FFF70FFF0028E7D1ECE70D4B83F883
:1045200000804FF00073BB61B8F1000F07D0337803
:10453000182003F0FE033370FFF742FE01E0FFF79F
:104540007BFE3078C0B203B0BDE8F08306C0072020
:1045500020C009202CC5072008B5FFF733FF014B09
:10456000187808BD06C0072070B5144606460846F0
:10457000FFF728FF002C39D01E4B1B78DB0737D400
:104580001D4B4FF00072DA611C4A1D46127812F082
:10459000080F08BF4002012C01460CD15120FFF743
:1045A000C9FEE0B94FF400713046FFF757FEB0FA8C
:1045B00080F4640913E05220FFF7BCFE78B94FF491
:1045C00000713046FFF74AFE28B1013C14F0FF04A9
:1045D00006F50076F3D100214C20FFF7ABFE4FF03B
:1045E0000073201CAB6118BF012070BD042070BD9A
:1045F000032070BD06C0072020C009202CC507205D
:10460000F8B5144606460F46FFF7DCFE002C44D0F2
:10461000254B1A78D20742D41B785B0741D4234B31
:104620004FF00072DA61224A1D46127812F0080F2C
:1046300008BF7F02012C0CD139465820FFF77AFEC3
:1046400018BBFE213046FFF74FFEB0FA80F4640934
:104650001CE012F0060F03D02146D720FFF76AFEB8
:1046600039465920FFF766FE80B9FC213046FFF736
:104670003BFE28B1013C14F0FF0406F50076F4D1AE
:10468000FD210020FFF730FE00B901244FF0007338
:10469000201CAB6118BF0120F8BD0420F8BD032029
:1046A000F8BD0220F8BD00BF06C0072020C00920C9
:1046B0002CC507207FB50D46FFF784FE05281AD1CB
:1046C0002B78012B00F0048103D3022B0BD00420A4
:1046D00001E1824B586910F0806440F0F980FFF7E7
:1046E000ABFD2046F7E07D4B5B6983F08063C3F34D
:1046F00080636B70ECE07A4B1B78DB0700F1EA809B
:104700000E2800F2DF80DFE800F008124F53DDDDF5
:10471000DDDDDDDDAAAFB2BBCB00704B4FF0007228
:10472000DA61FFF771FDFF3818BF0120CBE00021EF
:104730004920FFF7FFFD044608B10120C3E0102126
:104740006846FFF78BFD0028F7D09DF800309DF8F4
:1047500008109B09012B9DF8093006D1013303EBAA
:10476000012189B2890229606BE09DF807209DF83C
:104770000500920002EB91119DF806200131920292
:1047800002F4406211449DF80A2000F00F0000EB93
:10479000D2105A00023002F006028318DBB289B24E
:1047A000093B01FA03F34BE04FF400732B8059E00F
:1047B0004C4E337803F0040303F0FF01F3B1002102
:1047C000CD20FFF7B7FD0028B7D1FF20FFF710FD80
:1047D00010216846FFF742FD0028AED03021FF20AF
:1047E000FFF706FD481E10F0FF01F8D19DF80A30D2
:1047F00008461A09102393402B6064E04920FFF714
:1048000099FD0446002898D110216846FFF726FD3F
:10481000002892D036789DF80A2006F0020606F0AD
:10482000FF009DF80B3076B1520002F07E0202EBE1
:10483000D3135A1C9DF80D309B09013B02FA03F378
:104840002B6020463FE0D90001F01801C2F384023A
:1048500001EB5311531C01FB03332B6033E0214B5D
:104860001B782B7000202EE00021492001E0002160
:104870004A20FFF75FFD00287FF45FAF10211AE0A8
:1048800000217A20FFF756FD00287FF456AF291D3E
:10489000FF20FFF7ADFC05F8010B8D42F8D1E1E7F1
:1048A0000021CD20FFF746FD00287FF446AFFF2012
:1048B000FFF79EFC40212846FFF7D0FCB0FA80F0BD
:1048C000400900E00420054B4FF000729A6102E0BD
:1048D000002000E0032004B070BD00BF20C009200C
:1048E00006C007202CC50720054B1B78253BDBB2F3
:1048F000032B9ABF034A52F823000020704700BFE1
:1049000030C50720384E02001B4B2DE9F0411D88B1
:104910000646B5F5007F0F46144602D12A462146C9
:1049200013E0B5F5807F09D12A4621463846B047C5
:104930002A4604F5807107F5807016E0B5F5047F0E
:1049400005D1510A89024FF4007238460DE0B5F5E1
:10495000847F0ED1140A61024FF480723846B0474A
:10496000611C4FF480724902B8183346BDE8F0412B
:104970001847BDE8F08100BF2EC5072030B52F4C89
:1049800003462546002958DD07291A782DDDA26047
:104990005A780839A2609A78A260DA78A2601A7907
:1049A000A2605A79A2609A79A26003F10802DB79C9
:1049B000A360A3695B07FCD5AB680370AB68437069
:1049C000AB688370AB68C370E368DB06FCD4AB688C
:1049D000083000F8043CAB6800F8033CAB6800F812
:1049E000023CAB6800F8013C1AE003291ADDA26022
:1049F0005A780439A2609A78A2601A1DDB78A36005
:104A0000E368DB06FCD4AB68043000F8043CAB6818
:104A100000F8033CAB6800F8023CAB6800F8013CCE
:104A20001346AFE70133A2600139E268D206FCD435
:104A3000AA68013000F8012CA4E730BD0000034053
:104A400007B50B0C8DF805308DF807100B0A042103
:104A50008DF804000DEB01008DF80630FFF78EFF96
:104A600003B05DF804FBFFFFF7B5174606460E4C92
:104A700040250323E5618DF804300B0C8DF80530DB
:104A80008DF807100B0A04210DEB01008DF806309C
:104A9000FFF774FF00223946304603F0F5FEA561AA
:104AA000A561A56103B0F0BD00C009200E4B4022F6
:104AB000DA610E4BD7229A601A46D1680B4BC906B1
:104AC000FBD49A681A46FF219960D068C006FCD4CE
:104AD000906810F0800FF7D0034B40229A61C0B26B
:104AE0009A619A61704700BF00C00920000003402E
:104AF000F7B5FFF7DBFF1F4C002323801E4B1F4E33
:104B000040271A889B78F7610321054601A8ADF874
:104B100004208DF80630FFF731FF9DF805209DF841
:104B200006301F2AB7612146B761B7611CD1A3F1D6
:104B30002502032A18D8124A252B137005F001000C
:104B400006D1002814BF4FF480734FF4847305E03E
:104B5000002814BF4FF400734FF404730B80FFF769
:104B6000C3FE084B400A18600888B0FA80F040097C
:104B700003B0F0BD2EC507202E4E020000C0092054
:104B800030C5072034C50720F8B58B1817460D4AE5
:104B9000013B12680446934210D84D02FFF786FF8E
:104BA00000262D1BBE4204EB050209DA2146064809
:104BB000FFF7AAFE04F500740136F3E70120F8BD03
:104BC0000020F8BD34C50720694A0100F8B58B18EC
:104BD00017460C4A013B126893420FD80446002640
:104BE000C0EB4125BE4204EB050209DA2146064826
:104BF000FFF78AFE04F500740136F3E70120F8BDE3
:104C00000020F8BD34C50720ED4C010008B5072889
:104C100005D8DFE800F006090E121414141404205D
:104C200008BDFFF743FF0AE0FFF75EFE400A086099
:104C300005E04FF400730B8001E001230B600020BE
:104C400008BDFFFF70B590B003466A466E4600F19E
:104C50004005144618685968083303C4AB4222461D
:104C6000F7D1084D4024EC6100219B20FFF7E8FEBE
:104C700021463046FFF782FEAC61AC61AC6110B0FA
:104C800070BD00BF00C0092070B50646074D402426
:104C900000217720EC61FFF7D3FE21463046FFF775
:104CA0006DFEAC61AC61AC6170BD00BF00C009209D
:104CB00008B5064B198831F01F0104D0FFF714FE28
:104CC000B0FBF1F008BD084608BD00BF2EC50720A7
:104CD000014B1888704700BF2EC50720024B18787B
:104CE000003018BF012070472EC507202DE9F7437B
:104CF0004FF0FF330F46914601938046FFF7D6FEF3
:104D0000FFF7ECFF0646B8B1194C4025194BE56199
:104D10001B880320B3F5847F0CBF4FF480714FF4E0
:104D200000713943FFF78CFE04210DEB0100FFF702
:104D300025FEA561A561A5610D4C40233946822061
:104D4000E361FFF77DFE01224946404603F09CFDEA
:104D50003EB1019B02A8013340F8043D0421FFF756
:104D60000DFE4023A361A361A36103B0BDE8F083FE
:104D700000C009202EC50720124B37B51B88B3F59C
:104D8000847F0CBF4FF480714FF400714FF0FF33FC
:104D900041EA40210193FFF7A1FF68B10A4C402589
:104DA0000320E561FFF74CFE04210DEB0100FFF746
:104DB000E5FDA561A561A5610198431C08BF002020
:104DC00003B030BD2EC5072000C0092037B5084B01
:104DD000084C1868402504210190E5610DEB0100A5
:104DE000FFF7CCFDA561A561A56103B030BD00BF93
:104DF000314E020000C009201FB501A803F068FC75
:104E00009DF808309DF8092003F01F0302F00F02FF
:104E10001B0443EA42519DF806309DF8040003F05C
:104E20001F0341EAC3229DF80530C0F3440003F09C
:104E30003F0342EA4313BDF80A201843520602F129
:104E40000842104305B05DF804FB30B504460D1F61
:104E5000131B0344032B04D955F8043F44F8043BC7
:104E6000F6E79408A3001944A2EB8402013B18441E
:104E70000A44914204D011F8013B00F8013FF8E7E1
:104E800030BD0244904202D000F8011BFAE770479F
:104E900000F10B010023DA0142EA530310F8012B61
:104EA0001344884203F0FF03F5D1184670470368A6
:104EB00010B50446B3B119460A4611F8010B1F2874
:104EC00002D93A28F8D101E0002010BD591C8A42CD
:104ED00008D11B78303BD9B2012903D801321846DA
:104EE000226010BD4FF0FF3010BD03692DE9F04185
:104EF00001F109020D4663B3416900244E1E2E27BD
:104F000016F8013F0134202B19D0052B48D0092C6D
:104F100001D117700132A3F1410EBEF1190F0CD867
:104F2000082C91F80CE08CBF4FF0100C4FF0080CDF
:104F30001CEA0E0F1CBF2033DBB2137001320B2CA6
:104F4000DED1CB7A2B72CB692B600B8BAB80CB8AFB
:104F5000EB8000241470AE693EB303690BB90024E2
:104F60001AE0EB69002BFAD04FF6FF73028C9A42DD
:104F7000F5D0D0F81C80771E38F8140060B10021FD
:104F8000FFF74AF80028EAD0EB69013B9C42E6D2E1
:104F9000013407F8010FEFE700233355BDE8F08136
:104FA000092C4FF0E503C8D1B3E7BDE8F081F8B5AF
:104FB000056B00F13407044601232A463946407840
:104FC000FFF7BFF8A0B9636AE269EB1A9342207158
:104FD00001D30020F8BDE678012EFAD9E3693946FD
:104FE0001D442A4601236078FFF7ABF8013EF3E742
:104FF0000120F8BD03790BB1FFF7D9BF1846704700
:1050000070B50446FFF7F6FF054680BB2378032BF7
:1050100025D16379012B22D104F1340601464FF4E6
:1050200000723046FFF72DFF4AF65522A4F83222CF
:105030000F4A3146626302F1FF5202F500522032FC
:10504000C4F8182262696078C4F81C222269C4F886
:105050002022226A01322263FFF773F86571002271
:1050600011466078FFF789F8003018BF012070BD45
:1050700052526141036B70B58B4205460E4610D00B
:10508000FFF7B8FF044608B101240BE001233246C4
:1050900005F134016878FFF738F80028F4D12E6361
:1050A00000E00024204670BD002310B503714FF0CE
:1050B000FF3303630446FFF7DDFFA0B94AF655232B
:1050C000B4F832229A4210D1D4F86A30084A23F058
:1050D0007F4393420AD0D4F8860020F07F40801AA4
:1050E00018BF012010BD032010BD022010BD00BF5D
:1050F000464154002DE9FF4100230360074608465E
:105100001546FFF7D4FE061EC0F2FA80854B53F811
:105110002640002C00F0F680E068FEF7B9FF00287A
:1051200000F0F2803C60237883B16078FEF7E5FF01
:10513000C1070BD4002D00F0E98000F0040303F058
:10514000FF00002B00F0EB800A20E8E00023F0B223
:1051500023706070FEF7BEFFC20700F1D9800DB169
:105160004307F1D400212046FFF79EFF01281CD100
:105170002146002291F8F6310BB1D1F8FA314DF801
:1051800022300132042A01F11001F3D100265DF82A
:1051900026502DB129462046FFF786FF08B90BE0BF
:1051A00002200136042EF2D100E00025032800F091
:1051B000B18008B10D20B2E0B4F83F30B3F5007F04
:1051C000F8D1B4F84A6006B9A66D94F844E0E661F7
:1051D0000EF1FF33012B84F803E0EBD894F8413053
:1051E000A370002BE6D05A1E1A42E3D1B4F845C092
:1051F0001CF00F0FA4F808C0DCD1B4F8472002B9A6
:10520000626DB4F842100029D4D006FB0EFE01EB0B
:105210001C177744BA42CDD3D21BB2FBF3F3002B59
:10522000C8D040F6F572934203F1020005EB01028B
:105230002F4410D94FF6F5718B426DD9A0612562CC
:105240006262E762BCF1000FB4D1236E4FF0030835
:10525000A362830018E04FF00108A061256262623A
:10526000E762BCF1000FA5D0B8F1020F4FEA40038E
:1052700018BF1B18724418BF00F00100A2621CBFC7
:1052800000EB53034FF0010803F2FF13B6EB532F6B
:1052900090D34FF0FF3363612361B8F1030F4FF0F8
:1052A0008003637122D1B4F86430012B1ED1691CD4
:1052B0002046FFF7DFFEC8B94AF65523B4F832227C
:1052C00060719A4212D1626B174B9A420ED103F170
:1052D000FF53D4F8182203F5005320339A4201BF3C
:1052E000D4F81C326361D4F8203223610F4A84F869
:1052F00000801388002001339BB21380E3800EE00E
:105300000B200CE00C200AE00F2008E0284606E005
:10531000032004E0012002E04FF002089DE704B002
:10532000BDE8F0813CC507205252614138C50720D5
:1053300010B50446A8B103689BB11A788AB1D98820
:10534000828891420DD1D868FEF7A2FE58B1236839
:105350005878FEF7D2FE10F0010F14BF0320002092
:1053600010BD092010BD0F2010BD50B10F2905D868
:105370004FF41A4323FA01F1CB0702D4C068FEF7B9
:105380009ABE704783690239023B99423DBF8378D8
:10539000C06A01FB0300002070470129F8B50746E9
:1053A0000C464BD98369994248D20378022B29D005
:1053B000032B34D0012B41D101EB5106416A01EBA3
:1053C0005621FFF757FE10B14FF0FF30F8BD796A54
:1053D000C6F3080301363B4401EB5621384693F8E7
:1053E0003450FFF747FE0028EED1C6F308063E44CE
:1053F00096F83400E30745EA00204CBF0009C0F3EB
:105400000B00F8BD416A01EB1421FFF733FE0028C1
:10541000DAD1630003F4FF73FE18B08EF8BD416A61
:1054200001EBD411FFF726FE0028CDD1A40004F42F
:10543000FE743C44606B20F07040F8BD0120F8BD64
:1054400070B5044682680D46012AE18001D1022030
:1054500070BD036899698A42F9D252B91978032953
:1054600001D1996A21B919898D42F0D2986A15E063
:105470000A469E783601B542114620680CD3FFF7E4
:105480008CFF431C024618D00128E0D923689B6991
:105490009842DCD2AD1BEEE7FFF774FFE260002814
:1054A000D5D0236800EB1510343305F00F0503EB5E
:1054B000451520616561002070BD012070BD012986
:1054C000F8B505460C46164660D9836999425DD207
:1054D0000378022B39D0032B43D0012B52D101EB9F
:1054E0005107416A01EB5721FFF7C4FD00284AD15B
:1054F000C7F3080314F001042B4417BF93F83420BA
:10550000F2B202F00F0132011CBF02F0F0020A43B6
:1055100083F83420696A013701232B7101EB57218D
:105520002846FFF7A7FD70BBC7F308072F4414B147
:10553000C6F3071606E097F83430C6F3032623F0C7
:105540000F031E4387F834601DE0416A01EB14210C
:10555000FFF790FDB8B9640004F4FF742C44A686EC
:1055600011E0416A01EBD411FFF784FD58B9A400A2
:1055700004F4FE7430342C44636803F070431E431B
:10558000666000E0022001232B71F8BD0220F8BD07
:10559000F8B505460F4631B9066996B183699E4252
:1055A00028BF01260EE0FFF7F8FE01283FD9441C72
:1055B00002D14FF0FF30F8BDAB69984238D33E4678
:1055C00000E001263446AB6901349C4204D3012E2D
:1055D00001D80020F8BD022421462846FFF7DDFE51
:1055E00030B1411CE5D0012821D0B442EBD1F0E725
:1055F0006FF0704221462846FFF761FFA8B957B9FE
:105600006B692C615A1C0ED0013B6B616B7943F0C6
:1056100001036B7107E0224639462846FFF74FFF2A
:105620000028EDD001E02046F8BD0128C1D00120BE
:10563000F8BD2DE9F843C68804460136B3B20F46DB
:1056400013B90420BDE8F8830369002BF9D016F0E4
:105650000F0859D1C16801330361006819B9038982
:105660009E42EED250E08378013B13EA16134BD1F1
:10567000FFF793FE0128054602D80220BDE8F88313
:10568000421C02D10120BDE8F883206883699D4255
:1056900034D3002FD5D0E168FFF77AFF0546002804
:1056A0003BD00128E9D0431CECD02068FFF7A2FCD6
:1056B00007460028E6D120684FF40072394634309E
:1056C000FFF7DFFB226829461046FFF75BFE4FF02D
:1056D0000109106323689A7897420CD283F80490EA
:1056E0002068FFF787FC0028CCD122680137136BB4
:1056F00001331363EEE71A6BD71B1F63E56029467E
:105700002068FFF73FFE20612368E680343303EB17
:10571000481363610020BDE8F8830720BDE8F883E3
:105720002DE9F74F4FF6FF794FF0FF080646444644
:10573000A0F8209031693068FFF79CFC00287BD1ED
:1057400075692B78002B6ED0E52B60D0E97A0F07B6
:1057500001F03F0202D50F2A59D101E00F2A42D1B0
:10576000D6F81CB0BBF1000F56D0580605D503F093
:10577000BF04F3886A7B338402E0A3424BD14246E4
:1057800095F80D80904545D12F78012027F04007EE
:105790007B1E0D275F434FF0000A294B1AF80320A8
:1057A000AA5A88B11046FEF755FC7F2F019032D8D7
:1057B0007A1C3BF817000092FEF74CFC01998142DD
:1057C00029D1009A174601E04A4524D10AF1010A7D
:1057D000BAF10D0FE1D12B7859062AD548B33BF821
:1057E000173033B317E024B92846FFF751FB404583
:1057F0001BD0B369DA7AD20709D405F10B008542D0
:1058000015D015F8011B13F8012B9142F7D0A6F81B
:10581000209000E09046FF2400213046FFF709FF6A
:10582000002887D008E0042006E0204604E000209D
:1058300002E0013CE4B2EFE703B0BDE8F08F00BF47
:10584000224F02002DE9F74F0B7807462F2B884691
:1058500001D05C2B01D108F101080024BC6098F84C
:1058600000301F2B62D821463846FFF7E9FD7C61E6
:1058700013E101313BF81120202AFAD02E2AF8D06A
:1058800009B144F003044A4632F8020D2E2801D033
:10589000013EF9D14FF0000A55464FF008093BF898
:1058A00011004A1C002840F08F80BB691A78E52A55
:1058B00004BF05221A70B9F1080F04BFAD00EDB2A4
:1058C00005F00C030C2B00F0CC8005F00302032A3A
:1058D00000F0C780A10709D405F00305012D08BF1A
:1058E00044F01004042B08BF44F00804BB690021F5
:1058F000DC723846FFF7A4FD10B93846FFF710FFF9
:10590000BB69DB7A002840F0AF805A0700F1C58000
:105910007A69D37ADB0640F1AE803968538B097817
:10592000032904BF928A43EA0243BB6098F800301F
:1059300044462F2B08F10108F8D05C2BF6D0D7F89D
:105940001CB004F1FF39ABF10205002619F8010F74
:1059500006F101081F281AD92F2818D05C2816D064
:10596000B8F1810F00F093800121FEF755FB00286C
:1059700000F08D807F2806D8494911F8012F12B117
:105980009042FAD183E025F8020F4646DEE7202850
:10599000A0440BEB460234BF04240024002E76D032
:1059A00032F8021D202901D02E2901D1013EF5E750
:1059B000002520212BF816500B22B869FFF761FA59
:1059C0000BEB4609294655E7202803D02E2805D1A0
:1059D000B24208D044F00304114660E7CA4504D23D
:1059E000B24218D155E0CA4553D3B9F10B0F04D1D7
:1059F00044F003044FF00B0957E7B24203D044F0E0
:105A000003043FF652AFAD00EDB232464FF00B0942
:105A10004FF0080AE0E77F280CD900210192FEF739
:105A2000FBFA019A18B11F4B184410F8800C44F08F
:105A3000020428B11C4B13F8011F29B18842FAD186
:105A400044F003045F2006E0A0F1410189B2192966
:105A500013D845F00205B96901F80A000AF1010AF4
:105A6000BAE744F0020435E7042816D113F0040F16
:105A700008BF052011E005200FE0A0F1610189B207
:105A800019299EBF203845F0010580B2E3E70620C2
:105A900003E0B9F10B0FB6D1AAE703B0BDE8F08F70
:105AA0005D4E0200A24E0200664E02002DE9F04754
:105AB000846986B00C22C669054621460DEB0200BA
:105AC000FFF7C3F99DF81730DB0762D50023E372B7
:105AD0000127EB610B2203A92046FFF7B6F9052F3A
