:020000021000EC
:10000000E03F082095010100FB000100E100010034
:10001000090101001901010029010100000000008F
:1000200000000000000000000000000031A80100F6
:10003000390101000000000091A8010059010100F0
:1000400071AE010071AE010071AE010071AE010030
:1000500071AE010071AE010071AE010071AE010020
:1000600071AE010071AE010071AE010071AE010010
:1000700071AE010071AE010071AE010071AE010000
:1000800071AE010071AE010071AE010071AE0100F0
:1000900071AE010071AE010071AE010071AE0100E0
:1000A00071AE010071AE010071AE010071AE0100D0
:1000B00071AE010071AE010071AE010071AE0100C0
:1000C00071AE010071AE010071AE0100DC60020092
:1000D00000C00720F4020000F8C20720D804000086
:1000E00004207146084203D0EFF309800AF0DEBE17
:1000F000EFF308800AF0DABE704708B5014807F050
:1001000051FCFEE78A5A020008B5024807F04AFC93
:10011000FEE700BF955A020008B5024807F042FC0E
:10012000FEE700BFA05A020008B5024807F03AFCFB
:10013000FEE700BFAB5A020008B5024807F032FCE8
:10014000FEE700BFB85A020008B5024807F02AFCD3
:10015000FEE700BFC65A020008B50AF01FFB0AF00E
:10016000B9FBBDE808400AF02DBB0B4610B5401A9C
:100170005C1AA24203D9C45843F8044BF8E710BDF7
:10018000034610B500221C1AA14202D943F8042BE1
:10019000F9E710BD16480AF03FFC15480AF03FFC8D
:1001A000144C154DAC4201D3144D07E094E8030004
:1001B0000C3454F8042CFFF7D8FFF3E7AC4206D216
:1001C00054F8080B54F8041CFFF7DAFFF6E70CF0BC
:1001D000AFFA0AF03BFC01F0D9FD02F023FD4FF429
:1001E00016400AF081FF064807F0DCFBFEE700BF7F
:1001F000E03F0820CC000100D8000100E000010031
:10020000DA5A02000AF028BB0AF036BB144B10B5CC
:100210001A68014612B94FF080521A60114C1868E2
:100220002468421894421A6007D20F4CA24204D8A4
:100230000E4A0B488C18046010460D4A1B68126861
:10024000934222BF064B00201A6039B1094A136855
:1002500001331360084B1860084B196010BD00BFD4
:10026000FCC2072004C30720FFBF0720D0C7072018
:1002700008C307200CC30720F8C2072000C30720CB
:100280000CF08EBB0CF094BB0CF092BB30B5044666
:100290008BB068460CF040FE224B079A2360089B07
:1002A000214DA36062602149214B52B90A68186848
:1002B00082428ABF02F1604202F17042A2F5E82256
:1002C000626062681B68B2F5803F82BF02F17042D3
:1002D000A2F5E82262600022E2600A68934206D337
:1002E000991AC5F1005303F504230B440BE0114B9D
:1002F0001B68934208D9991AC5F1005303F5F823F6
:100300000B44002B00DDE36020460B4BE2611B68D1
:10031000A3610A4B1B686361094B1B6823610BB027
:1003200030BD00BFD0070000D0C70720FCC20720A7
:1003300004C3072008C30720F8C2072000C3072012
:100340000CC30720034A044B1A60044A044B1A608A
:10035000704700BF0080001004C307200040082041
:1003600008C30720014B1860704700BF14C3072063
:10037000014B1860704700BF10C3072008B5024842
:100380000DF072FDFEE700BF3432020008B50248EE
:100390000DF06AFDFEE700BF4E32020000207047FC
:1003A00001207047F8B5084B16461A680F461C46E0
:1003B00042B10D46EB1B9E4204DD236815F8010B8C
:1003C0009847F7E73046F8BD14C30720F8B5094B46
:1003D0000F46186816461C4658B10D46EB1B9E4248
:1003E00005DD23680020984705F8010BF6E726EAAB
:1003F000E670F8BD10C30720704700207047FFFF6C
:10040000074B1B689A68824207D05A68824204D020
:10041000DB681B1A5842584170470120704700BFE3
:1004200038C10720002070470020704730B50446CF
:100430008DB0A8B3684608F097FA9DF80030002503
:1004400003F03F0303939DF8013003A803F03F033B
:1004500004939DF802300B9503F01F0305939DF85C
:10046000043003F01F0306939DF8053003F00F03DB
:10047000013B0793BDF80630C3F30B03A3F26C7383
:1004800008939DF8033003F007030993BDF8083083
:10049000C3F30B03013B0A930CF0CCFB84E821006F
:1004A00000200DB030BDFFFF70B50F4D0F4E2C6812
:1004B00014F0010415D128460BF0B6F988B14FF4B9
:1004C0000E70FFF7DDFE302380F835323A2380F8D6
:1004D000344280F8363280F83742306028460BF0DC
:1004E000AFF9306870BD00BF30C3072034C30720A8
:1004F00070B50F4D0F4E2B6813F0010416D128462E
:100500000BF092F990B14FF40E70FFF7B9FE012392
:1005100080F83432312380F835323A2380F836328D
:1005200080F83742306028460BF08AF9306870BD99
:1005300028C307202CC307202DE9F04FADF51B7D04
:100540000F4607F053FE041E04DD0AF0EFF82046C4
:1005500009F032FE0DF114094C462A4D4FF0640BA0
:100560000FCD0FC42B6804AA2360102100240AA811
:10057000049409F0DFFF244A82462449384608F0F3
:1005800063FC26460AAD4FF00008D0451CD06B69CD
:10059000A34215D1AA69049B16441BB1B3FBFBF31C
:1005A000B2FBF3F3297B039202932B8C00949B0004
:1005B000019359F821306A681549384608F044FC1F
:1005C00008F101082435E0E701340A2CDAD1049B54
:1005D00064229E1BB3FBF2F30E49B6FBF3F30E4A03
:1005E0000096384608F030FC09F0BAFC102804D90F
:1005F00010220A49384608F027FC01200DF51B7D22
:10060000BDE8F08F68320200873202008C320200AF
:10061000B3320200DB320200D0320200FA320200B2
:1006200010B50C46ADF5007D68460AF0A7FB2046E4
:100630004FF0FF32694608F0D1FB01200DF5007D37
:1006400010BDFFFF30B50C4691B02C49054607F0B0
:10065000D9FC002847D00CAB04930BAB03930AAB37
:10066000029309AB019308AB009306AA07AB244998
:10067000284607F02FFC072801D000203BE09DF81A
:100680003930069A0DA862F303038DF83930079AC2
:100690009DF8383062F304038DF83830089ABDF8BD
:1006A0003A3062F30B03ADF83A30099A9DF83630D0
:1006B00062F304038DF836300A9A9DF8353062F300
:1006C00005038DF835300B9A9DF8343062F305033D
:1006D0008DF834300C9A9DF8373062F302038DF8B0
:1006E000373008F069F908F003FA06490246204657
:1006F00008F0AAFB012011B030BD00BF2433020076
:1007000028330200EA520200F7B50D464E4904466E
:1007100007F068FD064640B106F0DCFF4FF0FF32FF
:100720004A49284608F05AFB8BE04949204607F021
:1007300059FD60B306F0F2FF46490246284608F02C
:1007400083FB06F0F7FF44490246284608F07CFB8D
:1007500006F0EAFF41490246284608F075FB30469C
:1007600006F0D2FF0446012006F0CEFF0646022026
:1007700006F0CAFF0746032006F0C6FF0097019067
:10078000334622463649284608F05EFB59E0354993
:10079000204607F037FC50B120220121204607F007
:1007A000CFFC204607F020FD07F0DCF849E02E4999
:1007B000204607F027FC064620B92C49204607F0C2
:1007C00021FC60B32A49204607F00AFC60B9294998
:1007D000204607F005FC28B92046274907F000FC11
:1007E000044602E0032400E002243146204607F0DC
:1007F00011F8224A224B002E18BF1A463CB1012C98
:1008000007D01C491A4B022C18BF0B4602E01D4BA7
:1008100000E0194B1C49284608F016FB11E0204661
:1008200007F0E2FC194A1A490090F323012006F070
:10083000FFFF204607F0D8FC16490246284608F07C
:1008400003FB012003B0F0BD6333020069330200F3
:1008500082330200893302009E330200B333020068
:10086000D233020002340200063402000E340200C9
:100870005E33020058330200524502004933020041
:100880004133020052330200173402007C3202006E
:10089000303402006334020030B589B004AB002468
:1008A00000930D4603AB022218490394049407F009
:1008B0001FFB022827D107AB009305AA06AB0499BA
:1008C000039805940694079403F010FC024638B18F
:1008D000049B0F4900932846039B08F0B5FA10E0EB
:1008E000059A069B002A079908BF0122002B08BF22
:1008F0000123B1FBF3F3B1FBF2F22846054908F0FE
:10090000A3FA012000E0204609B030BDF244020005
:1009100071340200903402002DE9F0470E46ADF527
:10092000856D3949054607F0F7FB384907462846E3
:1009300007F01BFC3549284607F037FC284607F02E
:1009400053FC0122014681A805F01AFC044640B17F
:10095000284607F049FC2E490246304608F074FA52
:100960004CE00DF1040A01464FF4007250460CF0C1
:100970007CF800940AF0ECF9804689466B464FF407
:100980000072514681A805F095FC08B9009B23BB75
:1009900081A805F05EFECFB10AF0DAF94FF47A7261
:1009A00000230BF03DFC002305464FF47A724046CD
:1009B00049460BF035FC281A14BF03460123B4FB4B
:1009C000F3F322461349304608F03EFA4FF0FF3267
:1009D0001149304608F002FA10E01C44002FCDD136
:1009E0003D46009B9D42C9D233681AF805105B68EA
:1009F0004FF0FF32304698470135F2E701200DF500
:100A0000856DBDE8F08700BFBE340200F2440200ED
:100A1000C7340200DB340200693A02002DE9F047D6
:100A20000023BEB00C46534905460C9307F0DAFB91
:100A300020B9284607F0D8FB064600E04E4E314666
:100A400015A805F0BFFE054630B1034632464B49B6
:100A5000204608F0F9F989E032464949204608F075
:100A6000F3F92F460DF1780880230DA915A8CDF8CC
:100A70004C80149305F0EAFE002861D19DF83D30CA
:100A8000002B5DD09DF83C100DF13D00CA065BBF08
:100A90000D9B0C9A44229B185BBF0C932D220135B1
:100AA000013711F0010F14BF52232D23BDF83AA0D6
:100AB00011F0020F09900D9814BF4FF0480E4FF03F
:100AC0002D0E11F0040F14BF4FF0530C4FF02D0CEE
:100AD000089011F0200FCAF34510BDF838100790A8
:100AE0004FEAEA20069001F01F000590C1F3431081
:100AF0004FEA612114BF4FF041094FF02D0901F277
:100B0000BC71CDF804C0CDF800E004900391CDF89D
:100B100008901C49204608F097F94FF0FF321A4917
:100B2000204608F047F941464FF0FF32204608F0D2
:100B300041F94FF0FF320F49204608F04FF991E795
:100B40003A46124900950C9B204608F07DF90BAA05
:100B50000CA9304605F0A9FE40B90B9B0C499A78C8
:100B60000C9B20465A43520808F06EF901203EB013
:100B7000BDE8F087693A0200F6340200F934020059
:100B80001D35020038350200653502006935020066
:100B90009335020070B50C46064607F025FB054666
:100BA000304607F021FB05F042FF064A064B074995
:100BB000002808BF13462A46204608F045F90120C0
:100BC00070BD00BF4937020053370200A73502004D
:100BD00070B50C46064607F007FB0546304607F0A1
:100BE00003FB05F0C7FE064A064B0749002808BF6D
:100BF00013462A46204608F027F9012070BD00BFA1
:100C00004937020053370200C33502007FB503ABFA
:100C1000002400930E4602AB02220F490294039473
:100C200007F066F9022814D1029C039D204629464C
:100C300005F0A6FF094B0A49224600280CBF0846CA
:100C400018462B4600900749304608F0FDF8012071
:100C500000E0204604B070BDF244020053370200A9
:100C600049370200D535020030B5ADF50D7D0C4693
:100C7000054607F0B9FA0A22014603A805F080FAF2
:100C800040B1284607F0B0FA1F490246204608F056
:100C9000DBF834E08DF8070002901C4942F2107333
:100CA0007E22204608F0D0F81949204608F0CCF8FA
:100CB000236842F210721B680DF107012046984725
:100CC00018B19DF807307E2B03D103A805F0C1FCB5
:100CD00015E002AB01220DF1070103A805F0A2FB0C
:100CE00058B9029B012B08D123684FF0FF325B6893
:100CF0009DF8071020469847DAE70649D5E7012016
:100D00000DF50D7D30BD00BFED350200143602003B
:100D10004C3602006C3602002DE9F04FADF5417DF6
:100D2000002304AC236003930D46009403AB02221E
:100D3000414907F0DDF8022806D04FF0FF323F4965
:100D4000284608F04BF872E0216817A805F03AFD34
:100D500010B122683A4906E0039917A805F032FD60
:100D600028B1039A3749284608F06EF85FE04FF43F
:100D700080720DEB020105A807F07CF84FF4807239
:100D800080A90AA807F076F820AE80270FA917A837
:100D90001596169705F05AFD002842D19DF845306A
:100DA000002B3ED09DF8443003F0100303F0FF0AFF
:100DB000002BEBD10DF14503039A234905A807F059
:100DC0005DFA0DF1450322681F490AA807F056FA9B
:100DD00005A807F009FA07460AA807F005FA8046B1
:100DE00005A8DDF83C9007F0FFF983460AA807F054
:100DF000FBF9534652460146CDF800A0584603F091
:100E000075F9124A124BCDF8009000280CBF184615
:100E100010461049019043463A46284608F014F817
:100E2000B3E70AA807F03BF805A807F038F8012057
:100E30000DF5417DBDE8F08FF244020093360200CB
:100E4000D8360200FD3602001D370200533702007B
:100E50004937020023370200F8B50D4624490646FB
:100E600007F0C0F90446074618B1FFF741FB00221E
:100E700008E02049304607F0B5F9044660B1FFF7B5
:100E800013FB3A46114600F2352005F009FF4FF0FA
:100E9000FF32194B194922E01949304607F0A2F9EF
:100EA000044658B1FFF724FB012200F2352105F07A
:100EB00029F94FF0FF32134B134910E01349304624
:100EC00007F090F9044680B1FFF7EEFA012200F234
:100ED000352105F017F90E4B0E494FF0FF3200286F
:100EE00018BF1946284607F079FF2046F8BD00BF15
:100EF000AA370200B43702004C3702004237020022
:100F0000C13702006937020059370200CA370200B0
:100F10008E3702008037020008B508464FF0FF32D6
:100F2000084907F05BFF06F0D5FB4FF4FA6009F0C3
:100F300043F94FF08043AA221A7200221A7001204E
:100F400008BD00BFD637020010B501200C4606F0E0
:100F500085FF40B100231A46194608F03FFC4FF0C8
:100F6000FF32054902E005494FF0FF32204607F005
:100F700035FF012010BD00BFE7370200FD3702003A
:100F800038B5064C236833B91C20FFF779F90546BC
:100F900007F0F2FB2560206838BD00BF20C30720A2
:100FA0002DE9F04F5F4C91B023680E4633B92C20E9
:100FB000FFF766F9054607F073FE25602768FFF71F
:100FC00073FA00240CAA0DA900F235200D9405F047
:100FD0006CFC48B90C9A0D9C95699378023D5C4372
:100FE0005D4364086D0800E025464F4B1A6898463B
:100FF0007AB90C20FFF744F98146FFF7C1FF90232F
:1010000089F804300023C9F80000C9F80830C8F88E
:101010000090D8F8000003F057F881460BF0BAF8BA
:101020000A900AF013FF014648460AF059FE3F496C
:101030000AF060FF0BF0AEF881460DA809F0FCFC49
:1010400003F098FF68B307F0CDFD03F07DFF4FF08C
:10105000000A0346D346D0469A450B930BD0504620
:1010600003F0D6FF804538BFD3460B9B38BF804680
:101070000AF1010AF0E707F0CDFD642303FB08F352
:101080002B4ACDF80880B3FBF2F3C3F1640300935D
:10109000CDF804B02B4622462649304607F0D4FE50
:1010A00005E02B4622462449304607F0CDFE234C6E
:1010B00023681BB90120FFF7E3F82060206802F0E5
:1010C000C7FF044607F014FDFB8C0A9A0993BB8CFA
:1010D0001B4908939DF83430019003F03F030793B8
:1010E0009DF83530009403F03F0306939DF83630A9
:1010F000304603F01F030593BDF83A30C3F30B03EA
:1011000004939DF8383003F01F0303939DF83930A2
:1011100003F00F0302934B4607F096FE012011B037
:10112000BDE8F08F24C3072018C30720000020412A
:10113000A0860100363802006A3802001CC307206E
:10114000783802002DE9F04F0D46C7B05549814669
:1011500006F06FFF54498246484606F06AFF53493D
:101160008346484606F065FF00270DF1100805AEDE
:10117000044602970397C8F800703760BAF1000F71
:1011800045D0009603AB02AA4949484606F0A2FEA4
:10119000012807DC28464FF0FF32464907F01EFEC3
:1011A00038467CE00DF118084FF480742246394629
:1011B00040460BF05AFC336813B90123336003E057
:1011C000B3F5807F88BF3460FFF7DAFE33689DF89F
:1011D0000C209DF808100093434607F0FBFE364AAA
:1011E000364B3749002818BF1346029A284607F0A5
:1011F0002BFE002433689C424ED2039A18F8043028
:1012000022443049284607F01FFE0134F2E7BBF1C3
:10121000000F2CD0CDF8008003AB02AA2A49484623
:1012200006F058FE032807D028464FF0FF32274922
:1012300007F0D4FD504632E0FFF7A2FE98F80030E8
:101240009DF80C209DF8081007F0D9FE48B1039BCB
:101250001F490093D8F80020029B284607F0F4FDB0
:101260001AE0029A1B49284607F0EEFD14E0A8B1E7
:1012700002230293029BFE2B10DCFFF781FE9DF8F8
:10128000081007F0C7FE20B1029A1349284607F05C
:10129000DBFD029B0233ECE7012000E0204647B073
:1012A000BDE8F08F11460200E1380200E738020085
:1012B000F0380200FF3802004937020053370200BD
:1012C0002039020044390200543902006439020016
:1012D0008B390200A5390200C239020070B5ADF5A4
:1012E0000A7D05460C4606F0ECFD0B2802DD0C22BB
:1012F00022493CE0284606F077FF0122014601A87A
:1013000004F03EFF064668BB01A805F0A2F9284696
:1013100006F06AFF1A490246049B204607F094FD36
:10132000236820469B6898470A2008F045FF4FF045
:10133000100383F31188BFF36F8FBFF34F8F2846DD
:1013400006F052FF02460F4B0068516803C39068D5
:101350000D4A186043F80C2C4FF08043AA221A72F1
:101360001E7007E0284606F03FFF02460749204668
:1013700007F06AFD01200DF50A7D70BDFC39020001
:10138000233A0200484002400DD0ADDE6A3A020026
:101390002DE9F041404CA4B023680646DB070D461A
:1013A0000CD420460AF040FA40B14FF480600BF0B4
:1013B000F7FA3A4B186020460AF042FA38493046AC
:1013C00006F037FE0746044600B38022002104A839
:1013D0000BF04BFB00230293039303AB009304AA8F
:1013E00002AB3049304606F075FD2C49029B039A4A
:1013F000096804A813B902F015FF01E002F034FFF8
:10140000294B2A49002818BF194638E02849304698
:1014100006F00FFE074600283AD004AB304603AA78
:101420002449039404948DF8084006F053FD039E6C
:10143000049B3344B3F5806F02DCDFF860800CE07E
:101440004FF480621C4920E0D8F800309DF8082055
:101450009A559DF8083001361C44039B049AF31AF0
:10146000934210DAB6F5806F0DDA2B684FF4FA620A
:101470001B6802A9284698470028E5D10F4928464D
:1014800007F0E2FC04E022460D49284607F0DCFCA8
:10149000384624B0BDE8F0813CC3072038C307209C
:1014A000953A02009C3A0200833A02007F3A020019
:1014B000AC3A0200B33A0200BD3A0200E13A02003F
:1014C000F13A020038B50D4606F090FE0446C0B26F
:1014D00001F0CAFD054A064B0649002818BF13460D
:1014E0002246284607F0B0FC012038BD49370200EB
:1014F000023B0200093B020030B50C46054687B0AE
:101500000A4907F0A1FCA1882388049121896288F7
:101510000391E18828460291E17A0191A17A009134
:10152000034907F091FC07B030BD00BF203B02002B
:10153000563B02002DE9F0418CB003AB002600932E
:101540000D46904602AB022238490296039606F0F9
:10155000CFFCB04266DD02980AF0F9FFC7B20398EB
:1015600018B10CF083FFC4B200E00446002104A8C7
:1015700002F01AFC30B14FF0FF322D49284607F037
:101580002DFCF3E7022318F100010093039A234690
:1015900018BF0121384601F0ABFE064638B94FF0BE
:1015A000FF322449284607F019FC01263AE0B8F139
:1015B000000F37D04FF47A7104A802F0FDFB60B33E
:1015C0009DF81030BB4228D19DF817300C2B04D168
:1015D0003A4606A92846FFF78FFFBCB916492846A8
:1015E00007F032FC9DF817309C420ADA04AB191957
:1015F0002B684FF0FF325B68097A28469847013420
:10160000F0E70E49284607F01FFC0BE04FF0FF32D1
:101610000B49284607F0E2FB04E0029A09492846F4
:1016200007F012FC30460CB0BDE8F081F244020035
:10163000743B0200963B0200BE3B0200EB410200FD
:10164000D23B0200EF3B02001FB501A80C4602F09E
:101650002DF801F015FD01A902462046FFF74CFFC9
:10166000012004B010BDFFFF30B58BB00AAA4FF4C3
:101670007A730C4642F8243D174906F02BFC0025EE
:10168000019902A802F090FBD8B19DF808201349F7
:10169000204607F0D9FB00259DF80F309D420ADA5D
:1016A00002AB591923684FF0FF325B68097A204674
:1016B00098470135F0E70A49204607F0C5FB0125A8
:1016C000DEE72DB94FF0FF320649204607F086FBD2
:1016D00001200BB030BD00BFBA3A0200153C020039
:1016E000683A02002C3C020037B50C4601F042FE7D
:1016F00005461649204607F0A7FB15492A4620460D
:1017000007F0A2FB1149204607F09EFBD5B1114915
:10171000204607F099FB0D49204607F095FB002570
:10172000E8B201F011FE013540B1817843780278CA
:1017300000912046084907F087FBF1E7034920465E
:1017400007F082FB012003B030BD00BF3D3C02002A
:10175000583C0200723C02008D3C02002DE9F34728
:101760003C4C074626688946002E62D12420FEF7AD
:1017700087FD0423054680E848008660C660202176
:1017800030460CF0DBFBAE68E8604FEA8608072EB7
:101790000ED81020FEF774FD8246102200210BF0B7
:1017A00064F9EB68013643F808A008F10408EEE795
:1017B000002608236B604FF00108274B274A284971
:1017C0002846009685F82080256005F0F5FC254B1D
:1017D000254A26492068009605F0EEFC244B254A50
:1017E00025492068009605F0E7FC244B244A25494A
:1017F0002068009605F0E0FC234B244A2449206829
:10180000009605F0D9FC234B234A24492068CDF8E3
:10181000008005F0D1FC224B224A20492068009626
:1018200005F0CAFC0096204B204A2149206805F0AB
:10183000C3FC2049384606F0D5FC18B11E4938468D
:1018400006F08AFD4A463946206802B0BDE8F047F6
:1018500005F092BD44C30720A83C0200E23C020010
:10186000091B0100E93C02003D3D0200DD180100BA
:10187000463D0200693D0200691601006C3D020010
:10188000CB420200C5140100963D0200B23D0200A9
:10189000E9160100B93D0200203E020035150100A5
:1018A000FA3D02001F3E0200243E02003F3E0200BD
:1018B00049160100693A0200453E020038B5064C5F
:1018C000236833B95820FEF7DBFC054607F02CF8F7
:1018D0002560206838BD00BF40C307202DE9F04FC8
:1018E0000446ADF2DC5D802288460DA800210BF095
:1018F000BCF8802200212DA80BF0B7F806AE00231B
:1019000033600DAA00962DAB7549204606F0E2FA29
:10191000032801D00020DFE001220DA9EDA804F08A
:101920002FFC05460028F5D1FFF7C8FF3368802259
:1019300080F853304DA9044608A88DF81750079534
:1019400006F098FA2DAB009333680DAA654940461E
:1019500007F07AFAA94607AE33464FF400726DA934
:10196000EDA804F0A7FC002840F0AF803368002BFE
:1019700000F0AB806F1C32685B49204607F064FAC8
:10198000236820469B6898477D1E0DF5DA7B4FF053
:10199000000A6DAB3268C3EB0B039A4223680CD983
:1019A000CDF80CB05B684FF0FF321BF8011B2046EE
:1019B0009847039B1B789A44EBE79B68204698471F
:1019C00008A806F011FC834608A806F07DFA4FF43B
:1019D0007A7302465946204607F00EFA202201216A
:1019E0000DEB020006F0ACFB08A806F0FFFB8245F9
:1019F00020D008A806F0FAFB524603463B49404671
:101A000007F022FA3A49204607F01EFA23682046DA
:101A10009B68984723684FF47A721B680DF1170191
:101A2000204698470028F5D1022F07F101034CD832
:101A30001F46A0E733682DAA2E49009320464B4647
:101A400007F002FA236820469B68984708A806F02A
:101A5000CBFB824608A806F037FA514602464FF4FF
:101A60007A73204607F0C8F9234908A806F0B8FAA7
:101A7000D0B908A806F0B8FB20490246404607F056
:101A8000E3F91B49204607F0DFF9236820469B68ED
:101A9000984723684FF47A721B680DF117012046AE
:101AA00098470028F5D1BFE7154908A806F054FC6F
:101AB0003368144999444A46F09B404607F0C4F9FC
:101AC000002D3FF448AFBD1E45E7EDA804F0C1FD71
:101AD00008A806F0E4F901200DF2DC5DBDE8F08F06
:101AE0004A3E0200593E0200703E0200823E020061
:101AF000683A0200A93E0200BF3E0200C23E020058
:101B0000693A0200FA3E02002DE9F047074686B026
:101B100006AA002442F80C4D0E463D4906F0DAF9BB
:101B200020220121384606F00BFB039B002B65D0D9
:101B3000384606F0C6F9002860D0FFF7BFFE05461C
:101B40000DF1180808F80D4D2B6805221B68414659
:101B50002846984704460028F6D1039B384685F866
:101B6000533006F041FB274601464FF0FF3228462E
:101B700007F034F92B6828469B689847254B0DF1F0
:101B80001809186849F8044D04902B684FF47A72CC
:101B90001B68414628469847D0B103220DF1150134
:101BA00048460AF047FF9DF80BA0042204A94846C6
:101BB0008DF817A00AF024FF50B1336801225B684A
:101BC00051463046013798470028DED10134DCE722
:101BD0001822B7FBF2F302FB137202B101333A464B
:101BE0000D49304607F030F974B161230093224665
:101BF0000A4B0B49304607F027F905E04FF0FF325A
:101C00000849304607F0EAF8012006B0BDE8F08741
:101C1000BA3A0200FE3A0200063F02002D3F0200DF
:101C2000693F02002240020001480CF01DB900BFCC
:101C30004E40020038B504460D4609F003FA074B42
:101C4000B0FBF3F00223B0FBF3F2AA4204D9B3F5E0
:101C5000807F01D00233F6E7236138BD40420F0098
:101C60007FB500F235260C460122314604F04AFACF
:101C7000054648BB039002AA03A9304604F015FEAE
:101C800000BB0298039A837802FB03F18269134830
:101C9000023A5A435208B2F5004F38BF0120104BA8
:101CA0004FEA510124BF03464FF48060B1FBF0F1CD
:101CB000B2FBF0F20091019321460A480CF062F861
:101CC000012008E0084B00E0084B2A46214608485E
:101CD0000CF058F8002004B070BD00BF8C4002002A
:101CE0008940020096400200924002008F400200AC
:101CF000C440020038B5074C23684BB90820FEF7F2
:101D0000BFFA0546FFF73CF9402328602B71256098
:101D1000206838BD50C3072038B5054C256825B963
:101D20000120FEF7ADFA05702060206838BD00BFC5
:101D30004CC3072038B5084C23685BB90C20FEF76C
:101D40009FFA0546FFF71CF990232B7100232860AA
:101D5000AB602560206838BD18C3072010B5044C5F
:101D600023681BB90120FEF78BFA2060206810BDA4
:101D70001CC3072010B5044C23681BB90120FEF7D3
:101D80007FFA2060206810BD48C30720AD49AE4AE5
:101D90004023F0B58B614FF0007393614FF48033B3
:101DA0008B61AA4BADF5057D1868072520F0F00082
:101DB00018601868022440F050001860186820F479
:101DC00040501860086840F040000860186820F42F
:101DD0007C201860186840F428201860186820F4E7
:101DE00070001860186840F420001860186820F02F
:101DF00040401860186840F000401860586820F0B3
:101E00003C005860586840F028005860586820F03E
:101E100003005860086840F480300860586820F477
:101E200040505860086820F480000860D96821F4A8
:101E30004031D960116841F080711160596821F416
:101E400040215960596841F480215960986880495F
:101E500001409960116841F4897141F001011160FC
:101E6000996821F470119960996821F07041996026
:101E7000116821F446411160D96821F03001D96020
:101E8000D96841F03001D960D96821F47011D96066
:101E9000136843F000731360136823F080631360CA
:101EA00006F0B8FA01210A2008F0ECFE01210A2010
:101EB00008F000FF6748012105604460FFF7BAFEA3
:101EC00006F020FE0121152008F0DCFE012115207E
:101ED00008F0F0FE6048012105604460FFF7AAFEAB
:101EE000FFF74EF8642106F013FC10B95B480BF0C5
:101EF000BBFF08F003FF01F031FF10B958480BF0A9
:101F0000B3FF4FF4FA6006F03EFAFFF78DFE09F0DA
:101F100099F809F097FF53490AF0A0F809F018FE64
:101F200002460B4650480BF02DFF08F07FFD0528B8
:101F300004AC14D1002363604C4B1B682360FFF793
:101F400073FE4B4B4B48D96C1A6D5B6D00940BF0D4
:101F500019FFFFF769FE41F2883006F014FAFEF728
:101F6000A3FA4549FFF77CFE054668BB43480BF0E2
:101F700009FF03F077F8FEF797FA29462A4600F2A0
:101F8000352004F08DFE3E4B3E4A00280CBF104623
:101F900018460BF069FFFEF787FA3749FFF760FE36
:101FA00090B939480BF060FF02F0DEFF0146374878
:101FB0000BF0E8FE02F0C8FF054602F0D5FF00FB7B
:101FC00005F133480BF0DEFE324E334F336813F029
:101FD000010516D1304609F027FC90B14FF40E7080
:101FE000FEF74EF9012380F83432312380F8353280
:101FF0003A2380F8363280F837523860304609F09C
:102000001FFC26493868264DFFF72AFE1821114883
:10201000FFF710FEFFF708FE2B684BB90820FEF70C
:102020002FF90646FEF7ACFF3823306033712E607F
:10203000286801F00AFF0546B0BB1A480BF014FFF0
:1020400033E000BF00C0092020C0092000C00240CA
:10205000F0FCFCFF00000340008008400841020043
:1020600039410200002474495E41020044400240AC
:102070000040024076410200EE410200F6410200BB
:10208000FC400200F74002003342020052420200CC
:102090006142020028C307202CC3072078370200C2
:1020A00058C307207C4202000125FFF743FE01F0E0
:1020B000E1FF064618B972480BF0D6FE3546FFF729
:1020C00019FE01F045FF064618B96E480BF0CCFE2C
:1020D00035466D4E33681BB90120FEF7D1F83060EC
:1020E000306801F003FFFFF739FE01F0AFFFFFF7A3
:1020F00013FE01F066FFFFF73DFE01F0ACFFFFF7B6
:102100000BFE002101F060FF8DB9FFF78DFDFFF799
:10211000F1FD2D2101F004FFFFF7ECFD2D2101F071
:102120000BFFFFF7F9FDFF2101F04EFF0CE0FFF779
:10213000E1FD0546FFF7FEFD01F0C6FF0AF050F88D
:10214000C1B2284601F020FF1022002120460AF0EB
:102150008CFC00230F2221464C4802F041F880B944
:1021600020460AF0F4F9C5B2284600F07DFF484A3F
:10217000484B2946002818BF1346444A46480BF0EE
:1021800001FEFFF7EBFD01F063FF054600200DF0B7
:10219000F9F828440BF070FE4FF40072002120463D
:1021A0000AF063FC204608F0E9FD21463B480BF0AD
:1021B000E9FDFFF739FD8022002120460AF055FC99
:1021C000204602F0ADFE2278FF2A04D02146344892
:1021D0000BF0D8FD29E0FFF7CDFD01F03FFF092806
:1021E0001DD130480BF040FE21462F480BF050FF28
:1021F00021462E480BF0C6FD2D480BF035FE00237E
:1022000003A92C4803930BF043FF9DF80C30592B86
:1022100003D1204602F062FE07E0274803E027488A
:102220000BF022FE26480BF01FFE4FF208031D683C
:102230004FF20C031C684FF210031E684FF47043FA
:102240001A684FF20403AD0A1968A40A1D480BF07E
:1022500099FD2A4621461C480BF094FD31461B4847
:102260000BF090FDFFF7E0FC012005F069FA18483B
:102270000BF0FAFDFFF7D8FC0DF5057DF0BD00BFB2
:1022800097420200B142020054C30720CA42020032
:1022900002410200023B0200D0420200EA52020068
:1022A000044302002043020042430200474302006D
:1022B00062430200A5430200A9430200C143020099
:1022C000EF430200214402004D4402007A44020020
:1022D0009744020001207047012070470120704799
:1022E00010B5044C23681BB90120FDF7C9FF20601D
:1022F000206810BD54C307200120704738B504463C
:102300000F4B00250360636DE06DAB4205D950F8BB
:102310002500FDF7B7FF0135F5E708B1FDF7B4FF7C
:102320000025A36B206CAB4205D950F82500FDF7C2
:10233000A9FF0135F5E708B1FDF7A6FF204638BD36
:10234000D044020010B50446FFF7D8FF2046FDF741
:1023500099FF204610BD2DE9F04104460E46C068A5
:1023600089000BF0EBFDA568E060AF004FF00008BE
:10237000AE420DD90C20FDF783FFE368C0F8008062
:10238000C0F8048080F808800135D8510437EFE7A1
:102390006660BDE8F081FFFFF7B5044600250B46F7
:1023A0004FF480520095254905F03EFD244B04264C
:1023B00023606663A563E5632564022104F13400AC
:1023C000FFF7C9FF26656565A565E56528466021B7
:1023D0000BF0B4FDA56DE065AE00172D0CD81020F4
:1023E000FDF74EFF0746102200210AF03EFBE36D89
:1023F00001359F510436F0E718236365012384F803
:102400007030104E0023A4F87430A4F87630A3671F
:10241000002200230027C4E92023C4E9226708F032
:1024200097FC4FF47A72002309F0FAFE8019794183
:10243000C4E92001204603B0F0BD00BFE84402001B
:10244000D0440200C0D401002DE9F0410F7A1446B7
:102450004D680E688FB1082A23D1284605F031FD5A
:1024600000281CDD4FF0FF321349304606F0A2FC75
:102470000121284605F024FE08E00A2A19D00D2A79
:1024800012D02146284605F03CFF97B1336821461B
:102490003046BDE8F0415B684FF0FF321847072433
:1024A000F4E70A2A02D1F1E7BDE8F0810D2AEDD068
:1024B000E7E7BDE8F08100BFF1440200F8B504464B
:1024C000142015460F46FDF7DBFE8021064605F079
:1024D000C8FEA36BE26B9A4206D3616B591803D214
:1024E00004F13400FFF737FFE36B226C591C52F8FC
:1024F0002330E1631F605E601D72F8BD2DE9FF4768
:10250000CF6B06460D4601AC3FB94FF47A7007F029
:1025100053FE01976760A76047E00B6C0DF1100850
:102520001B6893E8070084E80700002308F80D3DC6
:1025300007F00AFD81460027EB6B9F4263D22B6CAC
:102540004FEA870A53F827301868037C002B34D0F1
:10255000036800221B684146984770B3EB6B9F42AB
:102560002DD22B6C53F80A3093E8070084E807005B
:102570009DF8032021462846FFF766FF08F0E8FB98
:102580004FF47A72002309F04BFED5E9222380181C
:102590005941C5E92001029805F093FC07460298CD
:1025A00005F092FC013887420CDB94E8070086E8CE
:1025B0000700304604B0BDE8F0870137BCE705F1FD
:1025C0004403D1E7D5E92223134324D008F0C0FB0C
:1025D0004FF47A72002309F023FED5E920239942B3
:1025E00008BF904217D308F0B3FB4FF47A72002370
:1025F00009F016FED5E92223801859410023C5E9C8
:1026000020010193D1E707F09FFC8145C3D102204F
:1026100007F0D2FDBFE79DF803300A2B88D1C4E74D
:10262000F0B5054685B020480BF0ACFB294601A863
:10263000FFF764FF019C1CB91C480BF015FC30E04F
:10264000029E304605F03DFC00282ADD08F080FBA4
:102650000746F8B1B5F8743005F150000133A5F81C
:1026600074302246314604F087FE114B002518686D
:10267000009023681DF805105B684FF0FF3220467C
:1026800001359847042DF4D108F062FBC11B0948BD
:102690000BF078FB304605F019FC236820469B6858
:1026A0009847012005B0F0BDF4440200693A0200E9
:1026B000C4440200FA44020038B5064C236833B91A
:1026C0002C20FDF7DDFD054606F0EAFA25602068BE
:1026D00038BD00BF24C3072010B50446FFF7ECFF48
:1026E00003682146BDE810405B684FF0FF32184791
:1026F00013B5002302AC04F8013DFFF7DDFF0368CA
:102700004FF0FF321B68214698479DF8070002B042
:1027100010BDFFFF2DE9F04100F150048AB0002503
:102720000646009520465B4B5B4A5C4904F044FD3D
:10273000009520465A4B5B4A5B4904F03DFD0095ED
:1027400020465A4B5A4A5B4904F036FD0095204614
:10275000594B5A4A5A4904F02FFD00952046594BCF
:10276000594A5A4904F028FD00952046584B594AC9
:10277000594904F021FD00952046584B584A5949C3
:1027800004F01AFD00952046574B584A584904F06A
:1027900013FD00952046574B574A584904F00CFD4D
:1027A00000952046564B574A574904F005FD0095C1
:1027B0002046564B564A574904F0FEFC00952046E9
:1027C000554B564A564904F0F7FC00952046554BA8
:1027D000554A564904F0F0FC00952046544B554AA2
:1027E000554904F0E9FC00952046544B544A55499C
:1027F00004F0E2FC00952046534B544A544904F03F
:10280000DBFC00952046534B534A544904F0D4FC5A
:1028100000952046524B534A534904F0CDFC009595
:102820002046524B524A534904F0C6FC0095524B85
:10283000524A5349204604F0BFFCFFF73DFF4FF4D6
:10284000807320224FF41641054606F009FA8046AF
:1028500001272F744B48FDF78BFD4B48FDF782FD98
:102860003A4629463046FFF729FE082203A905A863
:1028700005F000FB05A8454905F06EFD2A4605A9AF
:10288000204604F079FD05A805F009FB40460AB092
:10289000BDE8F081104502005245020039050100F3
:1028A0004745020057450200210601005F4502002E
:1028B0006D450200A10F010074450200B5450200FC
:1028C00045060100BA45020016460200190901003A
:1028D0001A460200A8460200990801005C46020060
:1028E000A7460200190D0100AB460200D9460200BE
:1028F0001D0A0100DC46020001470200950B0100A1
:1029000007470200344702000D0C01003747020060
:10291000695D0200690C01005C4702007F4702000C
:10292000D10B010082470200554802004511010009
:10293000594802009C480200590E0100A4480200B8
:10294000B7480200190F0100BE480200BD4902004D
:1029500009070100C1490200E9490200490F0100CD
:10296000EF490200554102005D170100194A0200BB
:102970000D4B020091130100D64A0200BB37020042
:10298000DD120100F1260100D9260100453E0200BA
:10299000012070470120704708B5FFF7BDF9BDE879
:1029A0000840012101F03EBB08B5FFF7B5F9BDE8CD
:1029B0000840022101F036BB08B5FFF7ADF9BDE8CC
:1029C0000840032101F02EBB08B5FFF7A5F9BDE8CB
:1029D0000840042101F026BB7047FFF7D9BFFFF77D
:1029E000D9BF10B50446FDF74DFC204610BDFFFFD2
:1029F00070B50B4E05010B4B741953F82010201DB8
:102A000007F0AEFBE368A0689847A36870590133EC
:102A1000A36000231A46BDE87040194606F0DEBEEA
:102A20005CC30720E44B020008B50020FFF7E0FF7D
:102A3000FBE708B50120FFF7DBFFFBE708B5022045
:102A4000FFF7D6FFFBE708B50320FFF7D1FFFBE751
:102A5000F7B507460D462D4A00240D2312682C4970
:102A6000009405F0E1F92B4B87F831503B602A4D7B
:102A70002A4B0322EB602A4B2146EB61294B0120B4
:102A8000EB62294BEB6306F087FE032228602146A8
:102A9000012006F081FE032228612146012006F074
:102AA0007BFE224B28621E680523C6F38F06009327
:102AB000324623461E4901941E4807F0FFF80623BC
:102AC0000093324623461C4901941C4807F0F6F84F
:102AD000072300930194234632461949194807F009
:102AE000EDF897F8313073B103222146012006F04A
:102AF00053FE08232863324600930194234612496B
:102B0000124807F0DBF8384603B0F0BD344B020042
:102B1000484B0200FC4B02005CC3072099290100CE
:102B2000A9290100B9290100C9290100304B02007F
:102B30004F4B0200292A0100534B0200332A0100A7
:102B4000584B02003D2A01005E4B0200472A01005B
:102B500038B517480C46415C00230131C9B2914297
:102B600002D00155184638BD124D03552001285892
:102B70001A46194606F038FF0546B0B90E4B53F811
:102B8000244020460BF070F920460BF06FFC2B46DA
:102B900002462146094801F067FB094A094B9A643D
:102BA0004FF08043AA221A721D70012038BD00BF69
:102BB0009CC307205CC30720384B0200654B020012
:102BC000EFBEADDE00400240044608B5012007F02C
:102BD000F3FA94F8313023B1012203212046FFF7A4
:102BE000B7FF0A2202212046FFF7B2FF0028EDD0EE
:102BF0000A2201212046FFF7ABFF0028E6D00A2277
:102C000000212046FFF7A4FFE0E7704708B501F078
:102C1000DBF8012008BD10B50446FDF733FB204664
:102C200010BDFFFF37B59020FDF72AFB04460321B6
:102C3000FFF7B2FB204605F0C9F83420FDF720FB72
:102C4000054600244FF400720D490094042305F05A
:102C5000EBF80C4B28462B6005F0B8F83420FDF754
:102C60000FFB05462146FFF7F3FE284605F0AEF8B8
:102C70002046214605F0B8F84FF0FF3003B030BDD4
:102C800055410200384C020010B54FF6FF74242362
:102C900003FB0101884209D043782BB1038C134414
:102CA000A34228BF234603842430F3E710BDFFFF6F
:102CB00037B5002302A840F8043D0C4B04215B68A3
:102CC00098470B4B019A1C680546141B1A60042197
:102CD00022460848FFF7D8FF224602210648FFF7A0
:102CE000D3FF281C18BF012003B030BDA0C30720AC
:102CF00070C40720B4C307208DC4072008B50B4B50
:102D0000197803788B420A4B0BBF1A889A880132D4
:102D1000013214BF9A801A80064B8170DB68202133
:102D20009847003018BF012008BD00BF05C007202C
:102D300045C40720A0C307200A4B02781B789A429B
:102D4000094B0BBFDA881A89013201320CBFDA80D5
:102D50001A810379C3F3C202073262F3C503037118
:102D6000FFF7CCBF05C0072045C4072010B50749B1
:102D7000002311F823409A00844202D103481044F2
:102D800010BD0133042BF4D1002010BD5FC4072017
:102D900070B1C3780133DBB2FF2BC37008D1054893
:102DA0000023C118CA7804335208102BCA70F8D116
:102DB000704700BF5FC40720242202FB01010346C5
:102DC000024630B5914206D01446243212F8235CF4
:102DD000002DF7D10FE00446002599420BD01A7957
:102DE000C2F3C2001A8C42EA0042AA4284BF1C46C7
:102DF00015462433F1E7204630BDFFFF38B50546C0
:102E0000C90001F10804FFF753FF1C4B2A781B7817
:102E10009A4204D102211A48FFF7CEFF0CE00421A8
:102E20001848FFF7C9FFEB7833B990F82330042432
:102E300043F0800380F82330002380F8203080F8AE
:102E4000213002462B4690F8231080F8224021F0D2
:102E50007F01C4F306240C4380F8234005F12001D0
:102E600053F8044B8B4242F8044BF9D1064A0379DC
:102E7000127862F3C503037138BD00BF05C0072097
:102E80008DC40720B4C3072004C0072008B5FFF78E
:102E90006DFF0346D8B9FFF769FF0346B8B90D4A7D
:102EA000D378D179D07A8B4296BF1946131D134639
:102EB000814294BF0846084BD17B084A814238BF03
:102EC0001346074900221A60CA7A0132CA721846AC
:102ED00008BD00BF5FC4072067C407206BC407207C
:102EE00045C407202DE9F84F05460C464FF024094C
:102EF00009FB0219DFF868A1DFF868B14E1C4FF03A
:102F000000084C4500F09A8094F823301A0624D526
:102F1000B5B12A7861788A4205D16F7816F8010C2C
:102F2000874200F08D80E87850B16878884207D1F8
:102F300016F8011C914203D1A979A27991427FD060
:102F400094F82220218C03F07F0342EA0323994264
:102F500071DB2046FFF7D2FE72E06278002A6AD069
:102F60006DB3297901F0C001C02917D116F8010C01
:102F70006978884202D12878904261D0E778A878B1
:102F800087420CD191420AD116F8010C2978884267
:102F900005D1A079A979884201D151E079B1A87809
:102FA000E17888420BD16978914208D116F8010C7A
:102FB0002978884203D1A079A979884246D094F82B
:102FC0002210208C03F07F0341EA0323984232DB76
:102FD000237984F82080C3F3C201CFB284F8218022
:102FE0001FB12046FFF7A8FE25E003F0C003C02B69
:102FF00019D016F8010C9AF80030984213D1E378F2
:103000009A4210D07BB16379032262F30713637194
:10301000E1702046FFF790FE23799BF8002062F3D1
:10302000C503237100E001276078FFF79FFE08B118
:10303000C0F8008027B92434243662E7BDE8F88F51
:1030400024220021204609F010FDF4E7237984F8BA
:1030500020806FF3C50384F821802371EBE700BF64
:1030600005C0072004C00720431EDBB2FD2B9DBF17
:10307000024B187001200020704700BF05C00720D8
:10308000014B1878704700BF05C0072007289CBF78
:10309000014B1870704700BF04C007202DE9F743AB
:1030A000044691461E469DF828500F46002966D0DA
:1030B000364B93F80080414563D00F2E61D800282D
:1030C00061D02022002109F0D0FCFF2F237914BF0A
:1030D00009F00302002262F38713032262F3020362
:1030E0002B4A6770127884F8008062F3C503294A7E
:1030F0002371137884F802800133DBB21370A3715B
:103100000BAB019315B94FF001081BE004F108095E
:10311000019AE0791346526853F8081B00EB020845
:103120005FFA88F8013DB8F1180F0193EDB207D8A6
:10313000484409F074FC84F80780002DE8D1E2E7E8
:103140004FF00008DFF850900123384689F800302E
:10315000FFF70CFE0546FFF71BFE002389F8003041
:10316000637925B966F307136371E57005E0AA7802
:1031700062F3071363716B78E370404603E008461F
:1031800001E00020FFE703B0BDE8F08305C00720A1
:1031900004C0072044C4072051C40720124B012259
:1031A00070B51A7004461E4608B9002518E0FFF7EE
:1031B000A5FD05460028F8D0237903F0C003402B75
:1031C00006D0C02B0AD1E37853B162789A4207D077
:1031D000617920460909FFF711FE01E0802BF7D045
:1031E00000233370284670BD51C4072082B02DE9FA
:1031F000F0439146421ED2B28DB0FD2A05460E46DE
:1032000015939DF8688001D9002057E0002BFBD072
:10321000179F002FF8D0199B002BF5D0189B002B7F
:10322000F2D0169B002BEFD048220021264809F04F
:103230001CFC90220021254809F017FC10220021D7
:10324000234809F012FC234B00241C605C609C6046
:10325000214B1C605C609C60204B1D70204B214DFD
:103260001E7015AE0FCE0FC53368182221461E48BA
:103270002B6009F0FAFB494617221B480BF03CF97A
:1032800021462046B8470028BED0B8F1000F02D131
:10329000FFF70EFD12E006230293144B2246019322
:1032A00001230093FF2104A8FFF7F8FE0028ABD00C
:1032B00004A8FFF773FF0028A6D0E9E70DB0BDE82A
:1032C000F04302B0704700BF8DC40720B4C307208D
:1032D0005FC4072053C4072045C4072005C007204A
:1032E00052C40720A0C3072074C40720504C02001A
:1032F00030B5182B8DB016D8B2FA82F41D1C18BF49
:1033000001256409AC420ED00293019200950A4651
:103310009DF84030014604A8FFF7C0FE18B104A88C
:10332000FFF73CFF00E000200DB030BD13B553792E
:1033300014781B09009302460B4620460321FFF731
:10334000D7FF02B010BDFFFF00231A4630B5084C6E
:1033500014F82350990035B1904202D10448084432
:1033600030BD0132D2B20133042BF1D1002030BD87
:103370005FC4072000231846044A12F8231009B13D
:103380000130C0B20133042BF7D170475FC407206E
:103390002DE9F04188B020220021684609F065FB44
:1033A000A14B1B7803F0FF04002B40F039819F4FA5
:1033B00020213B6968469847002800F084809C4D96
:1033C0006B8801336B80FFF7D5FF9DF80420A8724E
:1033D00002F00703032B04D0964A137843F001034D
:1033E00009E0954B1D789DF80230AB4205D1914A1A
:1033F000137843F002031370E4E0C2F3C2029DF8B5
:1034000000E09DF806008D49D6B204EB440313F8A2
:1034100001C0F4450BD10B4493F801C0844506D19B
:10342000997801248E1B18BF01269A7018E0013488
:10343000042CEAD182490B689A70804A587002F1D4
:103440000900834283F800E040F0C9800A609DF8DB
:1034500000009DF80230834240F0C48000242646DC
:103460009DF80200FFF712FD9DF8022002709DF802
:103470000220427000228270FFF78AFC04B116B36A
:103480009DF80030AB4200F09C809DF80160FF2E5B
:103490001BD13B6820216846984720B9654A1378BC
:1034A00043F0040313709DF8053003F00F02511C24
:1034B00061F303038DF80530C3F303139A4202DA74
:1034C0006846FFF71BFC00247CE0B5422BD164B9B1
:1034D0009DF807304BB13B6820216846984720B9DA
:1034E000544A137843F0040313709DF8043003F03A
:1034F000C003402B12D19DF807306A4613B918213A
:10350000504808E00C214A48FFF710FF002858D126
:1035100000216A460846FFF709FF52E09DF8033094
:10352000002B4ED1F4E7484B1B78002BCBD09DF8F5
:10353000054004F00F074FEA14184745C3DA013776
:1035400067F303043046FFF711FC8DF805409DF842
:103550000340A54221D19DF8041001F0C00140298B
:1035600006D0A1F180035A425A41144610B90CE02A
:10357000012260B1C029437805D19E4203D00033B7
:1035800018BF012304E0002302E0C0290ED1034646
:10359000134303F0010420B908E094B908B9414687
:1035A0000CE043788DF80330857802E000258DF833
:1035B00003506846FFF7A2FB1CB129466846FFF797
:1035C0001DFC6C46FFF774FB204604221F49FFF7E1
:1035D00089FC02221E492046FFF784FC20E00333C9
:1035E0000B6034E785423FF439AFFFF74FFC0446E8
:1035F000FFF7CEFB23783BB19DF80530A27803F0AE
:103600000F0393423FF72AAF9DF8003023709DF8D7
:10361000023063709DF80530C3F30303A3701DE708
:1036200008B0BDE8F08100BF51C40720A0C3072047
:1036300045C407208CC4072005C0072053C40720B9
:1036400000C0072074C4072052C40720B4C3072059
:103650008DC4072000231846094AD118497809B1BA
:103660000130C0B22433902BF7D1064B5A780AB1FF
:103670000130C0B293F825300BB10130C0B27047B1
:10368000B4C307208DC4072008B5FFF76FFB064BB6
:1036900028B18278187802FB0000C00008BD1878B5
:1036A0001823584308BD00BF04C0072003490B6816
:1036B00003604B6843608B688360704745C4072094
:1036C00070B53E4C4FF48035E5613D4CA06020461E
:1036D000C5683B4CED06FBD4A0680D46C0B20BB9E3
:1036E00023465FE02346002A63D0072A0E782DDDAB
:1036F0009E604E78083A9E608E789E60CE789E607E
:103700000E799E604E799E608E799E6001F108066A
:10371000C979996099694907FCD5A1682970A168A0
:103720006970A168A970A168E970D968C906FCD45C
:10373000A168083505F8041CA16805F8031CA168F8
:1037400005F8021CA16805F8011C1AE0032A1ADD1D
:103750009E604E78043A9E608E789E600E1DC978F9
:103760009960D968C906FCD4A168043505F8041C21
:10377000A16805F8031CA16805F8021CA16805F8FA
:10378000011C3146AFE701319E60013ADE68F60662
:10379000FCD4A668013505F8016CA4E7E668F606D6
:1037A000FCD4A6686E1AB24203DD15F8016B9E6068
:1037B000F4E7024B4FF480329A6170BD00C00920DB
:1037C0000080084007B5002302A901F8013D01234C
:1037D0001A4600F01F00FFF773FF9DF8070003B0C3
:1037E0005DF804FB13B502AC04F8011D00F01F00E6
:1037F00000230122214640F02000FFF761FF02B0C4
:1038000010BD08B51720FFF7DDFFC0F3001008BD9D
:1038100070210720FFF7E6BF0A4600230146A020DB
:10382000FFF74EBF08B50020FFF7CCFFBDE808400A
:1038300000F0FE010020FFF7D5BFFFFF024B4FF065
:103840008072DA61704700BF20C0092008B50020EF
:10385000FFF7B8FF40F00101C9B20020FFF7C2FF37
:10386000024B4FF080729A6108BD00BF20C0092052
:1038700020210720FFF7B6BF00231A461946E12092
:10388000FFF71EBF37B504460D46FFF7F5FF20468C
:103890002946FFF7C1FF0D4B4FF080721C469A611D
:1038A0000022ADF80620BDF8063001339BB2ADF81A
:1038B000063033B94FF08073E361FFF7DDFF03B0EB
:1038C00030BDFFF79EFF0028EDD0F3E720C00920B0
:1038D00008B51720FFF776FF00F0010080F0010027
:1038E00008BD40210720FFF77DBF08B50A46012328
:1038F00001466120FFF7E4FEC0F3420008BD00234B
:103900001A461946E220FFF7DBBE70B506460020D6
:103910000D461446FFF756FF16B100F0BF0002E057
:1039200040F04000C0B215B100F0DF0101E040F00E
:10393000200114B101F0EF0101E041F0100100207D
:10394000BDE87040FFF74EBF10B504460020FFF7FA
:1039500039FF14B900F0F7010DE0012C04D100F09B
:10396000FB0141F0080106E0022C14BF40F0080101
:1039700040F00C01C9B20020BDE81040FFF732BF93
:1039800008B50020FFF71EFFBDE8084040F0020127
:10399000C9B20020FFF726BF08B50020FFF712FFCD
:1039A000BDE8084000F0FD010020FFF71BBF40F616
:1039B000DD13984206D840F66213B0F5166F38BF93
:1039C000184600E01846A0F51661C9B20520FFF7B9
:1039D00009BF10B504460620FFF7F4FEFA2C00F0EC
:1039E000D70102D141F0200104E0B4F5FA6F08BF1D
:1039F00041F008010620BDE81040FFF7F3BE10B506
:103A000004460620FFF7DEFE032C28BF032420F027
:103A1000060040EA4401C9B20620BDE81040FFF7A5
:103A2000E1BEF9284FF0FA0305D9B0F57A6F88BFE7
:103A30004FF47A6000E01846B0FBF3F00F2900F174
:103A4000FF30C0B228BF0F2141EA0011C9B20420E3
:103A5000FFF7C8BE1130C0B2162804D8202928BFED
:103A60002021FFF7BFBE7047032804D0042814BFED
:103A70000321022100E001210320FFF7B3BE0A4623
:103A8000002301463020FFF71BBE0A4600230146F3
:103A90002A20FFF715BEFFFF73B50E4615460446F4
:103AA000FFF72DFFFFF7E8FE2B4B4FF08072DA6136
:103AB000FFF772FF002211460120FFF726FFFFF7F4
:103AC000A7FE0220FFF740FF3046FFF770FF2846B1
:103AD000FFF77FFF0320FFF792FF03210220FFF78C
:103AE00081FE00210120FFF77DFE03214FF4FA70D3
:103AF000FFF797FF21460020FFF7ACFF00211220BF
:103B0000FFF770FE00211320FFF76CFE0021142048
:103B1000FFF768FE00211520FFF764FE0021162044
:103B2000FFF760FE0D4B18681B79009005208DF89B
:103B30000430FFF799FF68460521FFF7A0FF052134
:103B40006846FFF7A2FFFFF71BFF4FF4FA6004F08F
:103B500005FC02B070BD00BF20C00920574C020018
:103B600070B5174E326822B92021032005F014FEEB
:103B70003060144D2A6822B92021012005F00CFE86
:103B80002860114C216821B90322012005F004FEB0
:103B900020604FF4FA6240F6C3112020FFF77CFF4B
:103BA000FFF754FE1620094A012104F099FD306800
:103BB00028B1286818B12068003018BF012070BDF6
:103BC000DCC40720D8C40720E0C40720793C0100EA
:103BD00070B50379014603F0C003C02B0CBF0E4B38
:103BE0000E4B88B01D68002306461A46284605F08D
:103BF000F5FD044660B9034602466946284605F0CD
:103C0000F3FE234622463146284605F0E7FD0446EA
:103C1000204608B070BD00BFD8C40720DCC4072010
:103C200038B504460D46FFF72BFA237883420AD0B5
:103C3000E37843B90AF048F9BD2300F0030000FB24
:103C4000033004F08BFBFFF7F9FDFFF7EBFDA9B2A2
:103C50002046FFF717FEFFF70BFEFFF7F7FD06F014
:103C6000C7FC022804D1034B0021186805F08AFE26
:103C7000012038BDE0C4072007B5002302A941F8A0
:103C8000043D084B186805F07DFE019B3BB1064BD7
:103C90004FF080521A60BFF34F8FBFF36F8F03B0A6
:103CA0005DF804FBE0C4072004ED00E038B50446ED
:103CB0000D46FFF70DFE48B1A9B22046FFF715FEED
:103CC000FFF706FE08B9FFF70CFE012038BD2DE90D
:103CD000704305460E46144606F08AFC022807D1BA
:103CE000224600233146284605F07EFEC4B21DE080
:103CF00007F02EF84FF47A72002308F091FA10EBD7
:103D0000040841F1000900231A463146284605F00F
:103D10006BFEC4B254B907F01BF84FF47A7200235B
:103D200008F07EFA894508BF8045ECD22046BDE800
:103D30007083042938B5054603D1041C18BF01243B
:103D400000E0002407F004F82CB14FF47A7200234D
:103D500008F066FA2860204638BDFFFF00B50C4B1E
:103D60008DB009930B4B0C4A0B930C4B0A930CAB85
:103D700043F8102D002204920FCB8DE80F00084B62
:103D8000084A01216A20FFF731FA0DB05DF804FB03
:103D9000613B0100AD3C0100333D0100213C0100CD
:103DA000D13B01005C4C0200024B0A4601461868F8
:103DB000FFF78DBFDCC40720024B0A460146186896
:103DC000FFF785BFD8C4072008B506F011FC0F4BDC
:103DD00002285B6913D15A020DD5FFF73BFC00287E
:103DE0000B484FF0000314BF01224FF0FF32194679
:103DF000006805F0F9FDBDE80840FFF7C9BA5B02AD
:103E0000F9D5FFF727FC0028F5D108BD00C009202F
:103E1000E0C4072013460A460179006805F0EFB8B0
:103E20001FB5002204AB047923F8042D022200926E
:103E300000680A46214605F0CDF89DF80C009DF873
:103E40000D3043EA002004B010BD10B5044619221D
:103E50002A21FFF7DFFF0D222179206805F0BEF847
:103E6000A0F12A035842584110BDFFFF044A1388AD
:103E70001F2B9FBF581C1080024A42F82310704726
:103E8000E8C40720ECC40720154AF0B5138816468D
:103E9000012B21D9134A00201546013B984206DA2E
:103EA000516814680130091B42F8041BF6E7002131
:103EB0000C466A684FF0010E02EB52008AB2934240
:103EC00008DD55F822700131B8423CBF0EFA02F20B
:103ED0001443F3E7044B1C6000233380F0BD00BFA4
:103EE000E8C40720ECC40720E4C4072008B501217A
:103EF000022006F0C7FE084B01209A6A22F0070252
:103F00009A629A6A42F006029A62044AD36843F0BF
:103F10003003D36008BD00BF0080004000C00240F5
:103F200008B5044B417101F07F015A5C0321FFF792
:103F300071FF08BD614C020008B5044B817101F0AE
:103F40007F015A5C0221FFF765FF08BD614C02004A
:103F500038B504460179006805F05CF8054688B17B
:103F6000002206212046FFF755FF002207212046A8
:103F7000FFF750FF2E212046FFF7D2FF2E212046CB
:103F8000FFF7DAFF284638BD642370B5B1FBF3F4C0
:103F900004FB1311CCB20A21B4FBF1F501FB15416E
:103FA0003031C9B20646FFF7C7FF092C88BF05F1BB
:103FB00030013046BDE8704094BF2021C9B2FFF700
:103FC000AFBF01207047FFFF38B50D46044606F02D
:103FD00043FC05F00F032370114B15F0010F4FF058
:103FE000010214BFDA619A61227812F0020F4FF0D9
:103FF000020214BFDA619A61227812F0040F4FF0C6
:10400000100214BFDA619A61227812F0080F4FF49F
:10401000807214BFDA619A61BDE8384006F02CBCAA
:1040200020C0092038B50D46044606F015FC691E6F
:10403000012303FA01F1237820465940C9B22170C7
:10404000FFF7C2FFBDE8384006F016BC01207047FC
:10405000022004F019BA01207047FFFF044B5B698E
:10406000180B00F00C00C3F341231843704700BF46
:1040700020C0092010B5044681220121FFF7CAFEA5
:1040800001222179206804F0A9FF10F0600F14BF0D
:104090000120002010BD38B500210446FFF7C0FE06
:1040A000812205B201212046FFF7B4FE102095FBC6
:1040B000F0F007F0CBFE4FF0765107F01BFFA16840
:1040C00007F010FE38BDFFFF08B5FFF7E4FF054914
:1040D00007F010FF044907F0C1FF4FF0844107F0DB
:1040E00001FE08BD000010410000A0402DE9F04F86
:1040F000ADF2546D0C4690460146012282A89946C5
:1041000002F03EF8002867D121460A220DF22C4029
:1041100002F036F8044620B182A802F09AFA20464E
:104120005AE06D46064607462860019006F010FEEC
:104130004FF47A72002308F073F82B4683464FF44D
:10414000007202A982A802F0B5F88246E0B92A6896
:10415000D2B106F0FDFD4FF47A72002308F060F84A
:10416000B0EB0B00074406F0F3FD4FF47A72002326
:1041700008F056F801AB83462A6802A90DF22C40DC
:1041800002F050F98246B0B1B8F1000F01D0C8F882
:104190000070B9F1000F01D0C9F80060DDF8783681
:1041A00003B11C6082A802F054FA0DF22C4002F018
:1041B00050FA504610E001992A689142E4D106F085
:1041C000C7FD00234FF47A7208F02AF82B68B0EB91
:1041D0000B0006441C44A9E70DF2546DBDE8F08FB6
:1041E000F0B5ADF50B7D0E46174601461D46012282
:1041F000002301A8009301F0C3FF044670B91DB16C
:10420000294601A802F037FA6B463A46314601A822
:1042100002F050F8044601A802F01BFA20460DF502
:104220000B7DF0BDF0B5ADF50B7D0E461746014692
:104230001D460A22002301A8009301F0A1FF0446B5
:1042400070B91DB1294601A802F015FA6B463A462D
:10425000314601A802F0E6F8044601A802F0F9F997
:1042600020460DF50B7DF0BDF0B5ADF50B7D0E468E
:10427000174601461D461222002301A8009301F0B3
:104280007FFF044680B90DB1294600E0049901A8DA
:1042900002F0F1F96B463A46314601A802F0C2F845
:1042A000044601A802F0D5F920460DF50B7DF0BDBE
:1042B0007F2810B516D931B1FF2812D80A4B8038A3
:1042C00033F8100010BD084A32F811408BB2844216
:1042D00003D001318029F7D10B4603F18000C0B231
:1042E00010BD002010BD00BFE24C020006490023B3
:1042F00031F8132032B1824201D00133F8E7034A8A
:1043000032F81300704700BFE24D0200C24F0200B6
:1043100010B501200C4605F0E5FA2060003018BF0A
:10432000012010BD0120704710B5044606F060F969
:1043300002280AD1002319464FF0FF32204605F02B
:1043400053FB431E5842584110BD012010BD10B50B
:10435000044606F04DF9022807D100232046BDE8A7
:1043600010401A46194605F039BA10BD10B504467A
:1043700004F038FC24B1012C06D100F081F901E0F1
:1043800000F002FD044600E0042404F043FC204653
:1043900010BD28B1012801D00420704700F028BAD0
:1043A0007047F8B507460C4615461E4604F01AFC41
:1043B0003FB1012F0CD132462946204600F020FAA9
:1043C00004E032462946204600F02AFD044600E07B
:1043D000042404F01FFC2046F8BDF8B507460C463F
:1043E00015461E4604F0FEFB3FB1012F0CD13246AC
:1043F0002946204600F050FA04E03246294620467D
:1044000000F030FD044600E0042404F003FC2046E4
:10441000F8BD70B506460C46154604F0E3FB36B110
:10442000012E0AD12946204600F090FA03E02946E1
:10443000204600F037FD044600E0042404F0EAFBC7
:10444000204670BD08B506F083FC4FF47A72002355
:1044500007F0E6FE08BDFFFF10B5044606F0F2FDCA
:10446000074BB0FBF3F00223B0FBF3F2944202D30C
:10447000044A136110BDB3F5807FF9D00233F3E72E
:1044800040420F0000000340044B9860DA68D206F7
:10449000FCD4024B9868C0B2704700BF00000340D4
:1044A00070B5FFF7CFFF00F5FA74FF20FFF7ECFFC0
:1044B0000025FF20FFF7E8FFFF28064605D0FFF79D
:1044C000C1FFA94208BFA042F3D3304670BDFFFF31
:1044D00038B5064C4FF00075E561FFF7E1FF044A7F
:1044E000A561137843F00103137038BD20C0092083
:1044F00006C007202DE9704306460D46FFF7A2FFD0
:10450000643080464FF00009FF20FFF7BDFFFF2811
:1045100008D1FFF797FF494508BF4045F4D3002075
:10452000BDE87083FE28FAD1102D06D900224FF481
:104530000071304604F0F4FA19E0341D0435FF2010
:10454000FFF7A2FF04F8040CFF20FFF79DFF04F81B
:10455000030CFF20FFF798FF04F8020CFF20FFF781
:1045600093FF043404F8050C2B1BDE42E7D1FF2037
:10457000FFF78AFFFF20FFF787FF0120BDE8708368
:1045800070B506460D46FFF78BFFFF28044619D18C
:104590002846FFF779FFFD2D16D022464FF4007113
:1045A000304604F0BDFA2046FFF76EFF2046FFF7C5
:1045B0006BFF2046FFF768FF00F01F00431F5842C3
:1045C000584170BD002070BD012070BD020638B595
:1045D00004460D4607D500217720FFF7F7FF012895
:1045E00038D804F07F041C4B4FF000729A61DA61F6
:1045F000FFF756FFFF28014628D12046FFF744FF6A
:10460000280EFFF741FFC5F30740FFF73DFFC5F355
:104610000720FFF739FFE8B2FFF736FF402C17D02D
:10462000482C14BF01208720FFF72EFF4C2C02D10D
:104630000846FFF729FF0A21FF20FFF725FF0306A1
:1046400008D5013911F0FF01F6D138BDFF2038BD82
:104650009520EEE738BD00BF20C00920064A074973
:1046600013784969DBB2490154BF03F0FD0343F0FD
:1046700003031370704700BF06C0072020C0092045
:104680002DE9F743FFF7EAFF564B1A781E4612F062
:10469000020F01D01878A1E00120FFF7DDFE0A2407
:1046A000FF20013CFFF7F0FE14F0FF04F8D14E4F5D
:1046B0004FF00073FB6121464020FFF787FF012880
:1046C00002D04FF0000875E0FFF7BCFE4FF4D57143
:1046D00000F57A754820FFF779FF012841D10DF1E7
:1046E0000408FF20FFF7D0FE08F804000134042C72
:1046F000F7D19DF80630012BE3D19DF80730AA2BA6
:10470000DFD12C460025FFF79DFEA94208BFA0423D
:1047100006D3FFF797FEA94208BFA042D1D207E017
:104720004FF08041E920FFF751FF0028EBD1F0E77F
:1047300000217A20FFF74AFF0028C2D10146FF205E
:10474000FFF7A2FE08F8010001310429F7D19DF816
:10475000043013F0400F14BF4FF00C084FF0040862
:1047600028E02146E920FFF731FF02282C4635BF1B
:104770004FF002084FF001084FF0E9094FF04109EE
:104780000025FFF75FFEA94208BFA0420BD3FFF749
:1047900059FEA94208BFA0420CD34FF4007150202B
:1047A000FFF714FF06E000214846FFF70FFF00283F
:1047B000E7D1ECE70D4B83F800804FF00073BB614D
:1047C000B8F1000F07D03378182003F0FE033370E0
:1047D000FFF742FE01E0FFF77BFE3078C0B203B086
:1047E000BDE8F08306C0072020C009206CC5072063
:1047F00008B5FFF733FF014B187808BD06C0072046
:1048000070B5144606460846FFF728FF002C39D03D
:104810001E4B1B78DB0737D41D4B4FF00072DA615B
:104820001C4A1D46127812F0080F08BF4002012CE6
:1048300001460CD15120FFF7C9FEE0B94FF40071D9
:104840003046FFF757FEB0FA80F4640913E05220B7
:10485000FFF7BCFE78B94FF400713046FFF74AFE0F
:1048600028B1013C14F0FF0406F50076F3D10021D5
:104870004C20FFF7ABFE4FF00073201CAB6118BF5C
:10488000012070BD042070BD032070BD06C007204C
:1048900020C009206CC50720F8B5144606460F460F
:1048A000FFF7DCFE002C44D0254B1A78D20742D407
:1048B0001B785B0741D4234B4FF00072DA61224A28
:1048C0001D46127812F0080F08BF7F02012C0CD190
:1048D00039465820FFF77AFE18BBFE213046FFF715
:1048E0004FFEB0FA80F464091CE012F0060F03D00A
:1048F0002146D720FFF76AFE39465920FFF766FEAA
:1049000080B9FC213046FFF73BFE28B1013C14F092
:10491000FF0406F50076F4D1FD210020FFF730FEFC
:1049200000B901244FF00073201CAB6118BF0120B7
:10493000F8BD0420F8BD0320F8BD0220F8BD00BF7B
:1049400006C0072020C009206CC507207FB50D4692
:10495000FFF784FE05281AD12B78012B00F0048183
:1049600003D3022B0BD0042001E1824B586910F0D5
:10497000806440F0F980FFF7ABFD2046F7E07D4B07
:104980005B6983F08063C3F380636B70ECE07A4B08
:104990001B78DB0700F1EA800E2800F2DF80DFE8F9
:1049A00000F008124F53DDDDDDDDDDDDAAAFB2BB67
:1049B000CB00704B4FF00072DA61FFF771FDFF38EA
:1049C00018BF0120CBE000214920FFF7FFFD04467E
:1049D00008B10120C3E010216846FFF78BFD0028D5
:1049E000F7D09DF800309DF808109B09012B9DF829
:1049F000093006D1013303EB012189B28902296014
:104A00006BE09DF807209DF80500920002EB9111E4
:104A10009DF806200131920202F4406211449DF893
:104A20000A2000F00F0000EBD2105A00023002F012
:104A300006028318DBB289B2093B01FA03F34BE0AB
:104A40004FF400732B8059E04C4E337803F004038D
:104A500003F0FF01F3B10021CD20FFF7B7FD0028DF
:104A6000B7D1FF20FFF710FD10216846FFF742FD88
:104A70000028AED03021FF20FFF706FD481E10F0C1
:104A8000FF01F8D19DF80A3008461A091023934017
:104A90002B6064E04920FFF799FD0446002898D177
:104AA00010216846FFF726FD002892D036789DF841
:104AB0000A2006F0020606F0FF009DF80B3076B1E2
:104AC000520002F07E0202EBD3135A1C9DF80D3007
:104AD0009B09013B02FA03F32B6020463FE0D9001B
:104AE00001F01801C2F3840201EB5311531C01FBC6
:104AF00003332B6033E0214B1B782B7000202EE01A
:104B00000021492001E000214A20FFF75FFD002835
:104B10007FF45FAF10211AE000217A20FFF756FDE5
:104B200000287FF456AF291DFF20FFF7ADFC05F8E4
:104B3000010B8D42F8D1E1E70021CD20FFF746FDC2
:104B400000287FF446AFFF20FFF79EFC4021284657
:104B5000FFF7D0FCB0FA80F0400900E00420054BDC
:104B60004FF000729A6102E0002000E0032004B0E0
:104B700070BD00BF20C0092006C007206CC50720FB
:104B8000054B1B78253BDBB2032B9ABF034A52F837
:104B900023000020704700BF70C50720AC51020001
:104BA0001B4B2DE9F0411D880646B5F5007F0F46E9
:104BB000144602D12A46214613E0B5F5807F09D17B
:104BC0002A4621463846B0472A4604F5807107F543
:104BD000807016E0B5F5047F05D1510A89024FF4C3
:104BE000007238460DE0B5F5847F0ED1140A6102DB
:104BF0004FF480723846B047611C4FF4807249020E
:104C0000B8183346BDE8F0411847BDE8F08100BF51
:104C10006EC5072030B52F4C03462546002958DDC8
:104C200007291A782DDDA2605A780839A2609A788F
:104C3000A260DA78A2601A79A2605A79A2609A79A1
:104C4000A26003F10802DB79A360A3695B07FCD5CE
:104C5000AB680370AB684370AB688370AB68C370BC
:104C6000E368DB06FCD4AB68083000F8043CAB68B2
:104C700000F8033CAB6800F8023CAB6800F8013C6C
:104C80001AE003291ADDA2605A780439A2609A78E2
:104C9000A2601A1DDB78A360E368DB06FCD4AB6876
:104CA000043000F8043CAB6800F8033CAB6800F843
:104CB000023CAB6800F8013C1346AFE70133A26049
:104CC0000139E268D206FCD4AA68013000F8012C50
:104CD000A4E730BD0000034007B50B0C8DF805308C
:104CE0008DF807100B0A04218DF804000DEB01006C
:104CF0008DF80630FFF78EFF03B05DF804FBFFFF71
:104D0000F7B5174606460E4C40250323E5618DF89E
:104D100004300B0C8DF805308DF807100B0A0421B8
:104D20000DEB01008DF80630FFF774FF00223946C5
:104D3000304603F0F5FEA561A561A56103B0F0BDA5
:104D400000C009200E4B4022DA610E4BD7229A6038
:104D50001A46D1680B4BC906FBD49A681A46FF2144
:104D60009960D068C006FCD4906810F0800FF7D02E
:104D7000034B40229A61C0B29A619A61704700BFAA
:104D800000C0092000000340F7B5FFF7DBFF1F4C10
:104D9000002323801E4B1F4E40271A889B78F76103
:104DA0000321054601A8ADF804208DF80630FFF771
:104DB00031FF9DF805209DF806301F2AB761214676
:104DC000B761B7611CD1A3F12502032A18D8124A92
:104DD000252B137005F0010006D1002814BF4FF4F5
:104DE00080734FF4847305E0002814BF4FF4007300
:104DF0004FF404730B80FFF7C3FE084B400A1860A2
:104E00000888B0FA80F0400903B0F0BD6EC50720F5
:104E1000A251020000C0092070C5072074C50720F8
:104E2000F8B58B1817460D4A013B126804469342A9
:104E300010D84D02FFF786FF00262D1BBE4204EB63
:104E4000050209DA21460648FFF7AAFE04F50074B8
:104E50000136F3E70120F8BD0020F8BD74C5072036
:104E6000014D0100F8B58B1817460C4A013B12683A
:104E700093420FD804460026C0EB4125BE4204EB06
:104E8000050209DA21460648FFF78AFE04F5007498
:104E90000136F3E70120F8BD0020F8BD74C50720F6
:104EA000854F010008B5072805D8DFE800F006099E
:104EB0000E1214141414042008BDFFF743FF0AE077
:104EC000FFF75EFE400A086005E04FF400730B80B8
:104ED00001E001230B60002008BDFFFF70B590B01A
:104EE00003466A466E4600F1400514461868596844
:104EF000083303C4AB422246F7D1084D4024EC618D
:104F000000219B20FFF7E8FE21463046FFF782FE96
:104F1000AC61AC61AC6110B070BD00BF00C00920D5
:104F200070B50646074D402400217720EC61FFF75D
:104F3000D3FE21463046FFF76DFEAC61AC61AC613B
:104F400070BD00BF00C0092008B5064B198831F0BC
:104F50001F0104D0FFF714FEB0FBF1F008BD0846B6
:104F600008BD00BF6EC50720014B1888704700BF01
:104F70006EC50720024B1878003018BF012070471B
:104F80006EC507202DE9F7434FF0FF330F469146DA
:104F900001938046FFF7D6FEFFF7ECFF0646B8B157
:104FA000194C4025194BE5611B880320B3F5847F1C
:104FB0000CBF4FF480714FF400713943FFF78CFE42
:104FC00004210DEB0100FFF725FEA561A561A56198
:104FD0000D4C402339468220E361FFF77DFE01221C
:104FE0004946404603F09CFD3EB1019B02A80133B7
:104FF00040F8043D0421FFF70DFE4023A361A361A7
:10500000A36103B0BDE8F08300C009206EC507208E
:10501000124B37B51B88B3F5847F0CBF4FF48071FA
:105020004FF400714FF0FF3341EA40210193FFF745
:10503000A1FF68B10A4C40250320E561FFF74CFE53
:1050400004210DEB0100FFF7E5FDA561A561A56158
:105050000198431C08BF002003B030BD6EC5072077
:1050600000C0092037B5084B084C186840250421BA
:105070000190E5610DEB0100FFF7CCFDA561A56195
:10508000A56103B030BD00BFA551020000C00920DA
:105090001FB501A803F068FC9DF808309DF80920B1
:1050A00003F01F0302F00F021B0443EA42519DF874
:1050B00006309DF8040003F01F0341EAC3229DF867
:1050C0000530C0F3440003F03F0342EA4313BDF848
:1050D0000A201843520602F10842104305B05DF859
:1050E00004FB30B504460D1F131B0344032B04D9E6
:1050F00055F8043F44F8043BF6E79408A30019442C
:10510000A2EB8402013B18440A44914204D011F8F6
:10511000013B00F8013FF8E730BD0244904202D065
:1051200000F8011BFAE7704700F10B010023DA01D8
:1051300042EA530310F8012B1344884203F0FF03A3
:10514000F5D118467047036810B50446B3B1194647
:105150000A4611F8010B1F2802D93A28F8D101E0BC
:10516000002010BD591C8A4208D11B78303BD9B2AF
:10517000012903D801321846226010BD4FF0FF30DC
:1051800010BD03692DE9F04101F109020D4663B339
:10519000416900244E1E2E2716F8013F0134202BB2
:1051A00019D0052B48D0092C01D117700132A3F179
:1051B000410EBEF1190F0CD8082C91F80CE08CBFF1
:1051C0004FF0100C4FF0080C1CEA0E0F1CBF2033E0
:1051D000DBB2137001320B2CDED1CB7A2B72CB6990
:1051E0002B600B8BAB80CB8AEB8000241470AE69F4
:1051F0003EB303690BB900241AE0EB69002BFAD027
:105200004FF6FF73028C9A42F5D0D0F81C80771EBF
:1052100038F8140060B10021FFF74AF80028EAD0FE
:10522000EB69013B9C42E6D2013407F8010FEFE73E
:1052300000233355BDE8F081092C4FF0E503C8D1B8
:10524000B3E7BDE8F081F8B5056B00F1340704461B
:1052500001232A4639464078FFF7BFF8A0B9636AB0
:10526000E269EB1A9342207101D30020F8BDE67881
:10527000012EFAD9E36939461D442A460123607894
:10528000FFF7ABF8013EF3E70120F8BD03790BB15E
:10529000FFF7D9BF1846704770B50446FFF7F6FF11
:1052A000054680BB2378032B25D16379012B22D1BE
:1052B00004F1340601464FF400723046FFF72DFF2B
:1052C0004AF65522A4F832220F4A3146626302F1AF
:1052D000FF5202F500522032C4F818226269607849
:1052E000C4F81C222269C4F82022226A01322263F7
:1052F000FFF773F86571002211466078FFF789F8AF
:10530000003018BF012070BD52526141036B70B56F
:105310008B4205460E4610D0FFF7B8FF044608B191
:1053200001240BE00123324605F134016878FFF7D0
:1053300038F80028F4D12E6300E00024204670BD28
:10534000002310B503714FF0FF3303630446FFF7EA
:10535000DDFFA0B94AF65523B4F832229A4210D1A3
:10536000D4F86A30084A23F07F4393420AD0D4F835
:10537000860020F07F40801A18BF012010BD032056
:1053800010BD022010BD00BF464154002DE9FF4171
:1053900000230360074608461546FFF7D4FE061EA5
:1053A000C0F2FA80854B53F82640002C00F0F680BE
:1053B000E068FEF7B9FF002800F0F2803C60237837
:1053C00083B16078FEF7E5FFC1070BD4002D00F034
:1053D000E98000F0040303F0FF00002B00F0EB80F5
:1053E0000A20E8E00023F0B223706070FEF7BEFFF1
:1053F000C20700F1D9800DB14307F1D40021204646
:10540000FFF79EFF01281CD12146002291F8F631BA
:105410000BB1D1F8FA314DF822300132042A01F1F2
:105420001001F3D100265DF826502DB12946204603
:10543000FFF786FF08B90BE002200136042EF2D1F7
:1054400000E00025032800F0B18008B10D20B2E093
:10545000B4F83F30B3F5007FF8D1B4F84A6006B92C
:10546000A66D94F844E0E6610EF1FF33012B84F859
:1054700003E0EBD894F84130A370002BE6D05A1E1D
:105480001A42E3D1B4F845C01CF00F0FA4F808C0CD
:10549000DCD1B4F8472002B9626DB4F8421000299B
:1054A000D4D006FB0EFE01EB1C177744BA42CDD3D5
:1054B000D21BB2FBF3F3002BC8D040F6F572934237
:1054C00003F1020005EB01022F4410D94FF6F571EC
:1054D0008B426DD9A06125626262E762BCF1000F68
:1054E000B4D1236E4FF00308A362830018E04FF09D
:1054F0000108A06125626262E762BCF1000FA5D0DD
:10550000B8F1020F4FEA400318BF1B18724418BFCE
:1055100000F00100A2621CBF00EB53034FF0010832
:1055200003F2FF13B6EB532F90D34FF0FF336361B9
:105530002361B8F1030F4FF08003637122D1B4F8F7
:105540006430012B1ED1691C2046FFF7DFFEC8B96D
:105550004AF65523B4F8322260719A4212D1626B36
:10556000174B9A420ED103F1FF53D4F8182203F5DA
:10557000005320339A4201BFD4F81C326361D4F83F
:10558000203223610F4A84F8008013880020013301
:105590009BB21380E3800EE00B200CE00C200AE0AD
:1055A0000F2008E0284606E0032004E0012002E086
:1055B0004FF002089DE704B0BDE8F0817CC50720EC
:1055C0005252614178C5072010B50446A8B103685E
:1055D0009BB11A788AB1D988828891420DD1D86856
:1055E000FEF7A2FE58B123685878FEF7D2FE10F0FD
:1055F000010F14BF0320002010BD092010BD0F2093
:1056000010BD50B10F2905D84FF41A4323FA01F108
:10561000CB0702D4C068FEF79ABE7047836902398F
:10562000023B99423DBF8378C06A01FB0300002022
:1056300070470129F8B507460C464BD98369994252
:1056400048D20378022B29D0032B34D0012B41D12F
:1056500001EB5106416A01EB5621FFF757FE10B1ED
:105660004FF0FF30F8BD796AC6F3080301363B44BA
:1056700001EB5621384693F83450FFF747FE0028D7
:10568000EED1C6F308063E4496F83400E30745EA37
:1056900000204CBF0009C0F30B00F8BD416A01EBCC
:1056A0001421FFF733FE0028DAD1630003F4FF73FF
:1056B000FE18B08EF8BD416A01EBD411FFF726FE4B
:1056C0000028CDD1A40004F4FE743C44606B20F0AB
:1056D0007040F8BD0120F8BD70B5044682680D46E3
:1056E000012AE18001D1022070BD036899698A42D4
:1056F000F9D252B91978032901D1996A21B91989C6
:105700008D42F0D2986A15E00A469E783601B5427D
:10571000114620680CD3FFF78CFF431C024618D0BB
:105720000128E0D923689B699842DCD2AD1BEEE7E3
:10573000FFF774FFE2600028D5D0236800EB151056
:10574000343305F00F0503EB45152061656100203A
:1057500070BD012070BD0129F8B505460C461646FE
:1057600060D9836999425DD20378022B39D0032B2B
:1057700043D0012B52D101EB5107416A01EB572174
:10578000FFF7C4FD00284AD1C7F3080314F0010451
:105790002B4417BF93F83420F2B202F00F0132010C
:1057A0001CBF02F0F0020A4383F83420696A013713
:1057B00001232B7101EB57212846FFF7A7FD70BB92
:1057C000C7F308072F4414B1C6F3071606E097F88D
:1057D0003430C6F3032623F00F031E4387F83460EA
:1057E0001DE0416A01EB1421FFF790FDB8B9640098
:1057F00004F4FF742C44A68611E0416A01EBD41135
:10580000FFF784FD58B9A40004F4FE7430342C442E
:10581000636803F070431E43666000E002200123CA
:105820002B71F8BD0220F8BDF8B505460F4631B919
:10583000066996B183699E4228BF01260EE0FFF7F4
:10584000F8FE01283FD9441C02D14FF0FF30F8BDCB
:10585000AB69984238D33E4600E001263446AB6936
:1058600001349C4204D3012E01D80020F8BD02244B
:1058700021462846FFF7DDFE30B1411CE5D0012866
:1058800021D0B442EBD1F0E76FF0704221462846B8
:10589000FFF761FFA8B957B96B692C615A1C0ED08C
:1058A000013B6B616B7943F001036B7107E02246AA
:1058B00039462846FFF74FFF0028EDD001E020468B
:1058C000F8BD0128C1D00120F8BD2DE9F843C688F4
:1058D00004460136B3B20F4613B90420BDE8F8837D
:1058E0000369002BF9D016F00F0859D1C1680133B4
:1058F0000361006819B903899E42EED250E08378B3
:10590000013B13EA16134BD1FFF793FE012805461E
:1059100002D80220BDE8F883421C02D10120BDE874
:10592000F883206883699D4234D3002FD5D0E16885
:10593000FFF77AFF054600283BD00128E9D0431C39
:10594000ECD02068FFF7A2FC07460028E6D12068CB
:105950004FF4007239463430FFF7DFFB22682946E6
:105960001046FFF75BFE4FF00109106323689A7839
:1059700097420CD283F804902068FFF787FC002838
:10598000CCD122680137136B01331363EEE71A6B36
:10599000D71B1F63E56029462068FFF73FFE2061A3
:1059A0002368E680343303EB481363610020BDE8CD
:1059B000F8830720BDE8F8832DE9F74F4FF6FF790C
:1059C0004FF0FF0806464446A0F820903169306841
:1059D000FFF79CFC00287BD175692B78002B6ED0DB
:1059E000E52B60D0E97A0F0701F03F0202D50F2ABC
:1059F00059D101E00F2A42D1D6F81CB0BBF1000FFB
:105A000056D0580605D503F0BF04F3886A7B33846B
:105A100002E0A3424BD1424695F80D80904545D116
:105A20002F78012027F040077B1E0D275F434FF0A2
:105A3000000A294B1AF80320AA5A88B11046FEF72B
:105A400055FC7F2F019032D87A1C3BF8170000924A
:105A5000FEF74CFC0199814229D1009A174601E0DA
:105A60004A4524D10AF1010ABAF10D0FE1D12B7890
:105A700059062AD548B33BF8173033B317E024B999
:105A80002846FFF751FB40451BD0B369DA7AD207AD
:105A900009D405F10B00854215D015F8011B13F848
:105AA000012B9142F7D0A6F8209000E09046FF2409
:105AB00000213046FFF709FF002887D008E00420C6
:105AC00006E0204604E0002002E0013CE4B2EFE7FB
:105AD00003B0BDE8F08F00BF965202002DE9F74FEA
