:020000021000EC
:10000000E03F082095010100FB000100E100010034
:10001000090101001901010029010100000000008F
:10002000000000000000000000000000F1AA010034
:10003000390101000000000051AB0100590101002D
:1000400031B1010031B1010031B1010031B1010024
:1000500031B1010031B1010031B1010031B1010014
:1000600031B1010031B1010031B1010031B1010004
:1000700031B1010031B1010031B1010031B10100F4
:1000800031B1010031B1010031B1010031B10100E4
:1000900031B1010031B1010031B1010031B10100D4
:1000A00031B1010031B1010031B1010031B10100C4
:1000B00031B1010031B1010031B1010031B10100B4
:1000C00031B1010031B1010031B10100B063020072
:1000D00000C00720F4020000F8C20720E00400007E
:1000E00004207146084203D0EFF309800BF03EB8BC
:1000F000EFF308800BF03AB8704708B5014807F0F5
:10010000A3FCFEE75E5D020008B5024807F09CFC18
:10011000FEE700BF695D020008B5024807F094FCE5
:10012000FEE700BF745D020008B5024807F08CFCD2
:10013000FEE700BF7F5D020008B5024807F084FCBF
:10014000FEE700BF8C5D020008B5024807F07CFCAA
:10015000FEE700BF9A5D020008B50AF07FFC0AF0D6
:1001600019FDBDE808400AF08DBC0B4610B5401AD9
:100170005C1AA24203D9C45843F8044BF8E710BDF7
:10018000034610B500221C1AA14202D943F8042BE1
:10019000F9E710BD16480AF09FFD15480AF09FFDCB
:1001A000144C154DAC4201D3144D07E094E8030004
:1001B0000C3454F8042CFFF7D8FFF3E7AC4206D216
:1001C00054F8080B54F8041CFFF7DAFFF6E70CF0BC
:1001D0000FFC0AF09BFD01F0D9FD02F075FD4FF414
:1001E00016400BF0E1F8064807F02EFCFEE700BFD2
:1001F000E03F0820CC000100D8000100E000010031
:10020000AE5D02000AF088BC0AF096BC144B10B533
:100210001A68014612B94FF080521A60114C1868E2
:100220002468421894421A6007D20F4CA24204D8A4
:100230000E4A0B488C18046010460D4A1B68126861
:10024000934222BF064B00201A6039B1094A136855
:1002500001331360084B1860084B196010BD00BFD4
:10026000FCC2072004C30720FFBF0720D8C7072010
:1002700008C307200CC30720F8C2072000C30720CB
:100280000CF0EEBC0CF0F4BC0CF0F2BC30B5044643
:100290008BB068460CF0A0FF224B079A2360089BA6
:1002A000214DA36062602149214B52B90A68186848
:1002B00082428ABF02F1604202F17042A2F5E82256
:1002C000626062681B68B2F5803F82BF02F17042D3
:1002D000A2F5E82262600022E2600A68934206D337
:1002E000991AC5F1005303F504230B440BE0114B9D
:1002F0001B68934208D9991AC5F1005303F5F823F6
:100300000B44002B00DDE36020460B4BE2611B68D1
:10031000A3610A4B1B686361094B1B6823610BB027
:1003200030BD00BFD8070000D8C70720FCC2072097
:1003300004C3072008C30720F8C2072000C3072012
:100340000CC30720034A044B1A60044A044B1A608A
:10035000704700BF0080001004C307200040082041
:1003600008C30720014B1860704700BF14C3072063
:10037000014B1860704700BF10C3072008B5024842
:100380000DF0D2FEFEE700BFF434020008B50248CB
:100390000DF0CAFEFEE700BF0E35020000207047D8
:1003A00001207047F8B5084B16461A680F461C46E0
:1003B00042B10D46EB1B9E4204DD236815F8010B8C
:1003C0009847F7E73046F8BD14C30720F8B5094B46
:1003D0000F46186816461C4658B10D46EB1B9E4248
:1003E00005DD23680020984705F8010BF6E726EAAB
:1003F000E670F8BD10C30720704700207047FFFF6C
:10040000074B1B689A68824207D05A68824204D020
:10041000DB681B1A5842584170470120704700BFE3
:1004200038C10720002070470020704730B50446CF
:100430008DB0A8B3684608F0F7FB9DF800300025A2
:1004400003F03F0303939DF8013003A803F03F033B
:1004500004939DF802300B9503F01F0305939DF85C
:10046000043003F01F0306939DF8053003F00F03DB
:10047000013B0793BDF80630C3F30B03A3F26C7383
:1004800008939DF8033003F007030993BDF8083083
:10049000C3F30B03013B0A930CF02CFD84E821000D
:1004A00000200DB030BDFFFF70B50F4D0F4E2C6812
:1004B00014F0010415D128460BF016FB88B14FF457
:1004C0000E70FFF7DDFE302380F835323A2380F8D6
:1004D000344280F8363280F83742306028460BF0DC
:1004E0000FFB306870BD00BF30C3072034C3072046
:1004F00070B50F4D0F4E2B6813F0010416D128462E
:100500000BF0F2FA90B14FF40E70FFF7B9FE012331
:1005100080F83432312380F835323A2380F836328D
:1005200080F83742306028460BF0EAFA306870BD38
:1005300028C307202CC307202DE9F04FADF51B7D04
:100540000F4607F0A5FE041E04DD0AF04FFA204610
:1005500009F092FF0DF114094C462A4D4FF0640B3F
:100560000FCD0FC42B6804AA2360102100240AA811
:1005700004940AF03FF9244A82462449384608F098
:10058000C3FD26460AAD4FF00008D0451CD06B696C
:10059000A34215D1AA69049B16441BB1B3FBFBF31C
:1005A000B2FBF3F3297B039202932B8C00949B0004
:1005B000019359F821306A681549384608F0A4FDBE
:1005C00008F101082435E0E701340A2CDAD1049B54
:1005D00064229E1BB3FBF2F30E49B6FBF3F30E4A03
:1005E0000096384608F090FD09F01AFE102804D94C
:1005F00010220A49384608F087FD01200DF51B7DC1
:10060000BDE8F08F28350200473502004C35020066
:10061000733502009B35020090350200BA350200A6
:1006200010B50C46ADF5007D68460AF007FD204682
:100630004FF0FF32694608F031FD01200DF5007DD5
:1006400010BDFFFF30B50C4691B02C49054607F0B0
:100650002BFD002847D00CAB04930BAB03930AABE4
:10066000029309AB019308AB009306AA07AB244998
:10067000284607F081FC072801D000203BE09DF8C8
:100680003930069A0DA862F303038DF83930079AC2
:100690009DF8383062F304038DF83830089ABDF8BD
:1006A0003A3062F30B03ADF83A30099A9DF83630D0
:1006B00062F304038DF836300A9A9DF8353062F300
:1006C00005038DF835300B9A9DF8343062F305033D
:1006D0008DF834300C9A9DF8373062F302038DF8B0
:1006E000373008F0C9FA08F063FB06490246204695
:1006F00008F00AFD012011B030BD00BFE435020052
:10070000E8350200BE550200F7B50D464E490446D5
:1007100007F0BAFD064640B107F02EF84FF0FF3261
:100720004A49284608F0BAFC8BE04949204607F0C0
:10073000ABFD60B307F044F846490246284608F08E
:10074000E3FC07F049F844490246284608F0DCFC7F
:1007500007F03CF841490246284608F0D5FC3046EF
:1007600007F024F80446012007F020F8064602208E
:1007700007F01CF80746032007F018F800970190CF
:10078000334622463649284608F0BEFC59E0354932
:10079000204607F089FC50B120220121204607F0B5
:1007A00021FD204607F072FD07F02EF949E02E49A1
:1007B000204607F079FC064620B92C49204607F070
:1007C00073FC60B32A49204607F05CFC60B92949F4
:1007D000204607F057FC28B92046274907F052FC6D
:1007E000044602E0032400E002243146204607F0DC
:1007F00063F8224A224B002E18BF1A463CB1012C46
:1008000007D01C491A4B022C18BF0B4602E01D4BA7
:1008100000E0194B1C49284608F076FC11E0204600
:1008200007F034FD194A1A490090F323012007F01C
:1008300051F8204607F02AFD16490246284608F0DE
:1008400063FC012003B0F0BD23360200293602000C
:1008500042360200493602005E360200733602005C
:1008600092360200C2360200C6360200CE360200C0
:100870001E36020018360200124802000936020035
:100880000136020012360200D73602003C35020063
:10089000F03602002337020030B589B004AB0024E3
:1008A00000930D4603AB022218490394049407F009
:1008B00071FB022827D107AB009305AA06AB049968
:1008C000039805940694079403F062FC024638B13D
:1008D000049B0F4900932846039B08F015FC10E089
:1008E000059A069B002A079908BF0122002B08BF22
:1008F0000123B1FBF3F3B1FBF2F22846054908F0FE
:1009000003FC012000E0204609B030BDB2470200E0
:1009100031370200503702002DE9F0470E46ADF5A1
:10092000856D3949054607F049FC38490746284690
:1009300007F06DFC3549284607F089FC284607F08A
:10094000A5FC0122014681A805F06CFC044640B1DB
:10095000284607F09BFC2E490246304608F0D4FB9F
:100960004CE00DF1040A01464FF4007250460CF0C1
:10097000DCF900940AF04CFB804689466B464FF444
:100980000072514681A805F0E7FC08B9009B23BB23
:1009900081A805F0B0FECFB10AF03AFB4FF47A72AD
:1009A00000230BF09DFD002305464FF47A7240466C
:1009B00049460BF095FD281A14BF03460123B4FBEA
:1009C000F3F322461349304608F09EFB4FF0FF3206
:1009D0001149304608F062FB10E01C44002FCDD1D5
:1009E0003D46009B9D42C9D233681AF805105B68EA
:1009F0004FF0FF32304698470135F2E701200DF500
:100A0000856DBDE8F08700BF7E370200B247020067
:100A1000873702009B370200293D02002DE9F0478D
:100A20000023BEB00C46534905460C9307F02CFC3E
:100A300020B9284607F02AFC064600E04E4E314613
:100A400015A805F011FF054630B1034632464B4963
:100A5000204608F059FB89E032464949204608F013
:100A600053FB2F460DF1780880230DA915A8CDF86A
:100A70004C80149305F03CFF002861D19DF83D3077
:100A8000002B5DD09DF83C100DF13D00CA065BBF08
:100A90000D9B0C9A44229B185BBF0C932D220135B1
:100AA000013711F0010F14BF52232D23BDF83AA0D6
:100AB00011F0020F09900D9814BF4FF0480E4FF03F
:100AC0002D0E11F0040F14BF4FF0530C4FF02D0CEE
:100AD000089011F0200FCAF34510BDF838100790A8
:100AE0004FEAEA20069001F01F000590C1F3431081
:100AF0004FEA612114BF4FF041094FF02D0901F277
:100B0000BC71CDF804C0CDF800E004900391CDF89D
:100B100008901C49204608F0F7FA4FF0FF321A49B6
:100B2000204608F0A7FA41464FF0FF32204608F071
:100B3000A1FA4FF0FF320F49204608F0AFFA91E7D3
:100B40003A46124900950C9B204608F0DDFA0BAAA4
:100B50000CA9304605F0FBFE40B90B9B0C499A7876
:100B60000C9B20465A43520808F0CEFA01203EB0B2
:100B7000BDE8F087293D0200B6370200B937020010
:100B8000DD370200F837020025380200293802005C
:100B90005338020070B50C46064607F077FB054651
:100BA000304607F073FB05F094FF064A064B0749F1
:100BB000002808BF13462A46204608F0A5FA01205F
:100BC00070BD00BF093A0200133A02006738020004
:100BD00070B50C46064607F059FB0546304607F04F
:100BE00055FB05F019FF064A064B0749002808BFC8
:100BF00013462A46204608F087FA012070BD00BF40
:100C0000093A0200133A0200833802007FB503ABB1
:100C1000002400930E4602AB02220F490294039473
:100C200007F0B8F9022814D1029C039D20462946FA
:100C300005F0F8FF094B0A49224600280CBF084678
:100C400018462B4600900749304608F05DFA01200F
:100C500000E0204604B070BDB2470200133A020023
:100C6000093A02009538020030B5ADF50D7D0C460D
:100C7000054607F00BFB0A22014603A805F0D2FA4D
:100C800040B1284607F002FB1F490246204608F003
:100C90003BFA34E08DF8070002901C4942F21073D1
:100CA0007E22204608F030FA1949204608F02CFA36
:100CB000236842F210721B680DF107012046984725
:100CC00018B19DF807307E2B03D103A805F013FD62
:100CD00015E002AB01220DF1070103A805F0F4FBBA
:100CE00058B9029B012B08D123684FF0FF325B6893
:100CF0009DF8071020469847DAE70649D5E7012016
:100D00000DF50D7D30BD00BFAD380200D4380200B6
:100D10000C3902002C3902002DE9F04FADF5417D70
:100D2000002304AC236003930D46009403AB02221E
:100D3000414907F02FF9022806D04FF0FF323F4912
:100D4000284608F0ABF972E0216817A805F08CFD81
:100D500010B122683A4906E0039917A805F084FD0E
:100D600028B1039A3749284608F0CEF95FE04FF4DE
:100D700080720DEB020105A807F0CEF84FF48072E7
:100D800080A90AA807F0C8F820AE80270FA917A8E5
:100D90001596169705F0ACFD002842D19DF8453018
:100DA000002B3ED09DF8443003F0100303F0FF0AFF
:100DB000002BEBD10DF14503039A234905A807F059
:100DC000AFFA0DF1450322681F490AA807F0A8FAF7
:100DD00005A807F05BFA07460AA807F057FA80460D
:100DE00005A8DDF83C9007F051FA83460AA807F001
:100DF0004DFA534652460146CDF800A0584603F03E
:100E0000C7F9124A124BCDF8009000280CBF1846C3
:100E100010461049019043463A46284608F074F9B6
:100E2000B3E70AA807F08DF805A807F08AF80120B3
:100E30000DF5417DBDE8F08FB24702005339020045
:100E400098390200BD390200DD390200133A020070
:100E5000093A0200E3390200F8B50D462449064676
:100E600007F012FA0446074618B1FFF741FB0022CB
:100E700008E02049304607F007FA044660B1FFF762
:100E800013FB3A46114600F2352005F05BFF4FF0A8
:100E9000FF32194B194922E01949304607F0F4F99D
:100EA000044658B1FFF724FB012200F2352105F07A
:100EB0007BF94FF0FF32134B134910E013493046D2
:100EC00007F0E2F9044680B1FFF7EEFA012200F2E2
:100ED000352105F069F90E4B0E494FF0FF3200281D
:100EE00018BF1946284608F0D9F82046F8BD00BFBB
:100EF0006A3A0200743A02000C3A0200023A020016
:100F0000813A0200293A0200193A02008A3A0200A4
:100F10004E3A0200403A020008B508464FF0FF3250
:100F2000084908F0BBF806F027FC4FF4FA6009F016
:100F3000A3FA4FF08043AA221A7200221A700120ED
:100F400008BD00BF963A020010B501200C4606F01D
:100F5000D7FF40B100231A46194608F09FFD4FF015
:100F6000FF32054902E005494FF0FF32204608F004
:100F700095F8012010BD00BFA73A0200BD3A02005B
:100F800038B5064C236833B91C20FFF779F90546BC
:100F900007F052FD2560206838BD00BF20C3072040
:100FA0002DE9F04F5F4C91B023680E4633B92C20E9
:100FB000FFF766F9054607F0D3FF25602768FFF7BE
:100FC00073FA00240CAA0DA900F235200D9405F047
:100FD000BEFC48B90C9A0D9C95699378023D5C4320
:100FE0005D4364086D0800E025464F4B1A6898463B
:100FF0007AB90C20FFF744F98146FFF7C1FF90232F
:1010000089F804300023C9F80000C9F80830C8F88E
:101010000090D8F8000003F0A9F881460BF01AFA06
:101020000A900BF073F8014648460AF0B9FF3F49B1
:101030000BF0C0F80BF00EFA81460DA809F05CFE2B
:1010400003F0EAFF68B307F02DFF03F0CFFF4FF086
:10105000000A0346D346D0469A450B930BD0504620
:1010600004F028F8804538BFD3460B9B38BF804634
:101070000AF1010AF0E707F02DFF642303FB08F3F0
:101080002B4ACDF80880B3FBF2F3C3F1640300935D
:10109000CDF804B02B4622462649304608F034F8F5
:1010A00005E02B4622462449304608F02DF8234C13
:1010B00023681BB90120FFF7E3F82060206803F0E4
:1010C00019F8044607F074FEFB8C0A9A0993BB8C4E
:1010D0001B4908939DF83430019003F03F030793B8
:1010E0009DF83530009403F03F0306939DF83630A9
:1010F000304603F01F030593BDF83A30C3F30B03EA
:1011000004939DF8383003F01F0303939DF83930A2
:1011100003F00F0302934B4607F0F6FF012011B0D6
:10112000BDE8F08F24C3072018C30720000020412A
:10113000A0860100F63A02002A3B02001CC30720E9
:10114000383B02002DE9F04F0D46C7B055498146A6
:1011500006F0C1FF54498246484606F0BCFF534999
:101160008346484606F0B7FF00270DF1100805AE8C
:10117000044602970397C8F800703760BAF1000F71
:1011800045D0009603AB02AA4949484606F0F4FE52
:10119000012807DC28464FF0FF32464907F07EFF62
:1011A00038467CE00DF118084FF480742246394629
:1011B00040460BF0BAFD336813B90123336003E0F6
:1011C000B3F5807F88BF3460FFF7DAFE33689DF89F
:1011D0000C209DF808100093434608F05BF8364A4F
:1011E000364B3749002818BF1346029A284607F0A5
:1011F0008BFF002433689C424ED2039A18F80430C7
:1012000022443049284607F07FFF0134F2E7BBF162
:10121000000F2CD0CDF8008003AB02AA2A49484623
:1012200006F0AAFE032807D028464FF0FF322749D0
:1012300007F034FF504632E0FFF7A2FE98F8003086
:101240009DF80C209DF8081008F039F848B1039B70
:101250001F490093D8F80020029B284607F054FF4E
:101260001AE0029A1B49284607F04EFF14E0A8B185
:1012700002230293029BFE2B10DCFFF781FE9DF8F8
:10128000081008F027F820B1029A1349284607F001
:101290003BFF029B0233ECE7012000E0204647B011
:1012A000BDE8F08FD1480200A13B0200A73B02003D
:1012B000B03B0200BF3B0200093A0200133A0200B1
:1012C000E03B0200043C0200143C0200243C02000B
:1012D0004B3C0200653C0200823C020070B5ADF55B
:1012E0000A7D05460C4606F03EFE0B2802DD0C2268
:1012F00022493CE0284606F0C9FF0122014601A828
:1013000004F090FF064668BB01A805F0F4F92846F2
:1013100006F0BCFF1A490246049B204607F0F4FE83
:10132000236820469B6898470A2009F0A5F84FF0EB
:10133000100383F31188BFF36F8FBFF34F8F2846DD
:1013400006F0A4FF02460F4B0068516803C3906883
:101350000D4A186043F80C2C4FF08043AA221A72F1
:101360001E7007E0284606F091FF02460749204616
:1013700007F0CAFE01200DF50A7D70BDBC3C0200DD
:10138000E33C0200484002400DD0ADDE2A3D0200A1
:101390002DE9F041404CA4B023680646DB070D461A
:1013A0000CD420460AF0A0FB40B14FF480600BF053
:1013B00057FC3A4B186020460AF0A2FB38493046E9
:1013C00006F089FE0746044600B38022002104A8E7
:1013D0000BF0ABFC00230293039303AB009304AA2E
:1013E00002AB3049304606F0C7FD2C49029B039AF8
:1013F000096804A813B902F067FF01E002F086FF54
:10140000294B2A49002818BF194638E02849304698
:1014100006F061FE074600283AD004AB304603AA26
:101420002449039404948DF8084006F0A5FD039E1A
:10143000049B3344B3F5806F02DCDFF860800CE07E
:101440004FF480621C4920E0D8F800309DF8082055
:101450009A559DF8083001361C44039B049AF31AF0
:10146000934210DAB6F5806F0DDA2B684FF4FA620A
:101470001B6802A9284698470028E5D10F4928464D
:1014800007F042FE04E022460D49284607F03CFEE4
:10149000384624B0BDE8F0813CC3072038C307209C
:1014A000553D02005C3D0200433D02003F3D02000D
:1014B0006C3D0200733D02007D3D0200A13D020033
:1014C000B13D020038B50D4606F0E2FE0446C0B25A
:1014D00001F01CFE054A064B0649002818BF1346BA
:1014E0002246284607F010FE012038BD093A0200C6
:1014F000C23D0200C93D020030B50C46054687B02A
:101500000A4907F001FEA188238804912189628895
:101510000391E18828460291E17A0191A17A009134
:10152000034907F0F1FD07B030BD00BFE03D020008
:10153000163E02002DE9F0418CB003AB002600936B
:101540000D46904602AB022238490296039606F0F9
:1015500021FDB04266DD02980BF059F9C7B203983D
:1015600018B10DF0E3F8C4B200E00446002104A86D
:1015700002F06CFC30B14FF0FF322D49284607F0E5
:101580008DFDF3E7022318F100010093039A23462F
:1015900018BF0121384601F0FDFE064638B94FF06C
:1015A000FF322449284607F079FD01263AE0B8F1D8
:1015B000000F37D04FF47A7104A802F04FFC60B3EB
:1015C0009DF81030BB4228D19DF817300C2B04D168
:1015D0003A4606A92846FFF78FFFBCB916492846A8
:1015E00007F092FD9DF817309C420ADA04AB1919F6
:1015F0002B684FF0FF325B68097A28469847013420
:10160000F0E70E49284607F07FFD0BE04FF0FF3270
:101610000B49284607F042FD04E0029A0949284692
:1016200007F072FD30460CB0BDE8F081B247020011
:10163000343E0200563E02007E3E0200AB440200F1
:10164000923E0200AF3E02001FB501A80C4602F018
:101650007FF801F067FD01A902462046FFF74CFF25
:10166000012004B010BDFFFF30B58BB00AAA4FF4C3
:101670007A730C4642F8243D174906F07DFC00259C
:10168000019902A802F0E2FBD8B19DF808201349A5
:10169000204607F039FD00259DF80F309D420ADAFB
:1016A00002AB591923684FF0FF325B68097A204674
:1016B00098470135F0E70A49204607F025FD012546
:1016C000DEE72DB94FF0FF320649204607F0E6FC71
:1016D00001200BB030BD00BF7A3D0200D53E0200B4
:1016E000283D0200EC3E020037B50C4601F094FEA6
:1016F00005461649204607F007FD15492A462046AB
:1017000007F002FD1149204607F0FEFCD5B1114952
:10171000204607F0F9FC0D49204607F0F5FC0025AE
:10172000E8B201F063FE013540B181784378027878
:1017300000912046084907F0E7FCF1E703492046FD
:1017400007F0E2FC012003B030BD00BFFD3E020007
:10175000183F0200323F02004D3F02002DE9F347DF
:101760003C4C074626688946002E62D12420FEF7AD
:1017700087FD0423054680E848008660C660202176
:1017800030460CF03BFDAE68E8604FEA8608072E55
:101790000ED81020FEF774FD8246102200210BF0B7
:1017A000C4FAEB68013643F808A008F10408EEE734
:1017B000002608236B604FF00108274B274A284971
:1017C0002846009685F82080256005F047FD254BCA
:1017D000254A26492068009605F040FD244B254AFD
:1017E00025492068009605F039FD244B244A2549F7
:1017F0002068009605F032FD234B244A24492068D6
:10180000009605F02BFD234B234A24492068CDF890
:10181000008005F023FD224B224A204920680096D3
:1018200005F01CFD0096204B204A2149206805F058
:1018300015FD2049384606F027FD18B11E493846E7
:1018400006F0DCFD4A463946206802B0BDE8F047A4
:1018500005F0E4BD44C30720683F0200A23F020038
:10186000091B0100A93F0200FD3F0200DD18010035
:101870000640020029400200691601002C400200C7
:101880008B450200C5140100564002007240020060
:10189000E916010079400200E04002003515010020
:1018A000BA400200DF400200E4400200FF400200B4
:1018B00049160100293D02000541020038B5064CD9
:1018C000236833B95820FEF7DBFC054607F08CF996
:1018D0002560206838BD00BF40C307202DE9F04FC8
:1018E0000446ADF2DC5D802288460DA800210BF095
:1018F0001CFA802200212DA80BF017FA06AE002357
:1019000033600DAA00962DAB7549204606F034FBD6
:10191000032801D00020DFE001220DA9EDA804F08A
:1019200081FC05460028F5D1FFF7C8FF3368802207
:1019300080F853304DA9044608A88DF81750079534
:1019400006F0EAFA2DAB009333680DAA65494046CC
:1019500007F0DAFBA94607AE33464FF400726DA9D3
:10196000EDA804F0F9FC002840F0AF803368002BAC
:1019700000F0AB806F1C32685B49204607F0C4FB67
:10198000236820469B6898477D1E0DF5DA7B4FF053
:10199000000A6DAB3268C3EB0B039A4223680CD983
:1019A000CDF80CB05B684FF0FF321BF8011B2046EE
:1019B0009847039B1B789A44EBE79B68204698471F
:1019C00008A806F063FC834608A806F0CFFA4FF497
:1019D0007A7302465946204607F06EFB2022012109
:1019E0000DEB020006F0FEFB08A806F051FC824554
:1019F00020D008A806F04CFC524603463B4940461E
:101A000007F082FB3A49204607F07EFB2368204618
:101A10009B68984723684FF47A721B680DF1170191
:101A2000204698470028F5D1022F07F101034CD832
:101A30001F46A0E733682DAA2E49009320464B4647
:101A400007F062FB236820469B68984708A806F0C9
:101A50001DFC824608A806F089FA514602464FF45A
:101A60007A73204607F028FB234908A806F00AFBF2
:101A7000D0B908A806F00AFC20490246404607F003
:101A800043FB1B49204607F03FFB236820469B6829
:101A9000984723684FF47A721B680DF117012046AE
:101AA00098470028F5D1BFE7154908A806F0A6FC1D
:101AB0003368144999444A46F09B404607F024FB9A
:101AC000002D3FF448AFBD1E45E7EDA804F013FE1E
:101AD00008A806F036FA01200DF2DC5DBDE8F08FB3
:101AE0000A41020019410200304102004241020055
:101AF000283D0200694102007F410200824102004C
:101B0000293D0200BA4102002DE9F047074686B0A0
:101B100006AA002442F80C4D0E463D4906F02CFA68
:101B200020220121384606F05DFB039B002B65D087
:101B3000384606F018FA002860D0FFF7BFFE0546C9
:101B40000DF1180808F80D4D2B6805221B68414659
:101B50002846984704460028F6D1039B384685F866
:101B6000533006F093FB274601464FF0FF322846DC
:101B700007F094FA2B6828469B689847254B0DF18F
:101B80001809186849F8044D04902B684FF47A72CC
:101B90001B68414628469847D0B103220DF1150134
:101BA00048460BF0A7F89DF80BA0042204A948466C
:101BB0008DF817A00BF084F850B1336801225B68F0
:101BC00051463046013798470028DED10134DCE722
:101BD0001822B7FBF2F302FB137202B101333A464B
:101BE0000D49304607F090FA74B161230093224604
:101BF0000A4B0B49304607F087FA05E04FF0FF32F9
:101C00000849304607F04AFA012006B0BDE8F087DF
:101C10007A3D0200BE3D0200C6410200ED410200D5
:101C200029420200E242020001480CF07DBA00BFE6
:101C30000E43020038B504460D4609F063FB074B1E
:101C4000B0FBF3F00223B0FBF3F2AA4204D9B3F5E0
:101C5000807F01D00233F6E7236138BD40420F0098
:101C60007FB500F235260C460122314604F09CFA7D
:101C7000054648BB039002AA03A9304604F067FE5C
:101C800000BB0298039A837802FB03F18269134830
:101C9000023A5A435208B2F5004F38BF0120104BA8
:101CA0004FEA510124BF03464FF48060B1FBF0F1CD
:101CB000B2FBF0F20091019321460A480CF0C2F900
:101CC000012008E0084B00E0084B2A46214608485E
:101CD0000CF0B8F9002004B070BD00BF4C43020006
:101CE0004943020056430200524302004F430200A0
:101CF0008443020038B5074C23684BB90820FEF72F
:101D0000BFFA0546FFF73CF9402328602B71256098
:101D1000206838BD50C3072038B5054C256825B963
:101D20000120FEF7ADFA05702060206838BD00BFC5
:101D30004CC3072038B5084C23685BB90C20FEF76C
:101D40009FFA0546FFF71CF990232B7100232860AA
:101D5000AB602560206838BD18C3072010B5044C5F
:101D600023681BB90120FEF78BFA2060206810BDA4
:101D70001CC3072010B5044C23681BB90120FEF7D3
:101D80007FFA2060206810BD48C30720AD49AE4AE5
:101D90004023F0B58B614FF0007393614FF48033B3
:101DA0008B61AA4BADF5057D1868072520F0F00082
:101DB00018601868022440F050001860186820F479
:101DC00040501860086840F040000860186820F42F
:101DD0007C201860186840F428201860186820F4E7
:101DE00070001860186840F420001860186820F02F
:101DF00040401860186840F000401860586820F0B3
:101E00003C005860586840F028005860586820F03E
:101E100003005860086840F480300860586820F477
:101E200040505860086820F480000860D96821F4A8
:101E30004031D960116841F080711160596821F416
:101E400040215960596841F480215960986880495F
:101E500001409960116841F4897141F001011160FC
:101E6000996821F470119960996821F07041996026
:101E7000116821F446411160D96821F03001D96020
:101E8000D96841F03001D960D96821F47011D96066
:101E9000136843F000731360136823F080631360CA
:101EA00006F00AFB01210A2009F04CF801210A2062
:101EB00009F060F86748012105604460FFF7BAFE49
:101EC00006F080FF0121152009F03CF801211520C2
:101ED00009F050F86048012105604460FFF7AAFE50
:101EE000FFF74EF8642106F073FD10B95B480CF063
:101EF0001BF909F063F801F083FF10B958480CF0A2
:101F000013F94FF4FA6006F090FAFFF78DFE09F02E
:101F1000F9F90AF0F7F853490AF000FA09F078FFE6
:101F200002460B4650480CF08DF808F0DFFE0528FD
:101F300004AC14D1002363604C4B1B682360FFF793
:101F400073FE4B4B4B48D96C1A6D5B6D00940CF0D3
:101F500079F8FFF769FE41F2883006F066FAFEF77D
:101F6000A3FA4549FFF77CFE054668BB43480CF0E1
:101F700069F803F0C9F8FEF797FA29462A4600F2F5
:101F8000352004F0DFFE3E4B3E4A00280CBF1046D1
:101F900018460CF0C9F8FEF787FA3749FFF760FEDC
:101FA00090B939480CF0C0F803F030F801463748D2
:101FB0000CF048F803F01AF8054603F027F800FB88
:101FC00005F133480CF03EF8324E334F336813F0CE
:101FD000010516D1304609F087FD90B14FF40E701F
:101FE000FEF74EF9012380F83432312380F8353280
:101FF0003A2380F8363280F837523860304609F09C
:102000007FFD26493868264DFFF72AFE1821114822
:10201000FFF710FEFFF708FE2B684BB90820FEF70C
:102020002FF90646FEF7ACFF3823306033712E607F
:10203000286801F05CFF0546B0BB1A480CF074F844
:1020400033E000BF00C0092020C0092000C00240CA
:10205000F0FCFCFF0000034000800840C843020081
:10206000F9430200002474491E4402004440024027
:102070000040024036440200AE440200B644020072
:10208000BC430200B7430200F344020012450200C1
:102090002145020028C307202CC30720383A02003C
:1020A00058C307203C4502000125FFF743FE02F01C
:1020B00033F8064618B972480CF036F83546FFF783
:1020C00019FE01F097FF064618B96E480CF02CF87F
:1020D00035466D4E33681BB90120FEF7D1F83060EC
:1020E000306801F055FFFFF739FE02F001F8FFF705
:1020F00013FE01F0B8FFFFF73DFE01F0FEFFFFF712
:102100000BFE002101F0B2FF8DB9FFF78DFDFFF747
:10211000F1FD2D2101F056FFFFF7ECFD2D2101F01F
:102120005DFFFFF7F9FDFF2101F0A0FF0CE0FFF7D5
:10213000E1FD0546FFF7FEFD02F018F80AF0B0F9E0
:10214000C1B2284601F072FF1022002120460AF099
:10215000ECFD00230F2221464C4802F093F880B991
:1021600020460AF054FBC5B2284600F0CFFF484A8B
:10217000484B2946002818BF1346444A46480BF0EE
:1021800061FFFFF7EBFD01F0B5FF054600200DF004
:1021900059FA28440BF0D0FF4FF40072002120467A
:1021A0000AF0C3FD204608F049FF21463B480BF0EA
:1021B00049FFFFF739FD8022002120460AF0B5FDD6
:1021C000204602F0FFFE2278FF2A04D02146344840
:1021D0000BF038FF29E0FFF7CDFD01F091FF092852
:1021E0001DD130480BF0A0FF21462F480CF0B0F86D
:1021F00021462E480BF026FF2D480BF095FF0023BB
:1022000003A92C4803930CF0A3F89DF80C30592B2C
:1022100003D1204602F0B4FE07E0274803E0274838
:102220000BF082FF26480BF07FFF4FF208031D687A
:102230004FF20C031C684FF210031E684FF47043FA
:102240001A684FF20403AD0A1968A40A1D480BF07E
:10225000F9FE2A4621461C480BF0F4FE31461B4885
:102260000BF0F0FEFFF7E0FC012005F0BBFA184888
:102270000BF05AFFFFF7D8FC0DF5057DF0BD00BF50
:10228000574502007145020054C307208A450200E9
:10229000C2430200C23D020090450200BE5502004A
:1022A000C4450200E0450200024602000746020063
:1022B000224602006546020069460200814602008D
:1022C000AF460200E14602000D4702003A47020015
:1022D00057470200012070470120704701207047D6
:1022E00010B5044C23681BB90120FDF7C9FF20601D
:1022F000206810BD54C307200120704738B504463C
:102300000F4B00250360636DE06DAB4205D950F8BB
:102310002500FDF7B7FF0135F5E708B1FDF7B4FF7C
:102320000025A36B206CAB4205D950F82500FDF7C2
:10233000A9FF0135F5E708B1FDF7A6FF204638BD36
:102340009047020010B50446FFF7D8FF2046FDF77E
:1023500099FF204610BD2DE9F04104460E46C068A5
:1023600089000BF04BFFA568E060AF004FF000085C
:10237000AE420DD90C20FDF783FFE368C0F8008062
:10238000C0F8048080F808800135D8510437EFE7A1
:102390006660BDE8F081FFFFF7B5044600250B46F7
:1023A0004FF480520095254905F090FD244B0426FA
:1023B00023606663A563E5632564022104F13400AC
:1023C000FFF7C9FF26656565A565E56528466021B7
:1023D0000BF014FFA56DE065AE00172D0CD8102092
:1023E000FDF74EFF0746102200210AF09EFCE36D28
:1023F00001359F510436F0E718236365012384F803
:102400007030104E0023A4F87430A4F87630A3671F
:10241000002200230027C4E92023C4E9226708F032
:10242000F7FD4FF47A7200230AF05AF880197941C7
:10243000C4E92001204603B0F0BD00BFA847020058
:1024400090470200C0D401002DE9F0410F7A1446F4
:102450004D680E688FB1082A23D1284605F083FD08
:1024600000281CDD4FF0FF321349304606F002FE13
:102470000121284605F076FE08E00A2A19D00D2A27
:1024800012D02146284605F08EFF97B133682146C9
:102490003046BDE8F0415B684FF0FF321847072433
:1024A000F4E70A2A02D1F1E7BDE8F0810D2AEDD068
:1024B000E7E7BDE8F08100BFB1470200F8B5044688
:1024C000142015460F46FDF7DBFE8021064605F079
:1024D0001AFFA36BE26B9A4206D3616B591803D2C1
:1024E00004F13400FFF737FFE36B226C591C52F8FC
:1024F0002330E1631F605E601D72F8BD2DE9FF4768
:10250000CF6B06460D4601AC3FB94FF47A7007F029
:10251000B3FF01976760A76047E00B6C0DF11008EF
:102520001B6893E8070084E80700002308F80D3DC6
:1025300007F06AFE81460027EB6B9F4263D22B6C4B
:102540004FEA870A53F827301868037C002B34D0F1
:10255000036800221B684146984770B3EB6B9F42AB
:102560002DD22B6C53F80A3093E8070084E807005B
:102570009DF8032021462846FFF766FF08F048FD36
:102580004FF47A72002309F0ABFFD5E922238018BB
:102590005941C5E92001029805F0E5FC074602987B
:1025A00005F0E4FC013887420CDB94E8070086E87C
:1025B0000700304604B0BDE8F0870137BCE705F1FD
:1025C0004403D1E7D5E92223134324D008F020FDAA
:1025D0004FF47A72002309F083FFD5E92023994252
:1025E00008BF904217D308F013FD4FF47A7200230E
:1025F00009F076FFD5E92223801859410023C5E967
:1026000020010193D1E707F0FFFD8145C3D10220EE
:1026100007F032FFBFE79DF803300A2B88D1C4E7EB
:10262000F0B5054685B020480BF00CFD294601A801
:10263000FFF764FF019C1CB91C480BF075FD30E0EE
:10264000029E304605F08FFC00282ADD08F0E0FCF1
:102650000746F8B1B5F8743005F150000133A5F81C
:1026600074302246314604F0D9FE114B002518681B
:10267000009023681DF805105B684FF0FF3220467C
:1026800001359847042DF4D108F0C2FCC11B09485C
:102690000BF0D8FC304605F06BFC236820469B68A5
:1026A0009847012005B0F0BDB4470200293D020063
:1026B00084470200BA47020038B5064C236833B994
:1026C0002C20FDF7DDFD054606F04AFC256020685C
:1026D00038BD00BF24C3072010B50446FFF7ECFF48
:1026E00003682146BDE810405B684FF0FF32184791
:1026F00013B5002302AC04F8013DFFF7DDFF0368CA
:102700004FF0FF321B68214698479DF8070002B042
:1027100010BDFFFF2DE9F04100F150048AB0002503
:102720000646009520465B4B5B4A5C4904F096FDEB
:10273000009520465A4B5B4A5B4904F08FFD00959B
:1027400020465A4B5A4A5B4904F088FD00952046C2
:10275000594B5A4A5A4904F081FD00952046594B7D
:10276000594A5A4904F07AFD00952046584B594A77
:10277000594904F073FD00952046584B584A594971
:1027800004F06CFD00952046574B584A584904F018
:1027900065FD00952046574B574A584904F05EFDA9
:1027A00000952046564B574A574904F057FD00956F
:1027B0002046564B564A574904F050FD0095204696
:1027C000554B564A564904F049FD00952046554B55
:1027D000554A564904F042FD00952046544B554A4F
:1027E000554904F03BFD00952046544B544A554949
:1027F00004F034FD00952046534B544A544904F0EC
:102800002DFD00952046534B534A544904F026FDB4
:1028100000952046524B534A534904F01FFD009542
:102820002046524B524A534904F018FD0095524B32
:10283000524A5349204604F011FDFFF73DFF4FF483
:10284000807320224FF41641054606F069FB80464E
:1028500001272F744B48FDF78BFD4B48FDF782FD98
:102860003A4629463046FFF729FE082203A905A863
:1028700005F052FB05A8454905F0C0FD2A4605A90B
:10288000204604F0CBFD05A805F05BFB40460AB0EE
:10289000BDE8F081D047020012480200390501006E
:1028A0000748020017480200210601001F480200E5
:1028B0002D480200A10F01003448020075480200B3
:1028C000450601007A480200D648020019090100B5
:1028D000DA48020068490200990801001C49020018
:1028E00067490200190D01006B4902009949020075
:1028F0001D0A01009C490200C1490200950B01001C
:10290000C7490200F44902000D0C0100F74902001A
:102910003D600200690C01001C4A02003F4A0200AF
:10292000D10B0100424A0200154B02004511010083
:10293000194B02005C4B0200590E0100644B02006F
:10294000774B0200190F01007E4B02007D4C020004
:1029500009070100814C0200A94C0200490F010047
:10296000AF4C0200154402005D170100D94C020073
:10297000CD4D020091130100964D02007B3A0200FA
:10298000DD120100F1260100D926010005410200F7
:102990000A4B07B5186801F02DFB094BFA2118788E
:1029A00000230193009396231A4605F079FE054B08
:1029B0001870012003B05DF804FB00BF60C307205E
:1029C00064C307205CC30720012070471FB50B4B71
:1029D0004FF0FF326946187805F02AFF10B1084819
:1029E00005F041F8074C4121206801F0EBFA412144
:1029F000206801F0F3FA04B010BD00BF64C30720E3
:102A0000F44D020060C3072008B5FFF785F9BDE863
:102A10000840012101F058BB08B5FFF77DF9BDE87A
:102A20000840032101F050BB08B5FFF775F9BDE878
:102A30000840042101F048BBF8B50D4C236893B958
:102A40000820FDF71DFC0B4D06462B6833B91C20F2
:102A5000FDF716FC074605F0EFFF2F602B68266098
:102A60003360402333712268034B1A60F8BD00BF06
:102A700050C3072020C3072060C307207047FFF71B
:102A800087BFFFF7A1BF10B50446FDF7FBFB20464B
:102A900010BDFFFF70B50B4E05010B4B741953F8B9
:102AA0002010201D07F0BCFCE368A0689847A368CD
:102AB00070590133A36000231A46BDE870401946DF
:102AC00006F0ECBF68C30720B84E020008B500202E
:102AD000FFF7E0FFFBE708B50120FFF7DBFFFBE7AF
:102AE00008B50220FFF7D6FFFBE708B50320FFF784
:102AF000D1FFFBE7F7B507460D462D4A00240D230D
:102B000012682C49009405F0E1F92B4B87F83150FD
:102B10003B602A4D2A4B0322EB602A4B2146EB6196
:102B2000294B0120EB62294BEB6306F095FF032252
:102B300028602146012006F08FFF032228612146EC
:102B4000012006F089FF224B28621E680523C6F388
:102B50008F060093324623461E4901941E4807F013
:102B60000DFA06230093324623461C4901941C4863
:102B700007F004FA072300930194234632461949CB
:102B8000194807F0FBF997F8313073B10322214659
:102B9000012006F061FF0823286332460093019468
:102BA00023461249124807F0E9F9384603B0F0BD50
:102BB000084E02001C4E0200D04E020068C30720DF
:102BC000092A0100CD290100192A0100292A010042
:102BD000F04D0200234E0200CD2A0100274E0200D4
:102BE000D72A01002C4E0200E12A0100324E0200D9
:102BF000EB2A010038B517480C46415C002301312F
:102C0000C9B2914202D00155184638BD124D035544
:102C1000200128581A46194607F046F80546B0B96B
:102C20000E4B53F8244020460BF07EFA20460BF062
:102C30007DFD2B4602462146094801F067FB094A03
:102C4000094B9A644FF08043AA221A721D7001202A
:102C500038BD00BFA8C3072068C307200C4E020080
:102C6000394E0200EFBEADDE00400240044608B51A
:102C7000012007F001FC94F8313023B10122032137
:102C80002046FFF7B7FF0A2202212046FFF7B2FFD6
:102C90000028EDD00A2201212046FFF7ABFF0028D3
:102CA000E6D00A2200212046FFF7A4FFE0E77047A4
:102CB00008B501F0DBF8012008BD10B50446FDF7AA
:102CC000E1FA204610BDFFFF37B59020FDF7D8FA96
:102CD00004460321FFF760FB204605F0C9F83420C5
:102CE000FDF7CEFA054600244FF400720D4900941A
:102CF000042305F0EBF80C4B28462B6005F0B8F8E0
:102D00003420FDF7BDFA05462146FFF7F3FE2846BD
:102D100005F0AEF82046214605F0B8F84FF0FF3038
:102D200003B030BD154402000C4F020010B54FF641
:102D3000FF74242303FB0101884209D043782BB19F
:102D4000038C1344A34228BF234603842430F3E7B3
:102D500010BDFFFF37B5002302A840F8043D0C4B1F
:102D600004215B6898470B4B019A1C680546141BAD
:102D70001A60042122460848FFF7D8FF22460221A4
:102D80000648FFF7D3FF281C18BF012003B030BD51
:102D9000ACC307207CC40720C0C3072099C4072008
:102DA00008B50B4B197803788B420A4B0BBF1A8876
:102DB0009A880132013214BF9A801A80064B8170C2
:102DC000DB6820219847003018BF012008BD00BFF4
:102DD00005C0072051C40720ACC307200A4B027866
:102DE0001B789A42094B0BBFDA881A8901320132EB
:102DF0000CBFDA801A810379C3F3C202073262F38F
:102E0000C5030371FFF7CCBF05C0072051C40720DD
:102E100010B50749002311F823409A00844202D1DB
:102E20000348104410BD0133042BF4D1002010BD21
:102E30006BC4072070B1C3780133DBB2FF2BC370C2
:102E400008D105480023C118CA7804335208102B52
:102E5000CA70F8D1704700BF6BC40720242202FB60
:102E600001010346024630B5914206D01446243291
:102E700012F8235C002DF7D10FE00446002599429B
:102E80000BD01A79C2F3C2001A8C42EA0042AA425D
:102E900084BF1C4615462433F1E7204630BDFFFFB2
:102EA00038B50546C90001F10804FFF753FF1C4B74
:102EB0002A781B789A4204D102211A48FFF7CEFFE4
:102EC0000CE004211848FFF7C9FFEB7833B990F8FC
:102ED0002330042443F0800380F82330002380F85B
:102EE000203080F8213002462B4690F8231080F8DD
:102EF000224021F07F01C4F306240C4380F82340D4
:102F000005F1200153F8044B8B4242F8044BF9D1F0
:102F1000064A0379127862F3C503037138BD00BF16
:102F200005C0072099C40720C0C3072004C007209C
:102F300008B5FFF76DFF0346D8B9FFF769FF0346F1
:102F4000B8B90D4AD378D179D07A8B4296BF194659
:102F5000131D1346814294BF0846084BD17B084A93
:102F6000814238BF1346074900221A60CA7A0132EB
:102F7000CA72184608BD00BF6BC4072073C407207F
:102F800077C4072051C407202DE9F84F05460C46A9
:102F90004FF0240909FB0219DFF868A1DFF868B1D6
:102FA0004E1C4FF000084C4500F09A8094F82330F6
:102FB0001A0624D5B5B12A7861788A4205D16F788E
:102FC00016F8010C874200F08D80E87850B16878DF
:102FD000884207D116F8011C914203D1A979A27940
:102FE00091427FD094F82220218C03F07F0342EAA3
:102FF0000323994271DB2046FFF7D2FE72E062782C
:10300000002A6AD06DB3297901F0C001C02917D117
:1030100016F8010C6978884202D12878904261D074
:10302000E778A87887420CD191420AD116F8010CB2
:103030002978884205D1A079A979884201D151E047
:1030400079B1A878E17888420BD16978914208D1AA
:1030500016F8010C2978884203D1A079A979884211
:1030600046D094F82210208C03F07F0341EA03231A
:10307000984232DB237984F82080C3F3C201CFB2B7
:1030800084F821801FB12046FFF7A8FE25E003F059
:10309000C003C02B19D016F8010C9AF800309842E2
:1030A00013D1E3789A4210D07BB16379032262F3A3
:1030B00007136371E1702046FFF790FE23799BF8B8
:1030C000002062F3C503237100E001276078FFF759
:1030D0009FFE08B1C0F8008027B92434243662E787
:1030E000BDE8F88F24220021204609F01EFEF4E7F7
:1030F000237984F820806FF3C50384F8218023713D
:10310000EBE700BF05C0072004C00720431EDBB269
:10311000FD2B9DBF024B187001200020704700BF9F
:1031200005C00720014B1878704700BF05C0072075
:1031300007289CBF014B1870704700BF04C00720D0
:103140002DE9F743044691461E469DF828500F4648
:10315000002966D0364B93F80080414563D00F2E8E
:1031600061D8002861D02022002109F0DEFDFF2F68
:10317000237914BF09F00302002262F387130322AC
:1031800062F302032B4A6770127884F8008062F3BE
:10319000C503294A2371137884F802800133DBB216
:1031A0001370A3710BAB019315B94FF001081BE02D
:1031B00004F10809019AE0791346526853F8081B94
:1031C00000EB02085FFA88F8013DB8F1180F01938F
:1031D000EDB207D8484409F082FD84F80780002D3D
:1031E000E8D1E2E74FF00008DFF8509001233846BD
:1031F00089F80030FFF70CFE0546FFF71BFE0023A1
:1032000089F80030637925B966F307136371E570B7
:1032100005E0AA7862F3071363716B78E3704046A8
:1032200003E0084601E00020FFE703B0BDE8F083BB
:1032300005C0072004C0072050C407205DC4072034
:10324000124B012270B51A7004461E4608B90025BB
:1032500018E0FFF7A5FD05460028F8D0237903F014
:10326000C003402B06D0C02B0AD1E37853B162785B
:103270009A4207D0617920460909FFF711FE01E063
:10328000802BF7D000233370284670BD5DC4072023
:1032900082B02DE9F0439146421ED2B28DB0FD2A94
:1032A00005460E4615939DF8688001D9002057E029
:1032B000002BFBD0179F002FF8D0199B002BF5D0C7
:1032C000189B002BF2D0169B002BEFD04822002138
:1032D000264809F02AFD90220021254809F025FD05
:1032E00010220021234809F020FD234B00241C60FC
:1032F0005C609C60214B1C605C609C60204B1D707E
:10330000204B214D1E7015AE0FCE0FC5336818220D
:1033100021461E482B6009F008FD494617221B482C
:103320000BF04AFA21462046B8470028BED0B8F133
:10333000000F02D1FFF70EFD12E006230293144B9B
:103340002246019301230093FF2104A8FFF7F8FE12
:103350000028ABD004A8FFF773FF0028A6D0E9E748
:103360000DB0BDE8F04302B0704700BF99C407201C
:10337000C0C307206BC407205FC4072051C40720C7
:1033800005C007205EC40720ACC3072080C4072007
:10339000244F020030B5182B8DB016D8B2FA82F443
:1033A0001D1C18BF01256409AC420ED00293019286
:1033B00000950A469DF84030014604A8FFF7C0FE7C
:1033C00018B104A8FFF73CFF00E000200DB030BDAD
:1033D00013B5537914781B09009302460B46204617
:1033E0000321FFF7D7FF02B010BDFFFF00231A46ED
:1033F00030B5084C14F82350990035B1904202D1F1
:103400000448084430BD0132D2B20133042BF1D15B
:10341000002030BD6BC4072000231846044A12F870
:10342000231009B10130C0B20133042BF7D170472A
:103430006BC407202DE9F04188B0202200216846A6
:1034400009F073FCA14B1B7803F0FF04002B40F044
:1034500039819F4F20213B6968469847002800F03A
:1034600084809C4D6B8801336B80FFF7D5FF9DF8FE
:103470000420A87202F00703032B04D0964A1378A5
:1034800043F0010309E0954B1D789DF80230AB42F3
:1034900005D1914A137843F002031370E4E0C2F3BC
:1034A000C2029DF800E09DF806008D49D6B204EBFB
:1034B000440313F801C0F4450BD10B4493F801C049
:1034C000844506D1997801248E1B18BF01269A7075
:1034D00018E00134042CEAD182490B689A70804AC2
:1034E000587002F10900834283F800E040F0C9807F
:1034F0000A609DF800009DF80230834240F0C480CD
:10350000002426469DF80200FFF712FD9DF80220D8
:1035100002709DF80220427000228270FFF78AFC40
:1035200004B116B39DF80030AB4200F09C809DF8CA
:103530000160FF2E1BD13B6820216846984720B9C7
:10354000654A137843F0040313709DF8053003F0C7
:103550000F02511C61F303038DF80530C3F303130D
:103560009A4202DA6846FFF71BFC00247CE0B54271
:103570002BD164B99DF807304BB13B6820216846D8
:10358000984720B9544A137843F0040313709DF808
:10359000043003F0C003402B12D19DF807306A4677
:1035A00013B91821504808E00C214A48FFF710FFD2
:1035B000002858D100216A460846FFF709FF52E06B
:1035C0009DF80330002B4ED1F4E7484B1B78002BBD
:1035D000CBD09DF8054004F00F074FEA141847457B
:1035E000C3DA013767F303043046FFF711FC8DF8A7
:1035F00005409DF80340A54221D19DF8041001F03B
:10360000C001402906D0A1F180035A425A41144614
:1036100010B90CE0012260B1C029437805D19E4267
:1036200003D0003318BF012304E0002302E0C029C7
:103630000ED10346134303F0010420B908E094B906
:1036400008B941460CE043788DF80330857802E0F4
:1036500000258DF803506846FFF7A2FB1CB12946F0
:103660006846FFF71DFC6C46FFF774FB20460422FA
:103670001F49FFF789FC02221E492046FFF784FC00
:1036800020E003330B6034E785423FF439AFFFF7A6
:103690004FFC0446FFF7CEFB23783BB19DF8053085
:1036A000A27803F00F0393423FF72AAF9DF8003052
:1036B00023709DF8023063709DF80530C3F3030357
:1036C000A3701DE708B0BDE8F08100BF5DC407200E
:1036D000ACC3072051C4072098C4072005C00720A9
:1036E0005FC4072000C0072080C407205EC40720F5
:1036F000C0C3072099C4072000231846094AD118DF
:10370000497809B10130C0B22433902BF7D1064B70
:103710005A780AB10130C0B293F825300BB10130AC
:10372000C0B27047C0C3072099C4072008B5FFF78F
:103730006FFB064B28B18278187802FB0000C000AE
:1037400008BD18781823584308BD00BF04C00720DF
:1037500003490B6803604B6843608B688360704764
:1037600051C4072070B53E4C4FF48035E5613D4CA7
:10377000A0602046C5683B4CED06FBD4A0680D4612
:10378000C0B20BB923465FE02346002A63D0072A64
:103790000E782DDD9E604E78083A9E608E789E6091
:1037A000CE789E600E799E604E799E608E799E6086
:1037B00001F10806C979996099694907FCD5A168A2
:1037C0002970A1686970A168A970A168E970D968B9
:1037D000C906FCD4A168083505F8041CA16805F8E1
:1037E000031CA16805F8021CA16805F8011C1AE079
:1037F000032A1ADD9E604E78043A9E608E789E60A1
:103800000E1DC9789960D968C906FCD4A168043531
:1038100005F8041CA16805F8031CA16805F8021C42
:10382000A16805F8011C3146AFE701319E60013AFD
:10383000DE68F606FCD4A668013505F8016CA4E73D
:10384000E668F606FCD4A6686E1AB24203DD15F8E7
:10385000016B9E60F4E7024B4FF480329A6170BDB9
:1038600000C009200080084007B5002302A901F824
:10387000013D01231A4600F01F00FFF773FF9DF87A
:10388000070003B05DF804FB13B502AC04F8011D9A
:1038900000F01F0000230122214640F02000FFF726
:1038A00061FF02B010BD08B51720FFF7DDFFC0F3C0
:1038B000001008BD70210720FFF7E6BF0A4600236D
:1038C0000146A020FFF74EBF08B50020FFF7CCFF50
:1038D000BDE8084000F0FE010020FFF7D5BFFFFF64
:1038E000024B4FF08072DA61704700BF20C00920A0
:1038F00008B50020FFF7B8FF40F00101C9B2002071
:10390000FFF7C2FF024B4FF080729A6108BD00BF03
:1039100020C0092020210720FFF7B6BF00231A4648
:103920001946E120FFF71EBF37B504460D46FFF7E5
:10393000F5FF20462946FFF7C1FF0D4B4FF080727F
:103940001C469A610022ADF80620BDF8063001330E
:103950009BB2ADF8063033B94FF08073E361FFF7E7
:10396000DDFF03B030BDFFF79EFF0028EDD0F3E789
:1039700020C0092008B51720FFF776FF00F00100EE
:1039800080F0010008BD40210720FFF77DBF08B58A
:103990000A46012301466120FFF7E4FEC0F342001E
:1039A00008BD00231A461946E220FFF7DBBE70B5BA
:1039B000064600200D461446FFF756FF16B100F0EC
:1039C000BF0002E040F04000C0B215B100F0DF01DE
:1039D00001E040F0200114B101F0EF0101E041F0FD
:1039E00010010020BDE87040FFF74EBF10B504463F
:1039F0000020FFF739FF14B900F0F7010DE0012CAA
:103A000004D100F0FB0141F0080106E0022C14BFD4
:103A100040F0080140F00C01C9B20020BDE81040A0
:103A2000FFF732BF08B50020FFF71EFFBDE80840D2
:103A300040F00201C9B20020FFF726BF08B5002000
:103A4000FFF712FFBDE8084000F0FD010020FFF77E
:103A50001BBF40F6DD13984206D840F66213B0F55E
:103A6000166F38BF184600E01846A0F51661C9B2B7
:103A70000520FFF709BF10B504460620FFF7F4FE46
:103A8000FA2C00F0D70102D141F0200104E0B4F596
:103A9000FA6F08BF41F008010620BDE81040FFF7AB
:103AA000F3BE10B504460620FFF7DEFE032C28BF48
:103AB000032420F0060040EA4401C9B20620BDE814
:103AC0001040FFF7E1BEF9284FF0FA0305D9B0F531
:103AD0007A6F88BF4FF47A6000E01846B0FBF3F0CD
:103AE0000F2900F1FF30C0B228BF0F2141EA0011B9
:103AF000C9B20420FFF7C8BE1130C0B2162804D8DE
:103B0000202928BF2021FFF7BFBE7047032804D01B
:103B1000042814BF0321022100E001210320FFF744
:103B2000B3BE0A46002301463020FFF71BBE0A46FB
:103B3000002301462A20FFF715BEFFFF73B50E468E
:103B400015460446FFF72DFFFFF7E8FE2B4B4FF01D
:103B50008072DA61FFF772FF002211460120FFF741
:103B600026FFFFF7A7FE0220FFF740FF3046FFF7D2
:103B700070FF2846FFF77FFF0320FFF792FF032126
:103B80000220FFF781FE00210120FFF77DFE0321C7
:103B90004FF4FA70FFF797FF21460020FFF7ACFFC4
:103BA00000211220FFF770FE00211320FFF76CFEAA
:103BB00000211420FFF768FE00211520FFF764FEA6
:103BC00000211620FFF760FE0D4B18681B7900904E
:103BD00005208DF80430FFF799FF68460521FFF7AF
:103BE000A0FF05216846FFF7A2FFFFF71BFF4FF478
:103BF000FA6004F005FC02B070BD00BF20C00920CF
:103C00002B4F020070B5174E326822B920210320D5
:103C100005F022FF3060144D2A6822B920210120CE
:103C200005F01AFF2860114C216821B903220120F8
:103C300005F012FF20604FF4FA6240F6C311202015
:103C4000FFF77CFFFFF754FE1620094A012104F01C
:103C5000A7FE306828B1286818B12068003018BF66
:103C6000012070BDE8C40720E4C40720ECC407208D
:103C70001D3D010070B50379014603F0C003C02B60
:103C80000CBF0E4B0E4B88B01D68002306461A462B
:103C9000284605F003FF044660B90346024669461C
:103CA000284606F001F8234622463146284605F00C
:103CB000F5FE0446204608B070BD00BFE4C40720EE
:103CC000E8C4072038B504460D46FFF72BFA2378E1
:103CD00083420AD0E37843B90AF056FABD2300F0D4
:103CE000030000FB033004F08BFBFFF7F9FDFFF747
:103CF000EBFDA9B22046FFF717FEFFF70BFEFFF71B
:103D0000F7FD06F0D5FD022804D1034B0021186809
:103D100005F098FF012038BDECC4072007B500234B
:103D200002A941F8043D084B186805F08BFF019B80
:103D30003BB1064B4FF080521A60BFF34F8FBFF379
:103D40006F8F03B05DF804FBECC4072004ED00E0C6
:103D500038B504460D46FFF70DFE48B1A9B220461E
:103D6000FFF715FEFFF706FE08B9FFF70CFE01206E
:103D700038BD2DE9704305460E46144606F098FD01
:103D8000022807D1224600233146284605F08CFF41
:103D9000C4B21DE007F03CF94FF47A72002308F03A
:103DA0009FFB10EB040841F1000900231A4631463D
:103DB000284605F079FFC4B254B907F029F94FF449
:103DC0007A72002308F08CFB894508BF8045ECD24D
:103DD0002046BDE87083042938B5054603D1041C8C
:103DE00018BF012400E0002407F012F92CB14FF4B1
:103DF0007A72002308F074FB2860204638BDFFFF6C
:103E000000B50C4B8DB009930B4B0C4A0B930C4B2C
:103E10000A930CAB43F8102D002204920FCB8DE8CF
:103E20000F00084B084A01216A20FFF731FA0DB054
:103E30005DF804FB053C0100513D0100D73D010048
:103E4000C53C0100753C0100304F0200024B0A46A0
:103E500001461868FFF78DBFE8C40720024B0A46E9
:103E600001461868FFF785BFE4C4072008B506F0CF
:103E70001FFD0F4B02285B6913D15A020DD5FFF7C6
:103E80003BFC00280B484FF0000314BF01224FF009
:103E9000FF321946006805F007FFBDE80840FFF74C
:103EA000C9BA5B02F9D5FFF727FC0028F5D108BD98
:103EB00000C00920ECC4072013460A4601790068B7
:103EC00005F0FDB91FB5002204AB047923F8042DD9
:103ED0000222009200680A46214605F0DBF99DF8AF
:103EE0000C009DF80D3043EA002004B010BD10B561
:103EF000044619222A21FFF7DFFF0D2221792068CD
:103F000005F0CCF9A0F12A035842584110BDFFFF3B
:103F1000044A13881F2B9FBF581C1080024A42F886
:103F200023107047F4C40720F8C40720154AF0B5E1
:103F300013881646012B21D9134A00201546013B50
:103F4000984206DA516814680130091B42F8041BD4
:103F5000F6E700210C466A684FF0010E02EB5200B2
:103F60008AB2934208DD55F822700131B8423CBF55
:103F70000EFA02F21443F3E7044B1C600023338073
:103F8000F0BD00BFF4C40720F8C40720F0C4072028
:103F900008B50121022006F0D5FF084B01209A6ADE
:103FA00022F007029A629A6A42F006029A62044A72
:103FB000D36843F03003D36008BD00BF00800040E9
:103FC00000C0024008B5044B417101F07F015A5C0A
:103FD0000321FFF771FF08BD354F020008B5044B00
:103FE000817101F07F015A5C0221FFF765FF08BD76
:103FF000354F020038B504460179006805F06AF9CA
:10400000054688B1002206212046FFF755FF002211
:1040100007212046FFF750FF2E212046FFF7D2FF51
:104020002E212046FFF7DAFF284638BD642370B5FD
:10403000B1FBF3F404FB1311CCB20A21B4FBF1F58C
:1040400001FB15413031C9B20646FFF7C7FF092C05
:1040500088BF05F130013046BDE8704094BF202193
:10406000C9B2FFF7AFBF01207047FFFF38B50D465B
:10407000044606F051FD05F00F032370114B15F0B7
:10408000010F4FF0010214BFDA619A61227812F039
:10409000020F4FF0020214BFDA619A61227812F027
:1040A000040F4FF0100214BFDA619A61227812F007
:1040B000080F4FF4807214BFDA619A61BDE838408E
:1040C00006F03ABD20C0092038B50D46044606F07A
:1040D00023FD691E012303FA01F12378204659408C
:1040E000C9B22170FFF7C2FFBDE8384006F024BD19
:1040F00001207047022004F019BA01207047FFFF29
:10410000044B5B69180B00F00C00C3F34123184308
:10411000704700BF20C0092010B50446812201214C
:10412000FFF7CAFE01222179206805F0B7F810F0E8
:10413000600F14BF0120002010BD38B500210446D7
:10414000FFF7C0FE812205B201212046FFF7B4FE31
:10415000102095FBF0F007F0D9FF4FF0765108F0F2
:1041600029F8A16807F01EFF38BDFFFF08B5FFF76B
:10417000E4FF054908F01EF8044908F0CFF84FF0B5
:10418000844107F00FFF08BD000010410000A0406F
:104190002DE9F04FADF2546D0C46904601460122D8
:1041A00082A8994602F03EF8002867D121460A22EB
:1041B0000DF22C4002F036F8044620B182A802F03D
:1041C0009AFA20465AE06D46064607462860019056
:1041D00006F01EFF4FF47A72002308F081F92B4697
:1041E00083464FF4007202A982A802F0B5F8824615
:1041F000E0B92A68D2B106F00BFF4FF47A720023BF
:1042000008F06EF9B0EB0B00074406F001FF4FF425
:104210007A72002308F064F901AB83462A6802A988
:104220000DF22C4002F050F98246B0B1B8F1000F07
:1042300001D0C8F80070B9F1000F01D0C9F80060D2
:10424000DDF8783603B11C6082A802F054FA0DF252
:104250002C4002F050FA504610E001992A68914231
:10426000E4D106F0D5FE00234FF47A7208F038F955
:104270002B68B0EB0B0006441C44A9E70DF2546D0B
:10428000BDE8F08FF0B5ADF50B7D0E461746014643
:104290001D460122002301A8009301F0C3FF04463C
:1042A00070B91DB1294601A802F037FA6B463A46AB
:1042B000314601A802F050F8044601A802F01BFAAA
:1042C00020460DF50B7DF0BDF0B5ADF50B7D0E462E
:1042D000174601461D460A22002301A8009301F05B
:1042E000A1FF044670B91DB1294601A802F015FAD4
:1042F0006B463A46314601A802F0E6F8044601A8AA
:1043000002F0F9F920460DF50B7DF0BDF0B5ADF5E5
:104310000B7D0E46174601461D461222002301A8BA
:10432000009301F07FFF044680B90DB1294600E0FB
:10433000049901A802F0F1F96B463A46314601A80A
:1043400002F0C2F8044601A802F0D5F920460DF5A6
:104350000B7DF0BD7F2810B516D931B1FF2812D8DA
:104360000A4B803833F8100010BD084A32F811406B
:104370008BB2844203D001318029F7D10B4603F17F
:104380008000C0B210BD002010BD00BFB64F0200BB
:104390000649002331F8132032B1824201D00133A3
:1043A000F8E7034A32F81300704700BFB650020026
:1043B0009652020010B501200C4605F0F3FB206078
:1043C000003018BF012010BD0120704710B5044611
:1043D00006F06EFA02280AD1002319464FF0FF3288
:1043E000204605F061FC431E5842584110BD012093
:1043F00010BD10B5044606F05BFA022807D1002371
:104400002046BDE810401A46194605F047BB10BDCE
:1044100010B5044604F046FD24B1012C06D100F08D
:1044200081F901E000F002FD044600E0042404F0FC
:1044300051FD204610BD28B1012801D0042070474D
:1044400000F028BA7047F8B507460C4615461E46D8
:1044500004F028FD3FB1012F0CD1324629462046F9
:1044600000F020FA04E032462946204600F02AFDFA
:10447000044600E0042404F02DFD2046F8BDF8B504
:1044800007460C4615461E4604F00CFD3FB1012FB1
:104490000CD132462946204600F050FA04E032465C
:1044A0002946204600F030FD044600E0042404F0D4
:1044B00011FD2046F8BD70B506460C46154604F0C1
:1044C000F1FC36B1012E0AD12946204600F090FABF
:1044D00003E02946204600F037FD044600E00424AE
:1044E00004F0F8FC204670BD08B506F091FD4FF4CD
:1044F0007A72002307F0F4FF08BDFFFF10B50446F1
:1045000006F000FF074BB0FBF3F00223B0FBF3F221
:10451000944202D3044A136110BDB3F5807FF9D0F1
:104520000233F3E740420F0000000340044B986061
:10453000DA68D206FCD4024B9868C0B2704700BF5C
:104540000000034070B5FFF7CFFF00F5FA74FF20BD
:10455000FFF7ECFF0025FF20FFF7E8FFFF280646E6
:1045600005D0FFF7C1FFA94208BFA042F3D33046F0
:1045700070BDFFFF38B5064C4FF00075E561FFF7E1
:10458000E1FF044AA561137843F00103137038BDBD
:1045900020C0092006C007202DE9704306460D46BD
:1045A000FFF7A2FF643080464FF00009FF20FFF7BD
:1045B000BDFFFF2808D1FFF797FF494508BF4045D9
:1045C000F4D30020BDE87083FE28FAD1102D06D95F
:1045D00000224FF40071304604F002FC19E0341D53
:1045E0000435FF20FFF7A2FF04F8040CFF20FFF7BB
:1045F0009DFF04F8030CFF20FFF798FF04F8020C5E
:10460000FF20FFF793FF043404F8050C2B1BDE4258
:10461000E7D1FF20FFF78AFFFF20FFF787FF012088
:10462000BDE8708370B506460D46FFF78BFFFF2887
:10463000044619D12846FFF779FFFD2D16D02246F2
:104640004FF40071304604F0CBFB2046FFF76EFFBD
:104650002046FFF76BFF2046FFF768FF00F01F00C2
:10466000431F5842584170BD002070BD012070BDED
:10467000020638B504460D4607D500217720FFF71E
:10468000F7FF012838D804F07F041C4B4FF000726C
:104690009A61DA61FFF756FFFF28014628D12046CC
:1046A000FFF744FF280EFFF741FFC5F30740FFF770
:1046B0003DFFC5F30720FFF739FFE8B2FFF736FFEC
:1046C000402C17D0482C14BF01208720FFF72EFF65
:1046D0004C2C02D10846FFF729FF0A21FF20FFF7E3
:1046E00025FF030608D5013911F0FF01F6D138BDC9
:1046F000FF2038BD9520EEE738BD00BF20C009205F
:10470000064A074913784969DBB2490154BF03F0EF
:10471000FD0343F003031370704700BF06C007207A
:1047200020C009202DE9F743FFF7EAFF564B1A781E
:104730001E4612F0020F01D01878A1E00120FFF709
:10474000DDFE0A24FF20013CFFF7F0FE14F0FF0419
:10475000F8D14E4F4FF00073FB6121464020FFF728
:1047600087FF012802D04FF0000875E0FFF7BCFE7C
:104770004FF4D57100F57A754820FFF779FF0128CD
:1047800041D10DF10408FF20FFF7D0FE08F8040026
:104790000134042CF7D19DF80630012BE3D19DF8AC
:1047A0000730AA2BDFD12C460025FFF79DFEA9423A
:1047B00008BFA04206D3FFF797FEA94208BFA04258
:1047C000D1D207E04FF08041E920FFF751FF0028E8
:1047D000EBD1F0E700217A20FFF74AFF0028C2D191
:1047E0000146FF20FFF7A2FE08F80100013104296D
:1047F000F7D19DF8043013F0400F14BF4FF00C08B0
:104800004FF0040828E02146E920FFF731FF022895
:104810002C4635BF4FF002084FF001084FF0E90970
:104820004FF041090025FFF75FFEA94208BFA042F3
:104830000BD3FFF759FEA94208BFA0420CD34FF497
:1048400000715020FFF714FF06E000214846FFF7F3
:104850000FFF0028E7D1ECE70D4B83F800804FF005
:104860000073BB61B8F1000F07D03378182003F054
:10487000FE033370FFF742FE01E0FFF77BFE307866
:10488000C0B203B0BDE8F08306C0072020C00920F5
:1048900078C5072008B5FFF733FF014B187808BD2E
:1048A00006C0072070B5144606460846FFF728FFE5
:1048B000002C39D01E4B1B78DB0737D41D4B4FF033
:1048C0000072DA611C4A1D46127812F0080F08BF08
:1048D0004002012C01460CD15120FFF7C9FEE0B97E
:1048E0004FF400713046FFF757FEB0FA80F46409C8
:1048F00013E05220FFF7BCFE78B94FF40071304648
:10490000FFF74AFE28B1013C14F0FF0406F50076DB
:10491000F3D100214C20FFF7ABFE4FF00073201CB9
:10492000AB6118BF012070BD042070BD032070BDB5
:1049300006C0072020C0092078C50720F8B5144616
:1049400006460F46FFF7DCFE002C44D0254B1A78B4
:10495000D20742D41B785B0741D4234B4FF000723F
:10496000DA61224A1D46127812F0080F08BF7F0252
:10497000012C0CD139465820FFF77AFE18BBFE21D6
:104980003046FFF74FFEB0FA80F464091CE012F0E5
:10499000060F03D02146D720FFF76AFE394659207B
:1049A000FFF766FE80B9FC213046FFF73BFE28B1D9
:1049B000013C14F0FF0406F50076F4D1FD2100203F
:1049C000FFF730FE00B901244FF00073201CAB61EB
:1049D00018BF0120F8BD0420F8BD0320F8BD022057
:1049E000F8BD00BF06C0072020C0092078C50720F9
:1049F0007FB50D46FFF784FE05281AD12B78012BD1
:104A000000F0048103D3022B0BD0042001E1824B80
:104A1000586910F0806440F0F980FFF7ABFD204644
:104A2000F7E07D4B5B6983F08063C3F380636B7059
:104A3000ECE07A4B1B78DB0700F1EA800E2800F2ED
:104A4000DF80DFE800F008124F53DDDDDDDDDDDD66
:104A5000AAAFB2BBCB00704B4FF00072DA61FFF728
:104A600071FDFF3818BF0120CBE000214920FFF77E
:104A7000FFFD044608B10120C3E010216846FFF79E
:104A80008BFD0028F7D09DF800309DF808109B0999
:104A9000012B9DF8093006D1013303EB012189B2C6
:104AA000890229606BE09DF807209DF805009200BF
:104AB00002EB91119DF806200131920202F440624E
:104AC00011449DF80A2000F00F0000EBD2105A00AC
:104AD000023002F006028318DBB289B2093B01FA08
:104AE00003F34BE04FF400732B8059E04C4E3378C6
:104AF00003F0040303F0FF01F3B10021CD20FFF721
:104B0000B7FD0028B7D1FF20FFF710FD1021684640
:104B1000FFF742FD0028AED03021FF20FFF706FD51
:104B2000481E10F0FF01F8D19DF80A3008461A0916
:104B3000102393402B6064E04920FFF799FD044661
:104B4000002898D110216846FFF726FD002892D052
:104B500036789DF80A2006F0020606F0FF009DF860
:104B60000B3076B1520002F07E0202EBD3135A1CD6
:104B70009DF80D309B09013B02FA03F32B602046A0
:104B80003FE0D90001F01801C2F3840201EB531198
:104B9000531C01FB03332B6033E0214B1B782B703C
:104BA00000202EE00021492001E000214A20FFF7EB
:104BB0005FFD00287FF45FAF10211AE000217A200A
:104BC000FFF756FD00287FF456AF291DFF20FFF7A1
:104BD000ADFC05F8010B8D42F8D1E1E70021CD20B5
:104BE000FFF746FD00287FF446AFFF20FFF79EFC4D
:104BF00040212846FFF7D0FCB0FA80F0400900E0E1
:104C00000420054B4FF000729A6102E0002000E0A2
:104C1000032004B070BD00BF20C0092006C00720DB
:104C200078C50720054B1B78253BDBB2032B9ABFC9
:104C3000034A52F823000020704700BF7CC50720BC
:104C4000805402001B4B2DE9F0411D880646B5F546
:104C5000007F0F46144602D12A46214613E0B5F5DF
:104C6000807F09D12A4621463846B0472A4604F5B6
:104C7000807107F5807016E0B5F5047F05D1510A03
:104C800089024FF4007238460DE0B5F5847F0ED1ED
:104C9000140A61024FF480723846B047611C4FF429
:104CA00080724902B8183346BDE8F0411847BDE8A4
:104CB000F08100BF7AC5072030B52F4C034625464A
:104CC000002958DD07291A782DDDA2605A780839A5
:104CD000A2609A78A260DA78A2601A79A2605A7902
:104CE000A2609A79A26003F10802DB79A360A3694C
:104CF0005B07FCD5AB680370AB684370AB6883702F
:104D0000AB68C370E368DB06FCD4AB68083000F81E
:104D1000043CAB6800F8033CAB6800F8023CAB68AD
:104D200000F8013C1AE003291ADDA2605A78043920
:104D3000A2609A78A2601A1DDB78A360E368DB06A4
:104D4000FCD4AB68043000F8043CAB6800F8033CCA
:104D5000AB6800F8023CAB6800F8013C1346AFE7D3
:104D60000133A2600139E268D206FCD4AA6801309E
:104D700000F8012CA4E730BD0000034007B50B0C80
:104D80008DF805308DF807100B0A04218DF804000A
:104D90000DEB01008DF80630FFF78EFF03B05DF8D4
:104DA00004FBFFFFF7B5174606460E4C40250323CC
:104DB000E5618DF804300B0C8DF805308DF8071087
:104DC0000B0A04210DEB01008DF80630FFF774FF8C
:104DD00000223946304604F003F8A561A561A561BB
:104DE00003B0F0BD00C009200E4B4022DA610E4B2B
:104DF000D7229A601A46D1680B4BC906FBD49A6831
:104E00001A46FF219960D068C006FCD4906810F063
:104E1000800FF7D0034B40229A61C0B29A619A6129
:104E2000704700BF00C0092000000340F7B5FFF73E
:104E3000DBFF1F4C002323801E4B1F4E40271A8888
:104E40009B78F7610321054601A8ADF804208DF891
:104E50000630FFF731FF9DF805209DF806301F2A28
:104E6000B7612146B761B7611CD1A3F12502032ABE
:104E700018D8124A252B137005F0010006D100281E
:104E800014BF4FF480734FF4847305E0002814BFFF
:104E90004FF400734FF404730B80FFF7C3FE084B0D
:104EA000400A18600888B0FA80F0400903B0F0BDED
:104EB0007AC507207654020000C009207CC507206F
:104EC00080C50720F8B58B1817460D4A013B1268BC
:104ED0000446934210D84D02FFF786FF00262D1B93
:104EE000BE4204EB050209DA21460648FFF7AAFE96
:104EF00004F500740136F3E70120F8BD0020F8BD89
:104F000080C50720A54D0100F8B58B1817460C4A3F
:104F1000013B126893420FD804460026C0EB41259E
:104F2000BE4204EB050209DA21460648FFF78AFE75
:104F300004F500740136F3E70120F8BD0020F8BD48
:104F400080C507202950010008B5072805D8DFE8EB
:104F500000F006090E1214141414042008BDFFF703
:104F600043FF0AE0FFF75EFE400A086005E04FF4E9
:104F700000730B8001E001230B60002008BDFFFFE0
:104F800070B590B003466A466E4600F1400514467F
:104F900018685968083303C4AB422246F7D1084D5C
:104FA0004024EC6100219B20FFF7E8FE21463046BB
:104FB000FFF782FEAC61AC61AC6110B070BD00BFA8
:104FC00000C0092070B50646074D40240021772017
:104FD000EC61FFF7D3FE21463046FFF76DFEAC6172
:104FE000AC61AC6170BD00BF00C0092008B5064BC4
:104FF000198831F01F0104D0FFF714FEB0FBF1F067
:1050000008BD084608BD00BF7AC50720014B1888B7
:10501000704700BF7AC50720024B1878003018BFD0
:10502000012070477AC507202DE9F7434FF0FF3381
:105030000F46914601938046FFF7D6FEFFF7ECFF3F
:105040000646B8B1194C4025194BE5611B88032071
:10505000B3F5847F0CBF4FF480714FF40071394376
:10506000FFF78CFE04210DEB0100FFF725FEA56183
:10507000A561A5610D4C402339468220E361FFF70D
:105080007DFE01224946404603F0AAFE3EB1019B47
:1050900002A8013340F8043D0421FFF70DFE402330
:1050A000A361A361A36103B0BDE8F08300C0092040
:1050B0007AC50720124B37B51B88B3F5847F0CBF28
:1050C0004FF480714FF400714FF0FF3341EA4021FB
:1050D0000193FFF7A1FF68B10A4C40250320E56169
:1050E000FFF74CFE04210DEB0100FFF7E5FDA56184
:1050F000A561A5610198431C08BF002003B030BD25
:105100007AC5072000C0092037B5084B084C18683D
:10511000402504210190E5610DEB0100FFF7CCFD76
:10512000A561A561A56103B030BD00BF795402003F
:1051300000C009201FB501A803F076FD9DF80830D6
:105140009DF8092003F01F0302F00F021B0443EA3D
:1051500042519DF806309DF8040003F01F0341EA18
:10516000C3229DF80530C0F3440003F03F0342EA38
:105170004313BDF80A201843520602F108421043B7
:1051800005B05DF804FB30B504460D1F131B034446
:10519000032B04D955F8043F44F8043BF6E7940880
:1051A000A3001944A2EB8402013B18440A44914233
:1051B00004D011F8013B00F8013FF8E730BD02448C
:1051C000904202D000F8011BFAE7704700F10B0192
:1051D0000023DA0142EA530310F8012B13448842FA
:1051E00003F0FF03F5D118467047036810B5044675
:1051F000B3B119460A4611F8010B1F2802D93A2803
:10520000F8D101E0002010BD591C8A4208D11B785A
:10521000303BD9B2012903D801321846226010BDB3
:105220004FF0FF3010BD03692DE9F04101F1090293
:105230000D4663B3416900244E1E2E2716F8013F28
:105240000134202B19D0052B48D0092C01D117701F
:105250000132A3F1410EBEF1190F0CD8082C91F8C0
:105260000CE08CBF4FF0100C4FF0080C1CEA0E0F36
:105270001CBF2033DBB2137001320B2CDED1CB7A92
:105280002B72CB692B600B8BAB80CB8AEB8000241D
:105290001470AE693EB303690BB900241AE0EB69E0
:1052A000002BFAD04FF6FF73028C9A42F5D0D0F85B
:1052B0001C80771E38F8140060B10021FFF74AF80F
:1052C0000028EAD0EB69013B9C42E6D2013407F8A2
:1052D000010FEFE700233355BDE8F081092C4FF0B3
:1052E000E503C8D1B3E7BDE8F081F8B5056B00F17F
:1052F0003407044601232A4639464078FFF7BFF8B1
:10530000A0B9636AE269EB1A9342207101D30020CD
:10531000F8BDE678012EFAD9E36939461D442A46DC
:1053200001236078FFF7ABF8013EF3E70120F8BDF9
:1053300003790BB1FFF7D9BF1846704770B5044623
:10534000FFF7F6FF054680BB2378032B25D1637951
:10535000012B22D104F1340601464FF4007230468D
:10536000FFF72DFF4AF65522A4F832220F4A3146A4
:10537000626302F1FF5202F500522032C4F8182293
:1053800062696078C4F81C222269C4F82022226A6B
:1053900001322263FFF773F86571002211466078CD
:1053A000FFF789F8003018BF012070BD52526141EB
:1053B000036B70B58B4205460E4610D0FFF7B8FF61
:1053C000044608B101240BE00123324605F1340103
:1053D0006878FFF738F80028F4D12E6300E0002445
:1053E000204670BD002310B503714FF0FF330363F7
:1053F0000446FFF7DDFFA0B94AF65523B4F8322280
:105400009A4210D1D4F86A30084A23F07F4393427D
:105410000AD0D4F8860020F07F40801A18BF0120FF
:1054200010BD032010BD022010BD00BF4641540036
:105430002DE9FF4100230360074608461546FFF7A4
:10544000D4FE061EC0F2FA80854B53F82640002C8D
:1054500000F0F680E068FEF7B9FF002800F0F28067
:105460003C60237883B16078FEF7E5FFC1070BD479
:10547000002D00F0E98000F0040303F0FF00002B92
:1054800000F0EB800A20E8E00023F0B223706070A7
:10549000FEF7BEFFC20700F1D9800DB14307F1D47A
:1054A00000212046FFF79EFF01281CD12146002243
:1054B00091F8F6310BB1D1F8FA314DF822300132C2
:1054C000042A01F11001F3D100265DF826502DB118
:1054D00029462046FFF786FF08B90BE00220013677
:1054E000042EF2D100E00025032800F0B18008B1BD
:1054F0000D20B2E0B4F83F30B3F5007FF8D1B4F836
:105500004A6006B9A66D94F844E0E6610EF1FF33F7
:10551000012B84F803E0EBD894F84130A370002B02
:10552000E6D05A1E1A42E3D1B4F845C01CF00F0F62
:10553000A4F808C0DCD1B4F8472002B9626DB4F811
:1055400042100029D4D006FB0EFE01EB1C17774455
:10555000BA42CDD3D21BB2FBF3F3002BC8D040F636
:10556000F572934203F1020005EB01022F4410D9BA
:105570004FF6F5718B426DD9A06125626262E762D8
:10558000BCF1000FB4D1236E4FF00308A362830077
:1055900018E04FF00108A06125626262E762BCF189
:1055A000000FA5D0B8F1020F4FEA400318BF1B1837
:1055B000724418BF00F00100A2621CBF00EB53034D
:1055C0004FF0010803F2FF13B6EB532F90D34FF0C7
:1055D000FF3363612361B8F1030F4FF08003637100
:1055E00022D1B4F86430012B1ED1691C2046FFF78C
:1055F000DFFEC8B94AF65523B4F8322260719A42E8
:1056000012D1626B174B9A420ED103F1FF53D4F8BB
:10561000182203F5005320339A4201BFD4F81C32FC
:105620006361D4F8203223610F4A84F80080138824
:10563000002001339BB21380E3800EE00B200CE0CE
:105640000C200AE00F2008E0284606E0032004E0D2
:10565000012002E04FF002089DE704B0BDE8F081B0
:1056600088C507205252614184C5072010B5044601
:10567000A8B103689BB11A788AB1D988828891420F
:105680000DD1D868FEF7A2FE58B123685878FEF70E
:10569000D2FE10F0010F14BF0320002010BD09201E
:1056A00010BD0F2010BD50B10F2905D84FF41A437B
:1056B00023FA01F1CB0702D4C068FEF79ABE704707
:1056C00083690239023B99423DBF8378C06A01FB7E
:1056D0000300002070470129F8B507460C464BD956
:1056E0008369994248D20378022B29D0032B34D006
:1056F000012B41D101EB5106416A01EB5621FFF725
:1057000057FE10B14FF0FF30F8BD796AC6F30803B9
:1057100001363B4401EB5621384693F83450FFF7ED
:1057200047FE0028EED1C6F308063E4496F8340042
:10573000E30745EA00204CBF0009C0F30B00F8BDA9
:10574000416A01EB1421FFF733FE0028DAD1630030
:1057500003F4FF73FE18B08EF8BD416A01EBD4115B
:10576000FFF726FE0028CDD1A40004F4FE743C44CB
:10577000606B20F07040F8BD0120F8BD70B50446A4
:1057800082680D46012AE18001D1022070BD0368C4
:1057900099698A42F9D252B91978032901D1996AD3
:1057A00021B919898D42F0D2986A15E00A469E788F
:1057B0003601B542114620680CD3FFF78CFF431C1D
:1057C000024618D00128E0D923689B699842DCD2B0
:1057D000AD1BEEE7FFF774FFE2600028D5D0236829
:1057E00000EB1510343305F00F0503EB4515206170
:1057F0006561002070BD012070BD0129F8B5054626
:105800000C46164660D9836999425DD20378022B13
:1058100039D0032B43D0012B52D101EB5107416A00
:1058200001EB5721FFF7C4FD00284AD1C7F3080355
:1058300014F001042B4417BF93F83420F2B202F0A5
:105840000F0132011CBF02F0F0020A4383F834203A
:10585000696A013701232B7101EB57212846FFF7B5
:10586000A7FD70BBC7F308072F4414B1C6F3071692
:1058700006E097F83430C6F3032623F00F031E43E7
:1058800087F834601DE0416A01EB1421FFF790FDB9
:10589000B8B9640004F4FF742C44A68611E0416A90
:1058A00001EBD411FFF784FD58B9A40004F4FE7491
:1058B00030342C44636803F070431E43666000E09C
:1058C000022001232B71F8BD0220F8BDF8B5054672
:1058D0000F4631B9066996B183699E4228BF0126F9
:1058E0000EE0FFF7F8FE01283FD9441C02D14FF02B
:1058F000FF30F8BDAB69984238D33E4600E0012640
:105900003446AB6901349C4204D3012E01D80020F7
:10591000F8BD022421462846FFF7DDFE30B1411CC8
:10592000E5D0012821D0B442EBD1F0E76FF070420E
:1059300021462846FFF761FFA8B957B96B692C616A
:105940005A1C0ED0013B6B616B7943F001036B7104
:1059500007E0224639462846FFF74FFF0028EDD0E2
:1059600001E02046F8BD0128C1D00120F8BD2DE995
:10597000F843C68804460136B3B20F4613B9042073
:10598000BDE8F8830369002BF9D016F00F0859D150
:10599000C16801330361006819B903899E42EED2E0
:1059A00050E08378013B13EA16134BD1FFF793FEC7
:1059B0000128054602D80220BDE8F883421C02D126
:1059C0000120BDE8F883206883699D4234D3002F0D
:1059D000D5D0E168FFF77AFF054600283BD00128C3
:1059E000E9D0431CECD02068FFF7A2FC0746002852
:1059F000E6D120684FF4007239463430FFF7DFFB00
:105A0000226829461046FFF75BFE4FF0010910633C
:105A100023689A7897420CD283F804902068FFF7A5
:105A200087FC0028CCD122680137136B0133136344
:105A3000EEE71A6BD71B1F63E56029462068FFF766
:105A40003FFE20612368E680343303EB4813636133
:105A50000020BDE8F8830720BDE8F8832DE9F74F63
:105A60004FF6FF794FF0FF0806464446A0F8209015
:105A700031693068FFF79CFC00287BD175692B7871
:105A8000002B6ED0E52B60D0E97A0F0701F03F02C2
:105A900002D50F2A59D101E00F2A42D1D6F81CB005
:105AA000BBF1000F56D0580605D503F0BF04F388AC
:105AB0006A7B338402E0A3424BD1424695F80D80C5
:105AC000904545D12F78012027F040077B1E0D27F8
:105AD0005F434FF0000A294B1AF80320AA5A88B1F5
